:020000020000FC
:0200000064C3D7
:0200040018954D
:02000800189549
:02000C00189545
:02001000189541
:0200140018953D
:02001800189539
:02001C000CC313
:020020004EC0D0
:0200240018952D
:0200280044C0D2
:02002C00189525
:02003000189521
:0200340018951D
:02003800189519
:02003C00189515
:02004000189511
:0200440018950D
:02004800189509
:02004C00189505
:1000500018951F93DF93CF93D1E0C3E211E018838B
:1000600019B7186019BF1F931CE013BF1F91CF91E0
:10007000DF911F9108951F93DF93CF93D1E0C3E2E7
:1000800010E0188319B7177F19BF1F93112713BFEB
:100090001F91CC27DD27F894DDBDCCBD78940CE012
:1000A00015E3F8940BBD1ABD7894CF91DF911F91A1
:1000B0000895869B02C096981895969A18951F9356
:1000C000DF93CF93DCE0C5E3F894DBBDCABD789441
:1000D0001F9313B7103029F01F93112713BF1F91DF
:1000E00004C01F931CE013BF1F911F91CC27DD2775
:1000F000F894DDBDCCBD7894CF91DF911F91189518
:10010000E199FECFF894FFBBEEBBE09A0DB3789473
:1001100008959A95F1F78A95E1F77A95D1F70895C0
:10012000F8940F93147015BB007F102B15BBC89566
:10013000AB9AC895AB989F938F937F9390EF81E094
:1001400071E0E7DF7F918F919F9114700F9102957D
:10015000007F102B15BBC895AB9AC895AB98C89576
:1001600000EF05BB789408951F93DF93CF930F930F
:10017000D1E0C1E219910881013319F4113008F47A
:1001800006C010E001E3D1E0C1E2199308830F91AA
:10019000CF91DF911F917894B29BFECF08951F936A
:1001A000DF93CF930F93D1E0C1E21991088102331D
:1001B00019F4113008F491C010E002E3D1E0C1E27B
:1001C000199308832F93BF93AF931F93DF93CF931C
:1001D000F894D1E0C0E22881789410E0211301C0A6
:1001E00076C02A9510E1129FA02DB12D10E6A10F27
:1001F0001127B11FF8941F930F931F930F9310E0D3
:1002000000E88EDF0F911F919F938F937F9390EF64
:1002100081E071E07EDF7F918F919F910F911F911F
:100220001F930F93AF93BF933F9314E031E10D9170
:1002300077DF9F938F937F9390EF81E071E069DF89
:100240007F918F919F913A9591F73F91BF91AF9197
:100250000F911F91789410E1129FA02DB12D10ECF9
:10026000A10F1127B11FF8941F930F931F930F93A2
:1002700010E000EC55DF0F911F919F938F937F93B8
:1002800090EF81E071E045DF7F918F919F910F9119
:100290001F911F930F93AF93BF933F9314E031E1EE
:1002A0000D913EDF9F938F937F9390EF81E071E0FC
:1002B00030DF7F918F919F913A9591F73F91BF9158
:1002C000AF910F911F91D1E0C0E228837894CF9134
:1002D000DF911F91AF91BF912F910F91CF91DF913E
:1002E0001F917894B19BFECF08951F93DF93CF9316
:1002F0000F93D1E0C1E219910881033319F4113051
:1003000008F406C010E003E3D1E0C1E219930883CA
:100310000F91CF91DF911F917894B09BFECF0895FC
:100320001F93DF93CF930F93D1E0C1E2199108811E
:10033000043319F4113008F406C010E004E3D1E0EE
:10034000C1E2199308830F91CF91DF911F917894A7
:10035000B09BFECF08951F93DF93CF930F93D1E00F
:10036000C1E219910881053319F4113008F413C062
:1003700010E005E3D1E0C1E219930883D1E0C0E2C7
:100380001881153041F4D1E0C3E2188110FD02C09C
:1003900060DE01C070DE0F91CF91DF911F917894E4
:1003A000B19BFECF08951F93DF93CF930F93D1E0BE
:1003B000C1E219910881063319F4113008F406C01E
:1003C00010E006E3D1E0C1E2199308830F91CF91C9
:1003D000DF911F917894B09BFECF08951F93DF9318
:1003E000CF930F93D1E0C1E219910881073319F43B
:1003F000113008F406C010E007E3D1E0C1E2199320
:1004000008830F91CF91DF911F917894B29BFECF1B
:1004100008951F93DF93CF930F93D1E0C1E2199119
:100420000881083319F4113008F491C010E008E392
:10043000D1E0C1E2199308832F93BF93AF931F9329
:10044000DF93CF93F894D1E0C0E22881789415E04F
:10045000211301C076C0239510E1129FA02DB12D6C
:1004600010E6A10F1127B11FF8941F930F931F934C
:100470000F9310E000E854DE0F911F919F938F932C
:100480007F9390EF81E071E044DE7F918F919F91A7
:100490000F911F911F930F93AF93BF933F9314E05E
:1004A00031E10D913DDE9F938F937F9390EF81E03B
:1004B00071E02FDE7F918F919F913A9591F73F9157
:1004C000BF91AF910F911F91789410E1129FA02DD1
:1004D000B12D10ECA10F1127B11FF8941F930F93AA
:1004E0001F930F9310E000EC1BDE0F911F919F9361
:1004F0008F937F9390EF81E071E00BDE7F918F917E
:100500009F910F911F911F930F93AF93BF933F93B1
:1005100014E031E10D9104DE9F938F937F9390EF70
:1005200081E071E0F6DD7F918F919F913A9591F78F
:100530003F91BF91AF910F911F91D1E0C0E228830D
:100540007894CF91DF911F91AF91BF912F910F912F
:10055000CF91DF911F917894B19BFECF08951F93A7
:10056000DF93CF930F93D1E0C1E219910881093352
:1005700019F4113008F406C010E009E3D1E0C1E23B
:10058000199308830F91CF91DF911F917894B09BBD
:10059000FECF08951F93DF93CF930F93D1E0C1E275
:1005A000199108810A3219F4113008F406C010E0DC
:1005B0000AE2D1E0C1E2199308830F91CF91DF9154
:1005C0001F917894B29BFECF08951F93DF93CF9332
:1005D0000F93D1E0C1E219910881003319F4113071
:1005E00008F406C010E000E3D1E0C1E219930883EB
:1005F0000F91CF91DF911F917894B19BFECF089519
:100600001F93DF93CF930F93D1E0C1E2199108813B
:10061000033219F4113008F406C010E003E2D1E00F
:10062000C1E2199308830F91CF91DF911F917894C4
:10063000B29BFECF08951F93DF93CF9310B31C633B
:100640001B7F12BBB29BA6DFB19BA9DDB09B4DDE29
:1006500010B31C63177F12BBB29B86DDB19B7BDEA0
:10066000B09BA1DE10B31C631F7E12BBB29B58DE91
:10067000B19BCFDEB09B73DF10B31C631F7D12BB39
:10068000B29BACDEB19BA1DFB09BBADFD1E0C3E28D
:10069000188110FF0BC0CAB5DBB515E3C10F1CE014
:1006A000D11FF894DBBDCABD789406C0CC27DD27E6
:1006B000F894DDBDCCBD7894D1E0C1E218811395EA
:1006C0001883CF91DF911F911895E0E6F0E00027A5
:1006D0000193F830E9F7E036D9F7EE27FF27EEE18E
:1006E000FF27EA95F083E9F70FE50DBF08E00EBF9D
:1006F000F89410E119BF11271FBD14E01EBD0CE0D6
:1007000015E30BBD1ABD0AE712E109BD18BD11279B
:100710001DBD1CBD789417B3187F17BB18B31760A5
:1007200018BB11B31C6311BB14B31C6F14BB15B3FE
:10073000137015BB9F938F937F9392EF8FE075E0BB
:10074000E8DC7F918F919F9110E315BBAB9AC89520
:10075000AB989F938F937F9395EE8EE179E0D9DCF0
:100760007F918F919F91AB9AC895AB989F938F93F0
:100770007F9392EF8FE075E0CCDC7F918F919F911A
:10078000AB9AC895AB989F938F937F9392EF8FE02E
:1007900075E0BFDC7F918F919F9110E215BBAB9A02
:1007A000C895AB989F938F937F9390EF81E071E012
:1007B000B0DC7F918F919F911F930F9310E008E21F
:1007C000AFDC0F911F919F938F937F9390EF81E008
:1007D00071E09FDC7F918F919F911F930F9310E0A9
:1007E00001E09EDC0F911F919F938F937F939EE872
:1007F0008AE271E08EDC7F918F919F911F930F931E
:1008000010E00FE08DDC0F911F919F938F937F93EA
:100810009EE88AE271E07DDC7F918F919F911F932A
:100820000F9310E000E47CDC0F911F919F938F9356
:100830007F9390EF81E071E06CDC7F918F919F91CD
:100840001F930F9314E000E06BDC0F911F919F93B7
:100850008F937F9390EF81E071E05BDC7F918F91CC
:100860009F911F930F9314E000E05ADC0F911F91AA
:100870009F938F937F9390EF81E071E04ADC7F91AB
:100880008F919F911F930F9314E000E049DC0F912B
:100890001F919F938F937F9390EF81E071E039DCFC
:1008A0007F918F919F911F930F9314E000E038DCAC
:1008B0000F911F919F938F937F9390EF81E071E051
:1008C00028DC7F918F919F911F930F9314E004E098
:1008D00027DC0F911F919F938F937F9390EF81E07F
:1008E00071E017DC7F918F919F911F930F9314E01C
:1008F0000EE016DC0F911F919F938F937F9390EFE3
:1009000081E071E006DC7F918F919F911F930F939F
:1009100014E00FE105DC0F911F919F938F937F935C
:1009200090EF81E071E0F5DB7F918F919F911F93B4
:100930000F9314E000E0F4DB0F911F919F938F93CE
:100940007F9390EF81E071E0E4DB7F918F919F9145
:100950001F930F9314E000E0E3DB0F911F919F932F
:100960008F937F9390EF81E071E0D3DB7F918F9144
:100970009F911F930F9314E00FE1D2DB0F911F9112
:100980009F938F937F9390EF81E071E0C2DB7F9123
:100990008F919F911F930F9314E00EE0C1DB0F9195
:1009A0001F919F938F937F9390EF81E071E0B1DB74
:1009B0007F918F919F911F930F9314E004E0B0DB20
:1009C0000F911F919F938F937F9390EF81E071E040
:1009D000A0DB7F918F919F911F930F9314E000E014
:1009E0009FDB0F911F919F938F937F9390EF81E0F7
:1009F00071E08FDB7F918F919F911F930F9314E094
:100A000000E08EDB0F911F919F938F937F9390EF68
:100A100081E071E07EDB7F918F919F911F930F9317
:100A200014E000E07DDB0F911F919F938F937F93E4
:100A300090EF81E071E06DDB7F918F919F911F932B
:100A40000F9314E000E06CDB0F911F919F938F9345
:100A50007F9390EF81E071E05CDB7F918F919F91BC
:100A60001F930F931F930F9310E000E859DB0F9132
:100A70001F919F938F937F9390EF81E071E049DB0B
:100A80007F918F919F910F911F91F894DD27C0E680
:100A9000EE27FF2731EC34DB0993E3953A95D9F73C
:100AA0007894D1E0C0E210E01883FF93EF931F9396
:100AB0000F933F93F0E0E0E614E031E1019130DB89
:100AC0009F938F937F9390EF81E071E022DB7F9182
:100AD0008F919F913A9591F73F910F911F91EF91CF
:100AE000FF911F930F931F930F9310E000EC18DBFF
:100AF0000F911F919F938F937F9390EF81E071E00F
:100B000008DB7F918F919F910F911F91FF93EF933E
:100B10001F930F933F93F0E0E0EC14E031E101917B
:100B2000FFDA9F938F937F9390EF81E071E0F1DA8A
:100B30007F918F919F913A9591F73F910F911F91DE
:100B4000EF91FF9111B3106411BB12B31F7B12BB65
:100B5000112712BF17E11CBF19B7126019BF00009F
:020B6000FECFC6
:00000001FF
