:020000020000FC
:060000000C948C10189511
:02000800189549
:02000C00189545
:02001000189541
:0200140018953D
:02001800189539
:06001C000C9410082DC534
:0200240018952D
:0200280022C5EF
:02002C00189525
:02003000189521
:0A0034000C9487080C9464081895DA
:02004000189511
:0200440018950D
:02004800189509
:02004C0037C0BB
:1000500018959A95F1F78A95E1F77A95D1F7089571
:10006000F8940F93147015BB007F102B15BBC89527
:10007000AB9AC895AB989F938F937F9390EF81E055
:1000800071E00E9429007F918F919F9114700F91D0
:100090000295007F102B15BBC895AB9AC895AB98FD
:1000A000C89500EF05BB78940895E199FECFF894C8
:1000B000FFBBEEBBE09A0DB3789408951F93DF93D6
:1000C000CF93D1E0C4E2188116FFA9C01F7111308F
:1000D00071F01230B9F0133059F1143009F43DC009
:1000E000153009F449C0163009F45AC074C0D1E083
:1000F000C4E218811395188315EA16BFCF91DF91DA
:100100001F91189511B11C7F18301FB711FF57C0F0
:10011000D1E0C4E2188113951883D1E0CAE21881B6
:100120001E7F13B915E816BFCF91DF911F91189567
:1001300011B11C7F18311FB711FF41C0D1E0C4E2DB
:10014000188113951883D1E0CBE2188113B915E813
:1001500016BFCF91DF911F91189511B11C7F1832F6
:1001600071F5D1E0C4E218811395188315EA16BF22
:10017000CF91DF911F91189511B11C7F1031F9F4C7
:10018000D1E0C4E2188113951883D1E0CAE2188146
:10019000116013B915E816BFCF91DF911F91189523
:1001A00011B11C7F103459F4D1E0C4E218811395C9
:1001B000188315E816BFCF91DF911F911895D1E0F4
:1001C000C4E218811F771062188315E916BFCF911A
:1001D000DF911F911895D1E0C4E21881112718838F
:1001E000D1E0CCE213B11883112713B915E916BF7A
:1001F000CF91DF911F91189511B11C7F1832F9F63C
:10020000D1E0C4E2188113951883D1E0CDE21881C2
:1002100013B915E816BFCF91DF911F9118951F7183
:10022000113009F464CF123009F46CCF133009F4A3
:100230007FCF143009F4E0CFCECF1F930F93DF931D
:10024000CF930027D1E0C5E21881D1E0CDE2188339
:10025000D1E0CBE212E01883E9D00395D1E0C5E20A
:10026000C00F0F930027D01F0F911881D1E0CDE26E
:100270001883D1E0CBE211E01883D8D00395D1E008
:10028000C5E2C00F0F930027D01F0F911881D1E056
:10029000CDE21883D1E0CBE214E01883C7D00395F8
:1002A000D1E0C5E2C00F0F930027D01F0F91188136
:1002B000D1E0CDE21883D1E0CBE215E01883B6D0CF
:1002C0000395D1E0C5E2C00F0F930027D01F0F9117
:1002D0001881D1E0CDE21883D1E0CBE216E018839B
:1002E000A5D0CF91DF910F911F9108951F930F9388
:1002F000DF93CF930027D1E0CBE212E01883AED09A
:10030000D1E0CCE21881D1E0C5E21883D1E0CBE2A4
:1003100011E01883A3D0D1E0CCE218810395D1E09D
:10032000C5E2C00F0F930027D01F0F911883D1E0B3
:10033000CBE214E0188392D0D1E0CCE2188103958F
:10034000D1E0C5E2C00F0F930027D01F0F91188393
:10035000D1E0CBE215E0188381D0D1E0CCE2188166
:100360000395D1E0C5E2C00F0F930027D01F0F9176
:100370001883D1E0CBE216E0188370D0D1E0CCE254
:1003800018810395D1E0C5E2C00F0F930027D01F5D
:100390000F911883CF91DF910F911F9108952F93A3
:1003A0003F931F93DF93CF93BF93AF93D1E0CEE200
:1003B000188117FD14C030E32227D0E0C0EEB1E071
:1003C000A5E21D911F9312951F70130F19931F9192
:1003D0001F70130F199321962395253091F7AF9134
:1003E000BF91CF91DF911F913F912F9108952F934E
:1003F0003F931F93DF93CF93BF93AF932227D0E018
:10040000C0EEB1E0A5E21991105312953991305325
:10041000132B1D93219623952530A9F7AF91BF91FA
:10042000CF91DF911F913F912F9108951F93DF93FB
:10043000CF93D1E0C4E2188117FDFBCF10E81395EC
:1004400018833CDED1E0C4E2188115FDF2CF1F71A4
:100450001030C1F7CF91DF911F9108951F93DF9363
:10046000CF93D1E0C4E2188117FDFBCF10EC1395B8
:10047000188324DED1E0C4E2188115FDF2CF1F718C
:100480001030C1F7CF91DF911F9108951F93DF9333
:10049000CF931F77D1E0CDE21883D1E0CBE210E01B
:1004A0001883C4DFCF91DF911F9108951F93DF93CD
:1004B000CF931F7BD1E0CDE21883D1E0CBE212E0F5
:1004C0001883B4DFCF91DF911F9108951F93DF93BD
:1004D000CF930F93D1E0CEE2088107FF23C0D1E094
:1004E000C1E418811A30F0F0D1E0C1E4112718837B
:1004F00005FF09C0D1E0CEE20F7D0883AFD010E246
:10050000199318830FC0D1E0CEE200620883FF93F5
:10051000EF93A4D0F1E0EFE31191199310811883C8
:10052000EF91FF912F93BF93AF931F93DF93CF93DF
:10053000D1E0C0E2288110E1129FA02DB12D10E67C
:10054000A10F1127B11F1F930F931F930F9310E05B
:1005500000E80E9430000F911F919F938F937F932B
:1005600090EF81E071E00E9429007F918F919F912F
:100570000F911F911F930F93AF93BF933F9314E07D
:1005800031E10D910E9430009F938F937F9390EF04
:1005900081E071E00E9429007F918F919F913A95AF
:1005A00081F73F91BF91AF910F911F9110E1129F81
:1005B000A02DB12D10ECA10F1127B11F1F930F9388
:1005C0001F930F9310E000EC0E9430000F911F91D9
:1005D0009F938F937F9390EF81E071E00E942900B9
:1005E0007F918F919F910F911F911F930F93AF93C5
:1005F000BF933F9314E031E10D910E9430009F932F
:100600008F937F9390EF81E071E00E9429007F91AA
:100610008F919F913A9581F73F91BF91AF910F9143
:100620001F91CF91DF911F91AF91BF912F910F91AA
:10063000CF91DF911F910895DF93CF93FF93EF93B5
:100640001F93F1E0EFE30AD0199111931881108301
:100650001F91EF91FF91CF91DF9108951F930F9319
:10066000D1E0CEE218811F71012F100F100FD0E0E2
:10067000C0EEC10F0027D01F0F911F910895DF9387
:10068000CF931F93FF93EF93E9DFF1E0EFE3119135
:10069000199310811883EF91FF91D1E0CEE2188178
:1006A0001F7B1F931F71143018F41F91139502C004
:1006B0001F91107E1883C0DF1F91CF91DF910895A5
:1006C000D1E0CEE2188117FF16C0FF93EF93C6DF8B
:1006D000F1E0EFE31191199310811883EF91FF91ED
:1006E000D1E0CEE210E0188382DEA7DD0E94760121
:1006F0000E94CF0103C0A0DF10E818832F93BF939F
:10070000AF931F93DF93CF93D1E0C0E2288110E134
:10071000129FA02DB12D10E6A10F1127B11F1F931D
:100720000F931F930F9310E000E80E9430000F9189
:100730001F919F938F937F9390EF81E071E00E94D0
:1007400029007F918F919F910F911F911F930F937C
:10075000AF93BF933F9314E031E10D910E943000BD
:100760009F938F937F9390EF81E071E00E94290027
:100770007F918F919F913A9581F73F91BF91AF9172
:100780000F911F9110E1129FA02DB12D10ECA10F20
:100790001127B11F1F930F931F930F9310E000ECCD
:1007A0000E9430000F911F919F938F937F9390EF42
:1007B00081E071E00E9429007F918F919F910F91BC
:1007C0001F911F930F93AF93BF933F9314E031E1B9
:1007D0000D910E9430009F938F937F9390EF81E063
:1007E00071E00E9429007F918F919F913A9581F746
:1007F0003F91BF91AF910F911F91CF91DF911F91C9
:10080000AF91BF912F910895D1E0CEE2188117FFEB
:1008100001C035DF2F93BF93AF931F93DF93CF9327
:10082000D1E0C0E2288110E1129FA02DB12D10E689
:10083000A10F1127B11F1F930F931F930F9310E068
:1008400000E80E9430000F911F919F938F937F9338
:1008500090EF81E071E00E9429007F918F919F913C
:100860000F911F911F930F93AF93BF933F9314E08A
:1008700031E10D910E9430009F938F937F9390EF11
:1008800081E071E00E9429007F918F919F913A95BC
:1008900081F73F91BF91AF910F911F9110E1129F8E
:1008A000A02DB12D10ECA10F1127B11F1F930F9395
:1008B0001F930F9310E000EC0E9430000F911F91E6
:1008C0009F938F937F9390EF81E071E00E942900C6
:1008D0007F918F919F910F911F911F930F93AF93D2
:1008E000BF933F9314E031E10D910E9430009F933C
:1008F0008F937F9390EF81E071E00E9429007F91B8
:100900008F919F913A9581F73F91BF91AF910F9150
:100910001F91CF91DF911F91AF91BF912F910895BA
:100920001F93DF93CF930F93FF93EF9397DEF1E045
:10093000EFE31191199310811883EF91FF91D1E0AA
:10094000CEE2188117FF5DC016FD1DC008810F7132
:10095000D1E0C0E3000FC00F0027D01F0881122F85
:100960001053101739F030F079DE00E30993122F9D
:1009700018831EC073DE122F1883D1E0CEE21881D7
:10098000106418833EC008810F71D1E0C0E3000FEE
:100990000395C00F0027D01F0881122F1053101786
:1009A00011F008F0102F00E3100F58DE2196188385
:1009B00055DE199110530AE0109F002D1881105335
:1009C000010FD1E0CEE218811F71D1E0CAE3C10F5F
:1009D0001127D11F1881011791F088F00027039586
:1009E0001A50EAF70A950F930AE0100F0F912F9310
:1009F00020E3020F120F2F9131DE099318831CDEC2
:100A00003EDE1ADE0F91CF91DF911F9108951F9363
:100A1000DF93CF93D1E0C3E211E0188319B71860D8
:100A200019BF1F931CE013BF1F91CF91DF911F913E
:100A300008951F93DF93CF93D1E0C3E210E01883B2
:100A400019B7177F19BF1F93112713BF1F91CC2709
:100A5000DD27F894DDBDCCBD78940CE015E3F89467
:100A60000BBD1ABD7894CF91DF911F9108957894B2
:100A7000869B02C096981895969A189578941F931D
:100A8000DF93CF93DCE0C5E3F894DBBDCABD789477
:100A90001F9313B7103029F01F93112713BF1F9115
:100AA00004C01F931CE013BF1F911F91CC27DD27AB
:100AB000F894DDBDCCBD7894CF91DF911F9118954E
:100AC0001F93DF93CF930F93D1E0C1E21991088177
:100AD000013319F4153008F40FC010E001E3D1E040
:100AE000C1E219930883D1E0CEE2188117FF04C058
:100AF0002F9321E315DF2F910F91CF91DF911F915C
:100B000008951F93DF93CF930F93D1E0C1E2199122
:100B10000881023319F4153008F49DC010E002E397
:100B2000D1E0C1E219930883D1E0CEE2188117FF2A
:100B300005C02F9322E3F4DE2F918DC02F93BF9336
:100B4000AF931F93DF93CF93D1E0C0E2288110E0F1
:100B5000211301C07AC02A9510E1129FA02DB12D5A
:100B600010E6A10F1127B11F1F930F931F930F932F
:100B700010E000E80E9430000F911F919F938F9327
:100B80007F9390EF81E071E00E9429007F918F9127
:100B90009F910F911F911F930F93AF93BF933F931B
:100BA00014E031E10D910E9430009F938F937F9369
:100BB00090EF81E071E00E9429007F918F919F91D9
:100BC0003A9581F73F91BF91AF910F911F9110E13D
:100BD000129FA02DB12D10ECA10F1127B11F1F9353
:100BE0000F931F930F9310E000EC0E9430000F91C1
:100BF0001F919F938F937F9390EF81E071E00E940C
:100C000029007F918F919F910F911F911F930F93B7
:100C1000AF93BF933F9314E031E10D910E943000F8
:100C20009F938F937F9390EF81E071E00E94290062
:100C30007F918F919F913A9581F73F91BF91AF91AD
:100C40000F911F91D1E0C0E22883CF91DF911F91D6
:100C5000AF91BF912F910F91CF91DF911F91089587
:100C60001F93DF93CF930F93D1E0C1E219910881D5
:100C7000033319F4153008F40FC010E003E3D1E09A
:100C8000C1E219930883D1E0CEE2188117FF04C0B6
:100C90002F9323E345DE2F910F91CF91DF911F9189
:100CA00008951F93DF93CF930F93D1E0C1E2199181
:100CB0000881043319F4153008F40FC010E004E380
:100CC000D1E0C1E219930883D1E0CEE2188117FF89
:100CD00004C02F9324E324DE2F910F91CF91DF9155
:100CE0001F9108951F93DF93CF930F93D1E0C1E23B
:100CF00019910881053319F4153008F41DC010E06E
:100D000005E3D1E0C1E219930883D1E0CEE2188176
:100D100017FF05C02F9325E303DE2F910DC0D1E00F
:100D2000C0E21881153041F4D1E0C3E2188110FD12
:100D300002C06DDE01C07DDE0F91CF91DF911F916A
:100D400008951F93DF93CF930F93D1E0C1E21991E0
:100D50000881063319F4153008F40FC010E006E3DB
:100D6000D1E0C1E219930883D1E0CEE2188117FFE8
:100D700004C02F9326E3D4DD2F910F91CF91DF9103
:100D80001F9108951F93DF93CF930F93D1E0C1E29A
:100D900019910881073319F4153008F40FC010E0D9
:100DA00007E3D1E0C1E219930883D1E0CEE21881D4
:100DB00017FF04C02F9327E3B3DD2F910F91CF913D
:100DC000DF911F9108951F93DF93CF930F93D1E08D
:100DD000C1E219910881083319F4153008F49DC057
:100DE00010E008E3D1E0C1E219930883D1E0CEE23C
:100DF000188117FF05C02F9328E392DD2F918DC036
:100E00002F93BF93AF931F93DF93CF93D1E0C0E2B3
:100E1000288115E0211301C07AC0239510E1129FAB
:100E2000A02DB12D10E6A10F1127B11F1F930F9315
:100E30001F930F9310E000E80E9430000F911F9164
:100E40009F938F937F9390EF81E071E00E94290040
:100E50007F918F919F910F911F911F930F93AF934C
:100E6000BF933F9314E031E10D910E9430009F93B6
:100E70008F937F9390EF81E071E00E9429007F9132
:100E80008F919F913A9581F73F91BF91AF910F91CB
:100E90001F9110E1129FA02DB12D10ECA10F112771
:100EA000B11F1F930F931F930F9310E000EC0E944C
:100EB00030000F911F919F938F937F9390EF81E06C
:100EC00071E00E9429007F918F919F910F911F9156
:100ED0001F930F93AF93BF933F9314E031E10D91B4
:100EE0000E9430009F938F937F9390EF81E071E099
:100EF0000E9429007F918F919F913A9581F73F91B0
:100F0000BF91AF910F911F91D1E0C0E22883CF91A3
:100F1000DF911F91AF91BF912F910F91CF91DF91F1
:100F20001F9108951F93DF93CF930F93D1E0C1E2F8
:100F300019910881093319F4153008F40FC010E035
:100F400009E3D1E0C1E219930883D1E0CEE2188130
:100F500017FF04C02F9329E3E3DC2F910F91CF916A
:100F6000DF911F9108951F93DF93CF930F93D1E0EB
:100F7000C1E2199108810A3219F4153008F40CC045
:100F800010E00AE2D1E0C1E219930883D1E0C0E2A7
:100F90002881243009F494DB0F91CF91DF911F91C8
:100FA00008951F93DF93CF930F93D1E0C1E219917E
:100FB0000881003319F4153008F40FC010E000E385
:100FC000D1E0C1E219930883D1E0CEE2188117FF86
:100FD00004C02F9320E3A4DC2F910F91CF91DF91D8
:100FE0001F9108951F93DF93CF930F93D1E0C1E238
:100FF00019910881033219F4153008F40CC010E07F
:1010000003E2D1E0C1E219930883D1E0C0E2288174
:10101000243009F4F9DB0F91CF91DF911F910895EE
:1010200078941F93DF93CF93D1E0C1E41881139597
:1010300018830E9466021F9310B31C631B7F12BBB0
:10104000B29B91DFB19B5DDDB09B0ADE10B31C63E8
:10105000177F12BBB29B34DDB19B44DEB09B71DEC7
:1010600010B31C631F7E12BBB29B1BDEB19BABDEB9
:10107000B09B58DF10B31C631F7D12BBB29B82DE96
:10108000B19B8FDFB09BAEDF1F91D1E0C3E218812F
:1010900010FF0BC0CAB5DBB515E3C10F1CE0D11FB3
:1010A000F894DBBDCABD789406C0CC27DD27F89440
:1010B000DDBDCCBD7894D1E0C1E2188113951883D1
:1010C000CF91DF911F911895DF93CF931F930F93CB
:1010D000D3E0C4E41881D1E0C2E4C10F1127D11FCD
:1010E0000881003039F00CB9D3E0C4E418811395BD
:1010F000188308C01AB11F791AB9D3E0C6E4188161
:101100001E7F18830F911F91CF91DF911895DF9368
:10111000CF931F930F930CB1D3E0C5E41881D2E0B5
:10112000C3E4C10F1127D11F0883D3E0C5E41881A0
:10113000139518830F911F91CF91DF9118953F93CD
:10114000BF93AF930F93332711270C91003069F0B1
:1011500012D0103019F433951196F7CF0F91AF914B
:10116000BF91032F3F9111E008950F91AF91BF916F
:101170003F9111270895BF93AF93DF93CF930F93C0
:101180000881003069F01C91011719F4119621961D
:10119000F7CF0F91CF91DF91AF91BF9111270895B4
:1011A0000F91CF91DF91AF91BF9111E008950F930F
:1011B000BF93AF9311270D91003011F01395FBCF22
:1011C000AF91BF910F9108951F93BF93AF93DF939A
:1011D000CF93EDDFA10F1127B11F1991101711F057
:1011E0001D93FBCFCF91DF91AF91BF911F910895D8
:1011F0001F93BF93AF931D91103019F011271C93CB
:10120000FACFAF91BF911F910895BF93AF93DF9332
:10121000CF931F931D91101711F01993FBCF1F91BE
:10122000CF91DF91AF91BF910895BF93AF93DF93BB
:10123000CF931F931D910A9511F01993FBCF1F9126
:10124000CF91DF91AF91BF910895DF93CF931F931B
:10125000D3E0C6E41881116018831AB110681AB976
:101260001F91CF91DF91BF93AF93DF93CF93B2E004
:10127000A3E4D3E0C8E463DFCF91DF91AF91BF91E6
:10128000103009F4D2C6B2E0A3E4A00F0F930027F8
:10129000B01F0F911C96D4E0C8EC0DE0B6DFDF93D1
:1012A000CF931F930F93D3E0C4E411271883D1E0A9
:1012B000C2E41FEF002709931A95E9F70F911F91D8
:1012C000CF91DF91BF93AF93DF93CF930F93B1E0B3
:1012D000A2E4D3E0C5E5002777DF0F91CF91DF913E
:1012E000AF91BF91BF93AF93DF93CF930F93B1E0D3
:1012F000A2E4D4E0C8EC002767DF0F91CF91DF9123
:10130000AF91BF91BF93AF93DF93CF930F93B1E0B2
:10131000A2E4D3E0CEE5002757DF0F91CF91DF9114
:10132000AF91BF91BF93AF93DF93CF930F93B1E092
:10133000A2E4D3E0CFE6002747DF0F91CF91DF9102
:10134000AF91BF91DF93CF931F931AB11F771AB953
:10135000D3E0C6E418811E7F18831F91CF91DF91DF
:10136000DF93CF931F930F93D3E0C5E41127188326
:10137000D2E0C3E41FEF002709931A95E9F70F9114
:101380001F91CF91DF91DF93CF930F931F93D3E002
:10139000C6E4188111601883D3E0C4E411E0188317
:1013A000D1E0C2E408811AB110660CB91AB91F91D4
:1013B0000F91CF91DF91DF93CF931F93D3E0C6E4DA
:1013C0001881116018831AB110681AB91F91CF9152
:1013D000DF919F938F937F939FEF8FEF7FEF0E941B
:1013E00029007F918F919F919F938F937F939FEF80
:1013F0008FEF7FEF0E9429007F918F919F91DF9364
:10140000CF931F931AB11F771AB9D3E0C6E418819E
:101410001E7F18831F91CF91DF91BF93AF93DF930E
:10142000CF93B2E0A3E4D3E0C1E689DECF91DF91B0
:10143000AF91BF91103009F432CFBF93AF93DF93D8
:10144000CF93B2E0A3E4D3E0C3E779DECF91DF919D
:10145000AF91BF91103009F422CFB2E0A3E4A00F06
:101460000F930027B01F0F911296D4E0CBEC0CE243
:10147000CCDEBF93AF93DF93CF93B2E0A3E4D3E08E
:10148000C6E75DDECF91DF91AF91BF91103089F457
:10149000BF93AF93DF93CF93B2E0A3E4D3E0C1E86F
:1014A0004EDECF91DF91AF91BF91103009F083C034
:1014B000BCC5D3E0C7E418E01883BF93AF93DF93B4
:1014C000CF93B2E0A3E4D3E0CCE839DECF91DF9153
:1014D000AF91BF91103031F0D3E0C7E418811160B3
:1014E00018836BC1BF93AF93DF93CF93B2E0A3E4B4
:1014F000D3E0C1E924DECF91DF91AF91BF911030ED
:1015000031F0D3E0C7E418811260188356C1BF934D
:10151000AF93DF93CF93B2E0A3E4D3E0C6E90FDE4D
:10152000CF91DF91AF91BF91103031F0D3E0C7E49C
:1015300018811360188341C1BF93AF93DF93CF939A
:10154000B2E0A3E4D3E0CBE9FADDCF91DF91AF9134
:10155000BF91103031F0D3E0C7E4188114601883D4
:101560002CC1BF93AF93DF93CF93B2E0A3E4D3E05A
:10157000C4EAE5DDCF91DF91AF91BF91103031F03A
:10158000D3E0C7E418811560188317C1BF93AF93E8
:10159000DF93CF93B2E0A3E4D3E0CAEAD0DDCF91EA
:1015A000DF91AF91BF91103029F0D3E0C7E41881EB
:1015B0001660188302C1D3E0C7E411271883BF93D4
:1015C000AF93DF93CF93B2E0A3E4D3E0C1E9B7DDFB
:1015D000CF91DF91AF91BF91103009F445C01F93B7
:1015E00015E0010F1F91D2E0C3E4C00F0027D01F08
:1015F00038D5103099F1BF93AF93DF93CF931F93FA
:101600000F93BF93AF93DF93CF930F93BD2FAC2F67
:10161000D0E0C0EE0EE009DE0F91CF91DF91AF91E7
:10162000BF91B1E0A5E215E01F93199110531295F7
:1016300009910053102B1D9321961F911A95A1F724
:101640000E941D010F911F91CF91DF91AF91BF912A
:10165000D3E0C7E4188112601883AFC0D3E0C7E4B9
:10166000188110611883A9C0BF93AF93DF93CF9304
:10167000B2E0A3E4D3E0C4EA62DDCF91DF91AF91A1
:10168000BF91103009F445C01F9316E0010F1F9160
:10169000D2E0C3E4C00F0027D01F2AD5103099F143
:1016A000219618811634A9F4D4E0CCED11E018830A
:1016B000BF93AF93DF93CF930F93B4E0A6E4D1E051
:1016C000C0E10027A2DD0F91CF91DF91AF91BF91D3
:1016D00014C0D4E0CCED10E01883BF93AF93DF9338
:1016E000CF930F93B4E0AAE4D1E0C0E100278DDDF1
:1016F0000F91CF91DF91AF91BF91D3E0C7E41881F3
:10170000156018835AC0D3E0C7E4188110621883AB
:1017100054C0BF93AF93DF93CF93B2E0A3E4D3E081
:10172000CAEA0DDDCF91DF91AF91BF91103009F47E
:1017300044C01F9317E0010F1F91D2E0C3E4C00F14
:101740000027D01FD5D4103099F121961881163476
:10175000A9F4D4E0CBED11E01883BF93AF93DF93EE
:10176000CF930F93B4E0A6E4D0E0C0EF00274DDDA7
:101770000F91CF91DF91AF91BF9114C0D4E0CBED29
:1017800010E0BF93AF93DF93CF930F93B4E0AAE43D
:10179000D0E0C0EF002739DD0F91CF91DF91AF91FD
:1017A000BF911883D3E0C7E418811660188305C081
:1017B000D3E0C7E4188110621883DF93CF931F939F
:1017C0000F93D3E0C4E411271883D1E0C2E41FEFE4
:1017D000002709931A95E9F70F911F91CF91DF9197
:1017E000BF93AF93DF93CF930F93B1E0A2E4D3E025
:1017F000C4E60027E9DC0F91CF91DF91AF91BF9153
:10180000BF93AF93DF93CF930F93B1E0A2E4D4E003
:10181000CBEC0027D9DC0F91CF91DF91AF91BF9135
:10182000BF93AF93DF93CF930F93B1E0A2E4D3E0E4
:10183000CFE60027C9DC0F91CF91DF91AF91BF9127
:10184000DF93CF930F931F93D3E0C6E41881116009
:101850001883D3E0C4E411E01883D1E0C2E4088126
:101860001AB110660CB91AB91F910F91CF91DF917F
:10187000DF93CF931F93D3E0C6E4188111601883E0
:101880001AB110681AB91F91CF91DF919F938F936E
:101890007F939FEF8FEF7FEF0E9429007F918F91C1
:1018A0009F919F938F937F939FEF8FEF7FEF0E9486
:1018B00029007F918F919F919F938F937F939FEFAB
:1018C0008FEF7FEF0E9429007F918F919F919F93CF
:1018D0008F937F939FEF8FEF7FEF0E9429007F917F
:1018E0008F919F919F938F937F939FEF8FEF7FEFC8
:1018F0000E9429007F918F919F91DF93CF931F9337
:101900001AB11F771AB9D3E0C6E418811E7F188375
:101910001F91CF91DF91BF93AF93DF93CF93B2E04D
:10192000A3E4D3E0CDE60BDCCF91DF91AF91BF9183
:10193000103009F442CFDF93CF931F930F93D3E07E
:10194000C4E411271883D1E0C2E41FEF00270993F4
:101950001A95E9F70F911F91CF91DF91B3E0A7E4BA
:101960001C9113FF13C017701130C9F0123009F425
:1019700087C1133009F4B5C1143009F4E3C115303F
:1019800009F411C2163009F43FC26FC215FD7EC2C0
:1019900016FD8DC21770103009F49AC2AAC2BF9307
:1019A000AF93DF93CF930F93B1E0A2E4D0E0C0E612
:1019B00002E00ADC0F91CF91DF91AF91BF91BF930D
:1019C000AF93DF93CF930F93B1E0A2E4D3E0CFE6E0
:1019D0000027FADB0F91CF91DF91AF91BF91BF93B9
:1019E000AF93DF93CF930F93B1E0A2E4D0E0C0ECCC
:1019F00001E0EADB0F91CF91DF91AF91BF91BF93EF
:101A0000AF93DF93CF930F93B1E0A2E4D3E0CFE69F
:101A10000027DADB0F91CF91DF91AF91BF91BF9398
:101A2000AF93DF93CF930F93B1E0A2E4D0E0C0E790
:101A30000027CADB0F91CF91DF91AF91BF91BF9388
:101A4000AF93DF93CF930F93B1E0A2E4D3E0CFE65F
:101A50000027BADB0F91CF91DF91AF91BF91BF9378
:101A6000AF93DF93CF930F93B1E0A2E4D0E0C0ED4A
:101A700001E0AADB0F91CF91DF91AF91BF91BF93AE
:101A8000AF93DF93CF930F93B1E0A2E4D3E0CFE61F
:101A900000279ADB0F91CF91DF91AF91BF91BF9358
:101AA000AF93DF93CF930F93B1E0A2E4D0E0C0E80F
:101AB00000278ADB0F91CF91DF91AF91BF91BF9348
:101AC000AF93DF93CF930F93B1E0A2E4D3E0CFE6DF
:101AD00000277ADB0F91CF91DF91AF91BF91BF9338
:101AE000AF93DF93CF930F93B1E0A2E4D0E0C0EEC9
:101AF00001E06ADB0F91CF91DF91AF91BF91BF936E
:101B0000AF93DF93CF930F93B1E0A2E4D3E0CFE69E
:101B100000275ADB0F91CF91DF91AF91BF91BF9317
:101B2000AF93DF93CF930F93B1E0A2E4D0E0C0E98D
:101B300000274ADB0F91CF91DF91AF91BF91BF9307
:101B4000AF93DF93CF930F93B1E0A2E4D3E0CFE65E
:101B500000273ADB0F91CF91DF91AF91BF91BF93F7
:101B6000AF93DF93CF930F93B1E0A2E4D0E0C0EF47
:101B700001E02ADB0F91CF91DF91AF91BF91BF932D
:101B8000AF93DF93CF930F93B1E0A2E4D3E0CFE61E
:101B900000271ADB0F91CF91DF91AF91BF91BF93D7
:101BA000AF93DF93CF930F93B1E0A2E4D0E0C0EA0C
:101BB00000270ADB0F91CF91DF91AF91BF91BF93C7
:101BC000AF93DF93CF930F93B1E0A2E4D3E0CFE6DE
:101BD0000027FADA0F91CF91DF91AF91BF91BF93B8
:101BE000AF93DF93CF930F93B1E0A2E4D1E0C0E0D5
:101BF00001E0EADA0F91CF91DF91AF91BF91BF93EE
:101C0000AF93DF93CF930F93B1E0A2E4D3E0CFE69D
:101C10000027DADA0F91CF91DF91AF91BF91BF9397
:101C2000AF93DF93CF930F93B1E0A2E4D0E0C0EB8A
:101C30000027CADA0F91CF91DF91AF91BF91BF9387
:101C4000AF93DF93CF930F93B1E0A2E4D3E0CFE65D
:101C50000027BADA0F91CF91DF91AF91BF91BF9377
:101C6000AF93DF93CF930F93B1E0A2E4D1E0C0E153
:101C700002E0AADA0F91CF91DF91AF91BF914AC1F3
:101C8000BF93AF93DF93CF930F93B1E0A2E4D0E083
:101C9000C0E8002799DA0F91CF91DF91AF91BF9102
:101CA000BF93AF93DF93CF930F93B1E0A2E4D3E060
:101CB000CFE6002789DA0F91CF91DF91AF91BF91E5
:101CC000BF93AF93DF93CF930F93B1E0A2E4D0E043
:101CD000C0EE01E079DA0F91CF91DF91AF91BF9122
:101CE00019C1BF93AF93DF93CF930F93B1E0A2E4F9
:101CF000D0E0C0E7002768DA0F91CF91DF91AF9174
:101D0000BF91BF93AF93DF93CF930F93B1E0A2E462
:101D1000D3E0CFE6002758DA0F91CF91DF91AF9152
:101D2000BF91BF93AF93DF93CF930F93B1E0A2E442
:101D3000D0E0C0ED01E048DA0F91CF91DF91AF9193
:101D4000BF91E8C0BF93AF93DF93CF930F93B1E000
:101D5000A2E4D0E0C0E602E037DA0F91CF91DF9144
:101D6000AF91BF91BF93AF93DF93CF930F93B1E048
:101D7000A2E4D3E0CFE6002727DA0F91CF91DF91DD
:101D8000AF91BF91BF93AF93DF93CF930F93B1E028
:101D9000A2E4D0E0C0EC01E017DA0F91CF91DF911F
:101DA000AF91BF91B7C0BF93AF93DF93CF930F9322
:101DB000B1E0A2E4D0E0C0EB002706DA0F91CF91AA
:101DC000DF91AF91BF91BF93AF93DF93CF930F9309
:101DD000B1E0A2E4D3E0CFE60027F6D90F91CF918E
:101DE000DF91AF91BF91BF93AF93DF93CF930F93E9
:101DF000B1E0A2E4D1E0C0E102E0E6D90F91CF91D9
:101E0000DF91AF91BF9186C0BF93AF93DF93CF9324
:101E10000F93B1E0A2E4D0E0C0E90027D5D90F913B
:101E2000CF91DF91AF91BF91BF93AF93DF93CF93EA
:101E30000F93B1E0A2E4D3E0CFE60027C5D90F911C
:101E4000CF91DF91AF91BF91BF93AF93DF93CF93CA
:101E50000F93B1E0A2E4D0E0C0EF01E0B5D90F915B
:101E6000CF91DF91AF91BF9155C0BF93AF93DF93F7
:101E7000CF930F93B1E0A2E4D3E0C1EB0027A4D944
:101E80000F91CF91DF91AF91BF9144C0BF93AF93BA
:101E9000DF93CF930F93B1E0A2E4D4E0CEE4002728
:101EA00093D90F91CF91DF91AF91BF9133C0BF9381
:101EB000AF93DF93CF930F93B1E0A2E4D4E0C3E8F4
:101EC000002782D90F91CF91DF91AF91BF9122C0AE
:101ED000BF93AF93DF93CF930F93B1E0A2E4D4E02D
:101EE000C5E0002771D90F91CF91DF91AF91BF91DC
:101EF00011C0BF93AF93DF93CF930F93B1E0A2E4F0
:101F0000D3E0C1E6002760D90F91CF91DF91AF9167
:101F1000BF9100C0BF93AF93DF93CF930F93B1E016
:101F2000A2E4D3E0C1E700274FD90F91CF91DF9111
:101F3000AF91BF91DF93CF930F931F93D3E0C6E48C
:101F4000188111601883D3E0C4E411E01883D1E054
:101F5000C2E408811AB110660CB91AB91F910F9129
:101F6000CF91DF91DF93CF931F93D3E0C6E4188125
:101F7000116018831AB110681AB91F91CF91DF91BF
:101F80009F938F937F939FEF8FEF7FEF0E942900A6
:101F90007F918F919F919F938F937F939FEF8FEF6F
:101FA0007FEF0E9429007F918F919F919F938F9344
:101FB0007F939FEF8FEF7FEF0E9429007F918F919A
:101FC0009F919F938F937F939FEF8FEF7FEF0E945F
:101FD00029007F918F919F919F938F937F939FEF84
:101FE0008FEF7FEF0E9429007F918F919F91DF9368
:101FF000CF931F931AB11F771AB9D3E0C6E41881A3
:102000001E7F18831F91CF91DF91BF93AF93DF9312
:10201000CF93B2E0A3E4D3E0C1E691D8CF91DF91B2
:10202000AF91BF91103009F4C8CB0895DF93CF93DF
:10203000FF93EF93BF93AF930F93D3E0C8E4F0E027
:10204000E0ECB1E0A0E80E945500099331961197A9
:10205000D1F70F91AF91BF91EF91FF91CF91DF91A8
:102060000895DF93CF930F93112709910033E0F187
:102070000333D0F509910033B8F10A33A8F509917B
:102080000A3391F50991003378F1073368F5099126
:10209000003350F10A3340F50991003229F50991D6
:1020A000003310F1043300F509910033E8F00A33EE
:1020B000D8F409910F32C1F409910033A8F002332A
:1020C00098F40991003380F00A3370F409910F32CB
:1020D00059F40991003340F00A3330F40881003399
:1020E00018F00A3308F411E00F91CF91DF910895B1
:1020F000DF93CF930F93112709910F3449F409917E
:102100000E3429F0063421F40881063409F411E074
:102110000F91CF91DF910895E0E6F0E00027019361
:10212000F830E9F7E036D9F7EE27FF27EEE1FF2791
:10213000EA95F083E9F70FE50DBF08E00EBFF894CC
:1021400010E119BF11271FBD14E01EBD0CE015E3FF
:102150000BBD1ABD0AE712E109BD18BD11271DBD4F
:102160001CBD789417B3187F17BB18B3176018BB42
:1021700011B31C6311BB14B31C6F14BB15B31370E4
:1021800015BB9F938F937F9392EF8FE075E00E9432
:1021900029007F918F919F9110E315BBAB9AC89551
:1021A000AB989F938F937F9395EE8EE179E00E9499
:1021B00029007F918F919F91AB9AC895AB989F937F
:1021C0008F937F9392EF8FE075E00E9429007F91BB
:1021D0008F919F91AB9AC895AB989F938F937F9364
:1021E00092EF8FE075E00E9429007F918F919F917F
:1021F00010E215BBAB9AC895AB989F938F937F93D2
:1022000090EF81E071E00E9429007F918F919F9172
:102210001F930F9310E008E20E9430000F911F916E
:102220009F938F937F9390EF81E071E00E9429004C
:102230007F918F919F911F930F9310E001E00E9477
:1022400030000F911F919F938F937F939EE88AE2B6
:1022500071E00E9429007F918F919F911F930F93AE
:1022600010E00FE00E9430000F911F919F938F9319
:102270007F939EE88AE271E00E9429007F918F910E
:102280009F911F930F9310E000E40E9430000F9184
:102290001F919F938F937F9390EF81E071E00E9455
:1022A00029007F918F919F911F930F9314E000E07D
:1022B0000E9430000F911F919F938F937F9390EF17
:1022C00081E071E00E9429007F918F919F911F937F
:1022D0000F9314E000E00E9430000F911F919F9334
:1022E0008F937F9390EF81E071E00E9429007F91AE
:1022F0008F919F911F930F9314E000E00E94300094
:102300000F911F919F938F937F9390EF81E071E0E6
:102310000E9429007F918F919F911F930F9314E04A
:1023200000E00E9430000F911F919F938F937F9345
:1023300090EF81E071E00E9429007F918F919F9141
:102340001F930F9314E004E00E9430000F911F913F
:102350009F938F937F9390EF81E071E00E9429001B
:102360007F918F919F911F930F9314E00EE00E9435
:1023700030000F911F919F938F937F9390EF81E097
:1023800071E00E9429007F918F919F911F930F937D
:1023900014E00FE10E9430000F911F919F938F93E3
:1023A0007F9390EF81E071E00E9429007F918F91EF
:1023B0009F911F930F9314E000E00E9430000F9153
:1023C0001F919F938F937F9390EF81E071E00E9424
:1023D00029007F918F919F911F930F9314E000E04C
:1023E0000E9430000F911F919F938F937F9390EFE6
:1023F00081E071E00E9429007F918F919F911F934E
:102400000F9314E00FE10E9430000F911F919F93F2
:102410008F937F9390EF81E071E00E9429007F917C
:102420008F919F911F930F9314E00EE00E94300054
:102430000F911F919F938F937F9390EF81E071E0B5
:102440000E9429007F918F919F911F930F9314E019
:1024500004E00E9430000F911F919F938F937F9310
:1024600090EF81E071E00E9429007F918F919F9110
:102470001F930F9314E000E00E9430000F911F9112
:102480009F938F937F9390EF81E071E00E942900EA
:102490007F918F919F911F930F9314E000E00E9412
:1024A00030000F911F919F938F937F9390EF81E066
:1024B00071E00E9429007F918F919F911F930F934C
:1024C00014E000E00E9430000F911F919F938F93C2
:1024D0007F9390EF81E071E00E9429007F918F91BE
:1024E0009F911F930F9314E000E00E9430000F9122
:1024F0001F919F938F937F9390EF81E071E00E94F3
:1025000029007F918F919F911F930F931F930F939A
:1025100010E000E80E9430000F911F919F938F936D
:102520007F9390EF81E071E00E9429007F918F916D
:102530009F910F911F91F894DD27C0E6EE27FF27AA
:1025400031EC0E9455000993E3953A95D1F77894C0
:10255000D1E0C0E210E01883FF93EF931F930F9335
:102560003F93F0E0E0E614E031E101910E94300099
:102570009F938F937F9390EF81E071E00E942900F9
:102580007F918F919F913A9581F73F910F911F9184
:10259000EF91FF911F930F931F930F9310E000ECA7
:1025A0000E9430000F911F919F938F937F9390EF24
:1025B00081E071E00E9429007F918F919F910F919E
:1025C0001F91FF93EF931F930F933F93F0E0E0EC85
:1025D00014E031E101910E9430009F938F937F932B
:1025E00090EF81E071E00E9429007F918F919F918F
:1025F0003A9581F73F910F911F91EF91FF9111B3A0
:10260000106411BB12B31F7B12BB112712BF17E15D
:102610001CBF19B7126019BF1CE310B9D1E0CAE2A0
:1026200010ED18831F93DF93CF93D1E0CBE210E03E
:1026300018830E942E02D1E0CCE2188117FD0E947F
:102640004602D1E0CBE212E018830E942E02D1E0D4
:10265000CCE2188116FD0E945602CF91DF911F91A6
:10266000D1E0C0E312E0199319E0199316E0199331
:1026700019E0199313E0199319E0199311E01993D4
:1026800019E0199319931993D1E0CAE318E119934A
:102690001CE319931FE119931CE0199313E6199396
:1026A00017E619B910E010BD18E11AB911271BB9C6
:1026B00016E810BD0E941610DF93CF931F93D3E04E
:1026C000C6E41881116018831AB110681AB91F91F5
:1026D000CF91DF910E9425090E9476010E94CF01CF
:1026E0002F93BF93AF931F93DF93CF93D1E0C0E2BB
:1026F000288110E1129FA02DB12D10E6A10F112706
:10270000B11F1F930F931F930F9310E000E80E94D7
:1027100030000F911F919F938F937F9390EF81E0F3
:1027200071E00E9429007F918F919F910F911F91DD
:102730001F930F93AF93BF933F9314E031E10D913B
:102740000E9430009F938F937F9390EF81E071E020
:102750000E9429007F918F919F913A9581F73F9137
:10276000BF91AF910F911F9110E1129FA02DB12D3C
:1027700010ECA10F1127B11F1F930F931F930F93FD
:1027800010E000EC0E9430000F911F919F938F93F7
:102790007F9390EF81E071E00E9429007F918F91FB
:1027A0009F910F911F911F930F93AF93BF933F93EF
:1027B00014E031E10D910E9430009F938F937F933D
:1027C00090EF81E071E00E9429007F918F919F91AD
:1027D0003A9581F73F91BF91AF910F911F91CF91A2
:0C27E000DF911F91AF91BF912F9174CF3A
:00000001FF
