:020000020000FC
:060000000C946A1518952E
:02000800189549
:02000C00189545
:02001000189541
:0200140018953D
:02001800189539
:0A001C000C94E70A0C9414081895E0
:060028000C940D08189570
:02003000189521
:0A0034000C945E0B0C943B0B189526
:02004000189511
:0200440018950D
:02004800189509
:02004C00189505
:1000500018959A95F1F78A95E1F77A95D1F7089571
:10006000F8940F93147015BB007F102B15BBC89527
:10007000AB9AC895AB989F938F937F9390EF81E055
:1000800071E00E9429007F918F919F9114700F91D0
:100090000295007F102B15BBC895AB9AC895AB98FD
:1000A000C89500EF05BB7894089514B31C6F14BB7A
:1000B00015B3137015BB9F938F937F9392EF8FE0CF
:1000C00075E00E9429007F918F919F9110E315BBED
:1000D000AB9AC895AB989F938F937F9395EE8EE1E3
:1000E00079E00E9429007F918F919F91AB9AC895EA
:1000F000AB989F938F937F9392EF8FE075E00E9470
:1001000029007F918F919F91AB9AC895AB989F934F
:100110008F937F9392EF8FE075E00E9429007F918B
:100120008F919F9110E215BBAB9AC895AB989F93A6
:100130008F937F9390EF81E071E00E9429007F917F
:100140008F919F911F930F9310E008E20E9430005F
:100150000F911F919F938F937F9390EF81E071E0B8
:100160000E9429007F918F919F919F938F937F93FE
:100170009EE88AE271E00E9429007F918F919F9111
:100180001F930F9310E001E00E9430000F911F9128
:100190009F938F937F939EE88AE271E00E942900EB
:1001A0007F918F919F919F938F937F939EE88AE297
:1001B00071E00E9429007F918F919F911F930F936F
:1001C00010E00CE00E9430000F911F919F938F93DD
:1001D0007F939EE88AE271E00E9429007F918F91CF
:1001E0009F919F938F937F939EE88AE271E00E9494
:1001F00029007F918F919F912DD01F930F931F9373
:100200000F9310E000E80E9430000F911F919F9320
:100210008F937F9390EF81E071E00E9429007F919E
:100220008F919F910F911F9108951F930F9310E04D
:100230000CE00E9430000F911F919F938F937F934A
:100240009EE88AE271E00E9429007F918F919F9140
:1002500001D008951F930F9310E000E40E94300036
:100260000F911F919F938F937F9390EF81E071E0A7
:100270000E9429007F918F919F911F930F9314E00B
:1002800000E00E9430000F911F919F938F937F9306
:1002900090EF81E071E00E9429007F918F919F9102
:1002A0001F930F9314E000E00E9430000F911F9104
:1002B0009F938F937F9390EF81E071E00E942900DC
:1002C0007F918F919F911F930F9314E000E00E9404
:1002D00030000F911F919F938F937F9390EF81E058
:1002E00071E00E9429007F918F919F911F930F933E
:1002F00014E000E00E9430000F911F919F938F93B4
:100300007F9390EF81E071E00E9429007F918F91AF
:100310009F911F930F9314E004E00E9430000F910F
:100320001F919F938F937F9390EF81E071E00E94E4
:1003300029007F918F919F911F930F9314E00EE0FE
:100340000E9430000F911F919F938F937F9390EFA6
:1003500081E071E00E9429007F918F919F911F930E
:100360000F9314E00FE10E9430000F911F919F93B3
:100370008F937F9390EF81E071E00E9429007F913D
:100380008F919F911F930F9314E000E00E94300023
:100390000F911F919F938F937F9390EF81E071E076
:1003A0000E9429007F918F919F911F930F9314E0DA
:1003B00000E00E9430000F911F919F938F937F93D5
:1003C00090EF81E071E00E9429007F918F919F91D1
:1003D0001F930F9314E00FE10E9430000F911F91C3
:1003E0009F938F937F9390EF81E071E00E942900AB
:1003F0007F918F919F911F930F9314E00EE00E94C5
:1004000030000F911F919F938F937F9390EF81E026
:1004100071E00E9429007F918F919F911F930F930C
:1004200014E004E00E9430000F911F919F938F937E
:100430007F9390EF81E071E00E9429007F918F917E
:100440009F911F930F9314E000E00E9430000F91E2
:100450001F919F938F937F9390EF81E071E00E94B3
:1004600029007F918F919F911F930F9314E000E0DB
:100470000E9430000F911F919F938F937F9390EF75
:1004800081E071E00E9429007F918F919F911F93DD
:100490000F9314E000E00E9430000F911F919F9392
:1004A0008F937F9390EF81E071E00E9429007F910C
:1004B0008F919F911F930F9314E000E00E943000F2
:1004C0000F911F919F938F937F9390EF81E071E045
:1004D0000E9429007F918F919F911F930F9314E0A9
:1004E00000E00E9430000F911F919F938F937F93A4
:1004F00090EF81E071E00E9429007F918F919F91A0
:100500001F930F9314E000E00E9430000F911F91A1
:100510009F938F937F9390EF81E071E00E94290079
:100520007F918F919F911F930F9314E000E00E94A1
:1005300030000F911F919F938F937F9390EF81E0F5
:1005400071E00E9429007F918F919F911F930F93DB
:1005500014E000E00E9430000F911F919F938F9351
:100560007F9390EF81E071E00E9429007F918F914D
:100570009F911F930F9314E000E00E9430000F91B1
:100580001F919F938F937F9390EF81E071E00E9482
:1005900029007F918F919F911F930F9314E000E0AA
:1005A0000E9430000F911F919F938F937F9390EF44
:1005B00081E071E00E9429007F918F919F911F93AC
:1005C0000F9314E000E00E9430000F911F919F9361
:1005D0008F937F9390EF81E071E00E9429007F91DB
:1005E0008F919F911F930F9314E000E00E943000C1
:1005F0000F911F919F938F937F9390EF81E071E014
:100600000E9429007F918F919F911F930F9314E077
:100610000CE00E9430000F911F919F938F937F9366
:1006200090EF81E071E00E9429007F918F919F916E
:100630001F930F9314E002E10E9430000F911F916D
:100640009F938F937F9390EF81E071E00E94290048
:100650007F918F919F911F930F9314E002E10E946D
:1006600030000F911F919F938F937F9390EF81E0C4
:1006700071E00E9429007F918F919F911F930F93AA
:1006800014E00CE00E9430000F911F919F938F9314
:100690007F9390EF81E071E00E9429007F918F911C
:1006A0009F911F930F9314E000E00E9430000F9180
:1006B0001F919F938F937F9390EF81E071E00E9451
:1006C00029007F918F919F911F930F9314E000E079
:1006D0000E9430000F911F919F938F937F9390EF13
:1006E00081E071E00E9429007F918F919F911F937B
:1006F0000F9314E000E00E9430000F911F919F9330
:100700008F937F9390EF81E071E00E9429007F91A9
:100710008F919F911F930F9314E000E00E9430008F
:100720000F911F919F938F937F9390EF81E071E0E2
:100730000E9429007F918F919F910895E199FECFAA
:10074000F894FFBBEEBBE09A0DB3789408951F9325
:1007500014EA16BF16B717FFFDCF11B11C7F183072
:1007600021F50E7F03B914E816BF16B717FFFDCFAA
:1007700011B11C7F1831C9F41F9113B914E816BFC9
:1007800016B717FFFDCF11B11C7F183271F423B9D2
:1007900014E816BF16B717FFFDCF332319F02D91BC
:1007A0003A95F1CF14E916BF089514E916BFD0CFDA
:1007B0001F9314EA16BF16B717FFFDCF11B11C7FA8
:1007C000183009F040C00E7F03B914E816BF16B701
:1007D00017FFFDCF11B11C7F1831A9F51F9113B977
:1007E00014E816BF16B717FFFDCF11B11C7F1832E2
:1007F00051F514EA16BF16B717FFFDCF11B11C7FD4
:10080000103109F5016003B914E816BF16B717FFD8
:10081000FDCF00E411B11C7F1017A9F4323010F4A1
:1008200014E801C014EC16BF16B717FFFDCF23B1B3
:10083000112713B9332321F02D9300E53A95EACF20
:1008400014E916BF089514E916BFB3CF2F930F9381
:100850001F933F932BE033E63A95F1F72A95E1F7A2
:10086000332700ED12E00E94D8033F911F910F91B2
:10087000209325010F931F933F932BE033E63A9586
:10088000F1F72A95E1F7332700ED11E00E94D80334
:100890003F911F910F91209326010F931F933F9338
:1008A0002BE033E63A95F1F72A95E1F7332700ED8F
:1008B00014E00E94D8033F911F910F9120932701CC
:1008C0000F931F933F932BE033E63A95F1F72A9568
:1008D000E1F7332700ED15E00E94D8033F911F9107
:1008E0000F91209328010F931F933F932BE033E642
:1008F0003A95F1F72A95E1F7332700ED16E00E94CB
:10090000D8033F911F910F91209329012F910895B2
:100910002F933F931F93DF93CF93BF93AF93D1E078
:10092000CEE2188117FD14C030E32227D0E0C0EEDC
:10093000B1E0A5E21D911F9312951F70130F19933B
:100940001F911F70130F199321962395253091F74E
:10095000AF91BF91CF91DF911F913F912F9108955A
:100960002F933F931F93DF93CF93BF93AF93222790
:10097000D0E0C0EEB1E0A5E2199110531295399183
:100980003053132B1D93219623952530A9F7AF9152
:10099000BF91CF91DF911F913F912F9108952F9398
:1009A000109125010F931F933F932BE033E63A9567
:1009B000F1F72A95E1F7212F332700ED12E00E948D
:1009C000A7033F911F910F91109126010F931F9341
:1009D0003F932BE033E63A95F1F72A95E1F7212F83
:1009E000332700ED11E00E94A7033F911F910F9163
:1009F000109127010F931F933F932BE033E63A9515
:100A0000F1F72A95E1F7212F332700ED14E00E943A
:100A1000A7033F911F910F91109128010F931F93EE
:100A20003F932BE033E63A95F1F72A95E1F7212F32
:100A3000332700ED15E00E94A7033F911F910F910E
:100A4000109129010F931F933F932BE033E63A95C2
:100A5000F1F72A95E1F7212F332700ED16E00E94E8
:100A6000A7033F911F910F912F9108951F93DF933B
:100A7000CF930F93D1E0CEE2088107FF23C0D1E0EE
:100A8000C1E418811A30F0F0D1E0C1E411271883D5
:100A900005FF09C0D1E0CEE20F7D0883B1D010E29E
:100AA000199318830FC0D1E0CEE200620883FF9350
:100AB000EF93A6D0F1E0EFE3119119931081188321
:100AC000EF91FF912F93BF93AF931F93DF93CF933A
:100AD0000E941501D1E0C0E2288110E1129FA02DF3
:100AE000B12D10E6A10F1127B11F1F930F931F9374
:100AF0000F9310E000E80E9430000F911F919F9328
:100B00008F937F9390EF81E071E00E9429007F91A5
:100B10008F919F910F911F911F930F93AF93BF934D
:100B20003F9314E031E10D910E9430009F938F9329
:100B30007F9390EF81E071E00E9429007F918F9177
:100B40009F913A9581F73F91BF91AF910F911F917E
:100B500010E1129FA02DB12D10ECA10F1127B11F94
:100B60001F930F931F930F9310E000EC0E9430002F
:100B70000F911F919F938F937F9390EF81E071E08E
:100B80000E9429007F918F919F910F911F911F9338
:100B90000F93AF93BF933F9314E031E10D910E9407
:100BA00030009F938F937F9390EF81E071E00E94DC
:100BB00029007F918F919F913A9581F73F91BF9145
:100BC000AF910F911F91CF91DF911F91AF91BF9185
:100BD0002F910F91CF91DF911F910895DF93CF93C4
:100BE000FF93EF931F93F1E0EFE30AD01991119374
:100BF000188110831F91EF91FF91CF91DF9108959C
:100C00001F930F93D1E0CEE218811F71012F100FB7
:100C1000100FD0E0C0EEC10F0027D01F0F911F9121
:100C20000895DF93CF931F93FF93EF93E9DFF1E0F4
:100C3000EFE31191199310811883EF91FF91D1E0A7
:100C4000CEE218811F7B1F931F71143018F41F917F
:100C5000139502C01F91107E1883C0DF1F91CF91A2
:100C6000DF910895D1E0CEE2188117FF16C0FF93FF
:100C7000EF93C6DFF1E0EFE3119119931081188330
:100C8000EF91FF91D1E0CEE210E0188369DE87DEBC
:100C90000E9426040E94880403C0A0DF10E8188385
:100CA0002F93BF93AF931F93DF93CF930E941501B0
:100CB000D1E0C0E2288110E1129FA02DB12D10E6F5
:100CC000A10F1127B11F1F930F931F930F9310E0D4
:100CD00000E80E9430000F911F919F938F937F93A4
:100CE00090EF81E071E00E9429007F918F919F91A8
:100CF0000F911F911F930F93AF93BF933F9314E0F6
:100D000031E10D910E9430009F938F937F9390EF7C
:100D100081E071E00E9429007F918F919F913A9527
:100D200081F73F91BF91AF910F911F9110E1129FF9
:100D3000A02DB12D10ECA10F1127B11F1F930F9300
:100D40001F930F9310E000EC0E9430000F911F9151
:100D50009F938F937F9390EF81E071E00E94290031
:100D60007F918F919F910F911F911F930F93AF933D
:100D7000BF933F9314E031E10D910E9430009F93A7
:100D80008F937F9390EF81E071E00E9429007F9123
:100D90008F919F913A9581F73F91BF91AF910F91BC
:100DA0001F91CF91DF911F91AF91BF912F91089526
:100DB000D1E0CEE2188117FF01C033DF2F93BF933C
:100DC000AF931F93DF93CF930E941501D1E0C0E250
:100DD000288110E1129FA02DB12D10E6A10F11273F
:100DE000B11F1F930F931F930F9310E000E80E9411
:100DF00030000F911F919F938F937F9390EF81E02D
:100E000071E00E9429007F918F919F910F911F9116
:100E10001F930F93AF93BF933F9314E031E10D9174
:100E20000E9430009F938F937F9390EF81E071E059
:100E30000E9429007F918F919F913A9581F73F9170
:100E4000BF91AF910F911F9110E1129FA02DB12D75
:100E500010ECA10F1127B11F1F930F931F930F9336
:100E600010E000EC0E9430000F911F919F938F9330
:100E70007F9390EF81E071E00E9429007F918F9134
:100E80009F910F911F911F930F93AF93BF933F9328
:100E900014E031E10D910E9430009F938F937F9376
:100EA00090EF81E071E00E9429007F918F919F91E6
:100EB0003A9581F73F91BF91AF910F911F91CF91DB
:100EC000DF911F91AF91BF912F9108951F93DF93F1
:100ED000CF930F93FF93EF9393DEF1E0EFE3119144
:100EE000199310811883EF91FF91D1E0CEE2188120
:100EF00017FF5DC016FD1DC008810F71D1E0C0E372
:100F0000000FC00F0027D01F0881122F1053101799
:100F100039F030F075DE00E30993122F18831EC0FC
:100F20006FDE122F1883D1E0CEE21881106418838F
:100F30003EC008810F71D1E0C0E3000F0395C00FE0
:100F40000027D01F0881122F1053101711F008F03E
:100F5000102F00E3100F54DE2196188351DE1991F3
:100F600010530AE0109F002D18811053010FD1E09B
:100F7000CEE218811F71D1E0CAE3C10F1127D11F42
:100F80001881011791F088F0002703951A50EAF7AD
:100F90000A950F930AE0100F0F912F9320E3020F91
:100FA000120F2F912DDE0993188318DE3ADE16DE1C
:100FB0000F91CF91DF911F9108951F93DF93CF93EE
:100FC000D1E0C3E211E0188319B7186019BF1F936D
:100FD0001CE013BF1F91CF91DF911F9108951F93C4
:100FE000DF93CF93D1E0C3E210E0188319B7177FE6
:100FF00019BF1F93112713BF1F91CC27DD27F8942A
:10100000DDBDCCBD78940CE015E3F8940BBD1ABDA2
:101010007894CF91DF911F9108957894869B02C0B8
:1010200096981895969A189578941F93DF93CF9376
:10103000DCE0C5E3F894DBBDCABD78941F9313B719
:10104000103029F01F93112713BF1F9104C01F9365
:101050001CE013BF1F911F91CC27DD27F894DDBD45
:10106000CCBD7894CF91DF911F9118951F93DF939A
:10107000CF930F93D1E0C1E219910881013319F4A4
:101080001A3008F40FC010E001E3D1E0C1E2199377
:101090000883D1E0CEE2188117FF04C02F9321E32B
:1010A00015DF2F910F91CF91DF911F9108951F931D
:1010B000DF93CF930F93D1E0C1E2199108810233FE
:1010C00019F41A3008F49DC010E002E3D1E0C1E247
:1010D00019930883D1E0CEE2188117FF05C02F9342
:1010E00022E3F4DE2F918DC02F93BF93AF931F9314
:1010F000DF93CF93D1E0C0E2288110E0211301C03B
:101100007AC02A9510E1129FA02DB12D10E6A10FF3
:101110001127B11F1F930F931F930F9310E000E847
:101120000E9430000F911F919F938F937F9390EFB8
:1011300081E071E00E9429007F918F919F910F9132
:101140001F911F930F93AF93BF933F9314E031E12F
:101150000D910E9430009F938F937F9390EF81E0D9
:1011600071E00E9429007F918F919F913A9581F7BC
:101170003F91BF91AF910F911F9110E1129FA02D50
:10118000B12D10ECA10F1127B11F1F930F931F93C7
:101190000F9310E000EC0E9430000F911F919F937D
:1011A0008F937F9390EF81E071E00E9429007F91FF
:1011B0008F919F910F911F911F930F93AF93BF93A7
:1011C0003F9314E031E10D910E9430009F938F9383
:1011D0007F9390EF81E071E00E9429007F918F91D1
:1011E0009F913A9581F73F91BF91AF910F911F91D8
:1011F000D1E0C0E22883CF91DF911F91AF91BF91E1
:101200002F910F91CF91DF911F9108951F93DF933D
:10121000CF930F93D1E0C1E219910881033319F400
:101220001A3008F40FC010E003E3D1E0C1E21993D3
:101230000883D1E0CEE2188117FF04C02F9323E387
:1012400045DE2F910F91CF91DF911F9108951F934C
:10125000DF93CF930F93D1E0C1E21991088104335A
:1012600019F41A3008F40FC010E004E3D1E0C1E231
:1012700019930883D1E0CEE2188117FF04C02F93A1
:1012800024E324DE2F910F91CF91DF911F910895D8
:101290001F93DF93CF930F93D1E0C1E2199108819F
:1012A000053319F41A3008F41DC010E005E3D1E04D
:1012B000C1E219930883D1E0CEE2188117FF05C07F
:1012C0002F9325E303DE2F910DC0D1E0C0E21881FA
:1012D000153041F4D1E0C3E2188110FD02C06DDE8B
:1012E00001C07DDE0F91CF91DF911F9108951F9373
:1012F000DF93CF930F93D1E0C1E2199108810633B8
:1013000019F41A3008F40FC010E006E3D1E0C1E28E
:1013100019930883D1E0CEE2188117FF04C02F9300
:1013200026E3D4DD2F910F91CF91DF911F91089586
:101330001F93DF93CF930F93D1E0C1E219910881FE
:10134000073319F41A3008F40FC010E007E3D1E0B6
:10135000C1E219930883D1E0CEE2188117FF04C0DF
:101360002F9327E3B3DD2F910F91CF91DF911F9141
:1013700008951F93DF93CF930F93D1E0C1E21991AA
:101380000881083319F41A3008F49DC010E008E30E
:10139000D1E0C1E219930883D1E0CEE2188117FFB2
:1013A00005C02F9328E392DD2F918DC02F93BF931B
:1013B000AF931F93DF93CF93D1E0C0E2288115E074
:1013C000211301C07AC0239510E1129FA02DB12DE9
:1013D00010E6A10F1127B11F1F930F931F930F93B7
:1013E00010E000E80E9430000F911F919F938F93AF
:1013F0007F9390EF81E071E00E9429007F918F91AF
:101400009F910F911F911F930F93AF93BF933F93A2
:1014100014E031E10D910E9430009F938F937F93F0
:1014200090EF81E071E00E9429007F918F919F9160
:101430003A9581F73F91BF91AF910F911F9110E1C4
:10144000129FA02DB12D10ECA10F1127B11F1F93DA
:101450000F931F930F9310E000EC0E9430000F9148
:101460001F919F938F937F9390EF81E071E00E9493
:1014700029007F918F919F910F911F911F930F933F
:10148000AF93BF933F9314E031E10D910E94300080
:101490009F938F937F9390EF81E071E00E942900EA
:1014A0007F918F919F913A9581F73F91BF91AF9135
:1014B0000F911F91D1E0C0E22883CF91DF911F915E
:1014C000AF91BF912F910F91CF91DF911F9108950F
:1014D0001F93DF93CF930F93D1E0C1E2199108815D
:1014E000093319F41A3008F40FC010E009E3D1E011
:1014F000C1E219930883D1E0CEE2188117FF04C03E
:101500002F9329E3E3DC2F910F91CF91DF911F916E
:1015100008951F93DF93CF930F93D1E0C1E2199108
:1015200008810A3219F41A3008F40DC010E00AE2FA
:10153000D1E0C1E219930883D1E0C0E228812230D2
:1015400009F40E9432060F91CF91DF911F91089507
:101550001F93DF93CF930F93D1E0C1E219910881DC
:10156000003319F41A3008F40FC010E000E3D1E0A2
:10157000C1E219930883D1E0CEE2188117FF04C0BD
:101580002F9320E3A3DC2F910F91CF91DF911F9137
:1015900008951F93DF93CF930F93D1E0C1E2199188
:1015A0000881033219F41A3008F40CC010E003E289
:1015B000D1E0C1E219930883D1E0C0E22881223052
:1015C00009F4F6DB0F91CF91DF911F910895789484
:1015D0001F93DF93CF93D1E0C1E418811395188353
:1015E0000E9436051F9310B31C631B7F12BBB29B76
:1015F00090DFB19B5CDDB09B09DE10B31C63177FED
:1016000012BBB29B33DDB19B43DEB09B70DE10B3E7
:101610001C631F7E12BBB29B1ADEB19BAADEB09B7D
:1016200057DF10B31C631F7D12BBB29B81DEB19BE1
:101630008FDFB09BAEDF1F91D1E0C3E2188110FFB6
:101640000BC0CAB5DBB515E3C10F1CE0D11FF89480
:10165000DBBDCABD789406C0CC27DD27F894DDBD7C
:10166000CCBD7894D1E0C1E2188113951883CF9155
:10167000DF911F911895DF93CF931F930F93D3E0C2
:10168000C4E41881D1E0C2E4C10F1127D11F088141
:10169000003039F00CB9D3E0C4E4188113951883F5
:1016A00008C01AB11F791AB9D3E0C6E418811E7FA9
:1016B00018830F911F91CF91DF911895DF93CF93EE
:1016C0001F930F930CB1D3E0C5E41881D2E0C3E4BB
:1016D000C10F1127D11F0883D3E0C5E418811395EA
:1016E00018830F911F91CF91DF9118953F93BF936E
:1016F000AF930F93332711270C91003069F012D06C
:10170000103019F433951196F7CF0F91AF91BF9127
:10171000032F3F9111E008950F91AF91BF913F9139
:1017200011270895BF93AF93DF93CF930F93088151
:10173000003069F01C91011719F411962196F7CF2A
:101740000F91CF91DF91AF91BF91112708950F9124
:10175000CF91DF91AF91BF9111E008950F93BF93A7
:10176000AF9311270D91003011F01395FBCFAF917E
:10177000BF910F9108951F93BF93AF93DF93CF93C2
:10178000EDDFA10F1127B11F1991101711F01D9353
:10179000FBCFCF91DF91AF91BF911F9108951F9320
:1017A000BF93AF931D91103019F011271C93FACFFE
:1017B000AF91BF911F910895BF93AF93DF93CF93E4
:1017C0001F931D91101711F01993FBCF1F91CF910B
:1017D000DF91AF91BF910895BF93AF93DF93CF9304
:1017E0001F931D910A9511F01993FBCF1F91CF9173
:1017F000DF91AF91BF910895DF93CF931F93D3E013
:10180000C6E41881116018831AB110681AB91F91C3
:10181000CF91DF91BF93AF93DF93CF93B2E0A3E477
:10182000D3E0C8E40E94760BCF91DF91AF91BF91D6
:10183000103009F40C94E913979A9F938F937F9338
:1018400092E58BE27DE40E9429007F918F919F9128
:1018500097989F938F937F9392E58BE27DE40E940C
:1018600029007F918F919F91B2E0A3E4A00F0F9385
:101870000027B01F0F911C96D4E0C6ED0DE09CDF51
:10188000DF93CF931F930F93112710934503D2E05B
:10189000C3E41127002709931A95E9F70F911F91C7
:1018A000CF91DF91DF93CF931F930F931127109365
:1018B0004403D1E0C2E41127002709931A95E9F700
:1018C0000F911F91CF91DF91BF93AF93DF93CF9390
:1018D0000F93B1E0A2E4D3E0C5E500270E94BB0B63
:1018E0000F91CF91DF91AF91BF91BF93AF93DF93F2
:1018F000CF930F93B1E0A2E4D4E0C6ED00270E949D
:10190000BB0B0F91CF91DF91AF91BF91BF93AF937D
:10191000DF93CF930F93B1E0A2E4D3E0CEE50027AD
:101920000E94BB0B0F91CF91DF91AF91BF91BF93FD
:10193000AF93DF93CF930F93B1E0A2E4D3E0CFE670
:1019400000270E94BB0B0F91CF91DF91AF91BF9108
:10195000DF93CF930F931F93D3E0C6E418811160F8
:101960001883D3E0C4E411E01883D1E0C2E4088115
:101970001AB110660CB91AB91F910F91CF91DF916E
:10198000DF93CF931F93D3E0C6E4188111601883CF
:101990001AB110681AB91F91CF91DF919F938F935D
:1019A0007F939FEF8FEF7FEF0E9429007F918F91B0
:1019B0009F919F938F937F939FEF8FEF7FEF0E9475
:1019C00029007F918F919F919F938F937F939FEF9A
:1019D0008FEF7FEF0E9429007F918F919F919F93BE
:1019E0008F937F939FEF8FEF7FEF0E9429007F916E
:1019F0008F919F919F938F937F939FEF8FEF7FEFB7
:101A00000E9429007F918F919F919F938F937F9345
:101A10009FEF8FEF7FEF0E9429007F918F919F9121
:101A2000BF93AF93DF93CF93B2E0A3E4D3E0C1E6DB
:101A30000E94760BCF91DF91AF91BF91103009F4E6
:101A40001FCFBF93AF93DF93CF93B2E0A3E4D3E074
:101A5000C3E70E94760BCF91DF91AF91BF91103019
:101A600009F40ECFB2E0A3E4A00F0F930027B01F3C
:101A70000F911296D4E0C9ED0CE29EDEBF93AF93B6
:101A8000DF93CF93B2E0A3E4D3E0C6E70E94760BE6
:101A9000CF91DF91AF91BF91103099F4BF93AF9385
:101AA000DF93CF93B2E0A3E4D3E0C1E80E94760BCA
:101AB000CF91DF91AF91BF91103009F08AC00C94A3
:101AC000E913D3E0C7E418E01883BF93AF93DF9323
:101AD000CF93B2E0A3E4D3E0CCE80E94760BCF91A1
:101AE000DF91AF91BF91103031F0D3E0C7E418819E
:101AF000116018837AC1BF93AF93DF93CF93B2E0A5
:101B0000A3E4D3E0C1E90E94760BCF91DF91AF91BE
:101B1000BF91103031F0D3E0C7E418811260188310
:101B200064C1BF93AF93DF93CF93B2E0A3E4D3E05C
:101B3000C6E90E94760BCF91DF91AF91BF91103033
:101B400031F0D3E0C7E41881136018834EC1BF930E
:101B5000AF93DF93CF93B2E0A3E4D3E0CBE90E944D
:101B6000760BCF91DF91AF91BF91103031F0D3E080
:101B7000C7E418811460188338C1BF93AF93DF9313
:101B8000CF93B2E0A3E4D3E0C4EA0E94760BCF91F6
:101B9000DF91AF91BF91103031F0D3E0C7E41881ED
:101BA0001560188322C1BF93AF93DF93CF93B2E048
:101BB000A3E4D3E0CAEA0E94760BCF91DF91AF9104
:101BC000BF91103029F0D3E0C7E418811660188364
:101BD0000CC1D3E0C7E411271883BF93AF93DF9301
:101BE000CF93B2E0A3E4D3E0C1E90E94760BCF919A
:101BF000DF91AF91BF91103009F446C01F9315E0FB
:101C0000010F1F91D2E0C3E4C00F0027D01F0E9434
:101C10002B14103099F1BF93AF93DF93CF931F93A1
:101C20000F93BF93AF93DF93CF930F93BD2FAC2F41
:101C3000D0E0C0EE0EE0D0DD0F91CF91DF91AF91FB
:101C4000BF91B1E0A5E215E01F93199110531295D1
:101C500009910053102B1D9321961F911A95A1F7FE
:101C60000E94CF040F911F91CF91DF91AF91BF914F
:101C7000D3E0C7E4188112601883B7C0D3E0C7E48B
:101C8000188110611883B1C0BF93AF93DF93CF93D6
:101C9000B2E0A3E4D3E0C4EA0E94760BCF91DF91D7
:101CA000AF91BF91103009F448C01F9316E0010FA7
:101CB0001F91D2E0C3E4C00F0027D01F0E9472140E
:101CC0001030A9F1219618811634B1F0D4E0CAEE93
:101CD00011E01883BF93AF93DF93CF930F93B4E0DA
:101CE000A6E4D1E0C0E100270E94DC0B0F91CF9168
:101CF000DF91AF91BF9115C0D4E0CAEE10E0188318
:101D0000BF93AF93DF93CF930F93B4E0AAE4D1E0F6
:101D1000C0E100270E94DC0B0F91CF91DF91AF91C2
:101D2000BF91D3E0C7E41881156018835EC0D3E08B
:101D3000C7E418811062188358C0BF93AF93DF9334
:101D4000CF93B2E0A3E4D3E0CAEA0E94760BCF912E
:101D5000DF91AF91BF91103009F447C01F9317E096
:101D6000010F1F91D2E0C3E4C00F0027D01F0E94D3
:101D700072141030A9F1219618811634B1F0D4E014
:101D8000C9EE11E01883BF93AF93DF93CF930F9306
:101D9000B4E0A6E4D0E0C0EF00270E94DC0B0F9176
:101DA000CF91DF91AF91BF9115C0D4E0C9EE10E0A3
:101DB000BF93AF93DF93CF930F93B4E0AAE4D0E047
:101DC000C0EF00270E94DC0B0F91CF91DF91AF9104
:101DD000BF911883D3E0C7E418811660188305C04B
:101DE000D3E0C7E4188110621883DF93CF931F9369
:101DF0000F93112710934403D1E0C2E41127002769
:101E000009931A95E9F70F911F91CF91DF91DF9315
:101E1000CF931F930F93112710934503D2E0C3E490
:101E20001127002709931A95E9F70F911F91CF9178
:101E3000DF91BF93AF93DF93CF930F93B1E0A2E411
:101E4000D3E0C4E600270E94BB0B0F91CF91DF9136
:101E5000AF91BF91BF93AF93DF93CF930F93B1E057
:101E6000A2E4D4E0C9ED00270E94BB0B0F91CF91F3
:101E7000DF91AF91BF91BF93AF93DF93CF930F9358
:101E8000B1E0A2E4D3E0CFE600270E94BB0B0F91A4
:101E9000CF91DF91AF91BF91DF93CF930F931F93BA
:101EA000D3E0C6E4188111601883D3E0C4E411E0E4
:101EB0001883D1E0C2E408811AB110660CB91AB9CE
:101EC0001F910F91CF91DF91DF93CF931F93D3E0B9
:101ED000C6E41881116018831AB110681AB91F91ED
:101EE000CF91DF919F938F937F939FEF8FEF7FEF42
:101EF0000E9429007F918F919F91BF93AF93DF93B1
:101F0000CF93B2E0A3E4D3E0CDE60E94760BCF916D
:101F1000DF91AF91BF91103009F467CF979ADF93AB
:101F2000CF931F930F93112710934403D1E0C2E482
:101F30001127002709931A95E9F70F911F91CF9167
:101F4000DF91B3E0A7E41C9113FF13C017701130A9
:101F5000C9F0123009F417C1133009F45AC1143012
:101F600009F49DC1153009F4E0C1163009F423C20B
:101F700068C214FD8AC215FDACC21770103009F496
:101F8000CCC2EFC2DF93CF931F930F93112710930F
:101F90004403D1E0C2E41127002709931A95E9F719
:101FA0000F911F91CF91DF91BF93AF93DF93CF93A9
:101FB0000F93B1E0A2E4D0E0C0E602E00E94BB0BC8
:101FC0000F91CF91DF91AF91BF91BF93AF93DF930B
:101FD000CF930F93B1E0A2E4D0E0C0EC01E00E9407
:101FE000BB0B0F91CF91DF91AF91BF91BF93AF9397
:101FF000DF93CF930F93B1E0A2E4D3E0CFE60027C5
:102000000E94BB0B0F91CF91DF91AF91BF91BF9316
:10201000AF93DF93CF930F93B1E0A2E4D0E0C0E79A
:1020200000270E94BB0B0F91CF91DF91AF91BF9121
:10203000BF93AF93DF93CF930F93B1E0A2E4D0E0CF
:10204000C0ED01E00E94BB0B0F91CF91DF91AF91EA
:10205000BF91BF93AF93DF93CF930F93B1E0A2E40F
:10206000D3E0CFE600270E94BB0B0F91CF91DF9109
:10207000AF91BF91BF93AF93DF93CF930F93B1E035
:10208000A2E4D0E0C0E800270E94BB0B0F91CF91E3
:10209000DF91AF91BF91BF93AF93DF93CF930F9336
:1020A000B1E0A2E4D0E0C0EE01E00E94BB0B0F91D2
:1020B000CF91DF91AF91BF91BF93AF93DF93CF9358
:1020C0000F93B1E0A2E4D3E0CFE600270E94BB0B60
:1020D0000F91CF91DF91AF91BF91BF93AF93DF93FA
:1020E000CF930F93B1E0A2E4D0E0C0E900270E94B3
:1020F000BB0B0F91CF91DF91AF91BF91BF93AF9386
:10210000DF93CF930F93B1E0A2E4D0E0C0EF01E002
:102110000E94BB0B0F91CF91DF91AF91BF91BF9305
:10212000AF93DF93CF930F93B1E0A2E4D3E0CFE678
:1021300000270E94BB0B0F91CF91DF91AF91BF9110
:10214000BF93AF93DF93CF930F93B1E0A2E4D0E0BE
:10215000C0EB00270E94BB0B0F91CF91DF91AF9195
:10216000BF91BF93AF93DF93CF930F93B1E0A2E4FE
:10217000D1E0C0E102E00E94BB0B0F91CF91DF9153
:10218000AF91BF9112C2DF93CF931F930F9311278B
:1021900010934403D1E0C2E41127002709931A9554
:1021A000E9F70F911F91CF91DF91BF93AF93DF9329
:1021B000CF930F93B1E0A2E4D0E0C0E800270E94E3
:1021C000BB0B0F91CF91DF91AF91BF91BF93AF93B5
:1021D000DF93CF930F93B1E0A2E4D3E0CFE60027E3
:1021E0000E94BB0B0F91CF91DF91AF91BF91BF9335
:1021F000AF93DF93CF930F93B1E0A2E4D0E0C0EEB2
:1022000001E00E94BB0B0F91CF91DF91AF91BF9185
:10221000CCC1DF93CF931F930F93112710934403E7
:10222000D1E0C2E41127002709931A95E9F70F912D
:102230001F91CF91DF91BF93AF93DF93CF930F9314
:10224000B1E0A2E4D0E0C0E700270E94BB0B0F91F1
:10225000CF91DF91AF91BF91BF93AF93DF93CF93B6
:102260000F93B1E0A2E4D3E0CFE600270E94BB0BBE
:102270000F91CF91DF91AF91BF91BF93AF93DF9358
:10228000CF930F93B1E0A2E4D0E0C0ED01E00E9453
:10229000BB0B0F91CF91DF91AF91BF9186C1DF93BF
:1022A000CF931F930F93112710934403D1E0C2E4FF
:1022B0001127002709931A95E9F70F911F91CF91E4
:1022C000DF91BF93AF93DF93CF930F93B1E0A2E47D
:1022D000D0E0C0E602E00E94BB0B0F91CF91DF91EE
:1022E000AF91BF91BF93AF93DF93CF930F93B1E0C3
:1022F000A2E4D3E0CFE600270E94BB0B0F91CF9161
:10230000DF91AF91BF91BF93AF93DF93CF930F93C3
:10231000B1E0A2E4D0E0C0EC01E00E94BB0B0F9161
:10232000CF91DF91AF91BF9140C1DF93CF931F93C6
:102330000F93112710934403D1E0C2E41127002723
:1023400009931A95E9F70F911F91CF91DF91BF93F0
:10235000AF93DF93CF930F93B1E0A2E4D0E0C0EB53
:1023600000270E94BB0B0F91CF91DF91AF91BF91DE
:10237000BF93AF93DF93CF930F93B1E0A2E4D3E089
:10238000CFE600270E94BB0B0F91CF91DF91AF9159
:10239000BF91BF93AF93DF93CF930F93B1E0A2E4CC
:1023A000D1E0C0E102E00E94BB0B0F91CF91DF9121
:1023B000AF91BF91FAC0DF93CF931F930F93112773
:1023C00010934403D1E0C2E41127002709931A9522
:1023D000E9F70F911F91CF91DF91BF93AF93DF93F7
:1023E000CF930F93B1E0A2E4D0E0C0E900270E94B0
:1023F000BB0B0F91CF91DF91AF91BF91BF93AF9383
:10240000DF93CF930F93B1E0A2E4D3E0CFE60027B0
:102410000E94BB0B0F91CF91DF91AF91BF91BF9302
:10242000AF93DF93CF930F93B1E0A2E4D0E0C0EF7E
:1024300001E00E94BB0B0F91CF91DF91AF91BF9153
:10244000B4C0DF93CF931F930F93112710934403CE
:10245000D1E0C2E41127002709931A95E9F70F91FB
:102460001F91CF91DF91BF93AF93DF93CF930F93E2
:10247000B1E0A2E4D3E0C1EB00270E94BB0B0F91B7
:10248000CF91DF91AF91BF9190C0DF93CF931F9316
:102490000F93112710934403D1E0C2E411270027C2
:1024A00009931A95E9F70F911F91CF91DF91BF938F
:1024B000AF93DF93CF930F93B1E0A2E4D4E0CEE4E7
:1024C00000270E94BB0B0F91CF91DF91AF91BF917D
:1024D0006CC0DF93CF931F930F9311271093440386
:1024E000D1E0C2E41127002709931A95E9F70F916B
:1024F0001F91CF91DF91BF93AF93DF93CF930F9352
:10250000B1E0A2E4D4E0C3E800270E94BB0B0F9126
:10251000CF91DF91AF91BF9148C0DF93CF931F93CD
:102520000F93112710934403D1E0C2E41127002731
:1025300009931A95E9F70F911F91CF91DF91BF93FE
:10254000AF93DF93CF930F93B1E0A2E4D4E0C5E063
:1025500000270E94BB0B0F91CF91DF91AF91BF91EC
:1025600024C0DF93CF931F930F931127109344033D
:10257000D1E0C2E41127002709931A95E9F70F91DA
:102580001F91CF91DF91BF93AF93DF93CF930F93C1
:10259000B1E0A2E4D3E0C1E600270E94BB0B0F919B
:1025A000CF91DF91AF91BF9100C0DF93CF930F9395
:1025B0001F93D3E0C6E4188111601883D3E0C4E40C
:1025C00011E01883D1E0C2E408811AB110660CB999
:1025D0001AB91F910F91CF91DF919F938F937F93A2
:1025E00092E58BE27DE40E9429007F918F919F917B
:1025F000DF93CF931F930F93112710934503D2E0DE
:10260000C3E41127002709931A95E9F70F911F9149
:10261000CF91DF91DF93CF931F93D3E0C6E418816E
:10262000116018831AB110681AB91F91CF91DF9108
:10263000DF93CF931F930F93112710934403D1E09F
:10264000C2E41127002709931A95E9F70F911F910A
:10265000CF91DF91BF93AF93DF93CF930F93B1E00F
:10266000A2E4D3E0C1E700270E94BB0B0F91CF91FA
:10267000DF91AF91BF91DF93CF930F931F93D3E07F
:10268000C6E4188111601883D3E0C4E411E0188314
:10269000D1E0C2E408811AB110660CB91AB91F91D1
:1026A0000F91CF91DF9197989F938F937F939FEF97
:1026B0008FEF7FEF0E9429007F918F919F91979AD2
:1026C0009F938F937F9392E58BE27DE40E94290094
:1026D0007F918F919F9197989F938F937F9392E58E
:1026E0008BE27DE40E9429007F918F919F91BF939F
:1026F000AF93DF93CF93B2E0A3E4D3E0C1E60E94AF
:10270000760BCF91DF91AF91BF91113009F441C0A9
:10271000979A9F938F937F9392E58BE27DE40E943B
:1027200029007F918F919F9197989F938F937F938B
:1027300092E58BE27DE40E9429007F918F919F9129
:10274000BF93AF93DF93CF93B2E0A3E4D4E0C8ECA0
:102750000E94760BCF91DF91AF91BF911130C9F0FC
:10276000979A9F938F937F9392E58BE27DE40E94EB
:1027700029007F918F919F9197989F938F937F933B
:1027800092E58BE27DE40E9429007F918F919F91D9
:102790002CCBDF93CF931F930F93112710934503F7
:1027A000D2E0C3E41127002709931A95E9F70F91A6
:1027B0001F91CF91DF91DF93CF931F93D3E0C6E4B6
:1027C0001881116018831AB110681AB91F91CF913E
:1027D000DF91DF93CF931F93D3E0C6E4188111609C
:1027E00018831AB110681AB91F91CF91DF91979A87
:1027F0009F938F937F939FEF8FEF7FEF0E9429002E
:102800007F918F919F9197989F938F937F939FEF45
:102810008FEF7FEF0E9429007F918F919F91089504
:10282000DF93CF93FF93EF93BF93AF930F93D3E0D7
:10283000C8E4F0E0E0ECB1E0AEE80E949E0309934A
:1028400031961197D1F70F91AF91BF91EF91FF9111
:10285000CF91DF910895DF93CF930F9311270991C3
:102860000033E0F10333D0F509910033B8F10A33B6
:10287000A8F509910A3391F50991003378F10733EE
:1028800068F50991003350F10A3340F5099100329F
:1028900029F50991003310F1043300F50991003353
:1028A000E8F00A33D8F409910F32C1F409910033EA
:1028B000A8F0023398F40991003380F00A3370F4E1
:1028C00009910F3259F40991003340F00A3330F482
:1028D0000881003318F00A3308F411E00F91CF910A
:1028E000DF910895DF93CF930F93112709910F3450
:1028F00049F409910E3429F0063421F40881063494
:1029000009F411E00F91CF91DF9108950F931F9378
:102910002F933F93DF93CF93FF93EF931FB7F894D9
:10292000D1E0C2E4F1E0EFEF30E009910E94C4147D
:1029300031963A95D1F70FBFEF91FF91CF91DF918B
:102940003F912F911F910F9108950F931F932F93F4
:102950003F93DF93CF93FF93EF931FB7F894D2E0A9
:10296000C3E4F2E0EFEF30E009910E94C414319625
:102970003A95D1F70FBFEF91FF91CF91DF913F9142
:102980002F911F910F910895E199FECFFFBBEEBBF0
:102990000DBBE29AE19A08953FD01123E1F14DD0A9
:1029A0003BD01123C1F154D09F938F937F9392E535
:1029B0008BE27DE40E9429007F918F919F912CD022
:1029C000112349F14AD028D0112329F10091EC04B8
:1029D0000295007F1091EB0412951F70012B10914E
:1029E000EC0417FF06C01DE21093D000009503957C
:1029F00003C010E21093D00011270A3018F013958D
:102A00000A50FBCF2F9320E3120F020F2F91109348
:102A1000D1000093D2000895D09AD8982AE039EFD7
:102A200051D0D09822E033E74DD0C89B11E0C8992F
:102A3000112729E034E846D008950CEC2DD00EE49F
:102A40002BD00FEF29D00FEF27D00FE725D0089517
:102A50000CEC22D004E420D008950CEC1DD00EEB39
:102A60001BD006D00093EB0403D00093EC04089530
:102A700018E00027D09AD89820E229D0D09820E3F7
:102A800026D0C89B8894C8990894079522E033E221
:102A900019D01A9579F7089518E0D09AD89800FDC2
:102AA00007C022E03EE30ED0D09825E310D006C048
:102AB00020E20DD0D09822E033E504D006951A9597
:102AC00061F708953A95F1F72A95E1F708952A9567
:102AD000F1F70895E0E6F0E000270193F830E9F718
:102AE000E036D9F7EE27FF27EEE1FF27EA95F083DE
:102AF000E9F70FE50DBF08E00EBF8F9AF89410E1DB
:102B000019BF11271FBD14E01EBD0CE015E30BBD5E
:102B10001ABD0AE712E109BD18BD11271DBD1CBD74
:102B2000789417B3187F17BB18B3176018BB11B38D
:102B30001C6311BB0E945500F894DD27C0E6EE2708
:102B4000FF2731EC0E949E030993E3953A95D1F754
:102B50007894D1E0C0E210E01883FF93EF931F93C5
:102B60000F933F93F0E0E0E614E031E101910E9421
:102B700030009F938F937F9390EF81E071E00E94EC
:102B800029007F918F919F913A9581F73F910F9105
:102B90001F91EF91FF911F930F931F930F9310E0DD
:102BA00000EC0E9430000F911F919F938F937F93B1
:102BB00090EF81E071E00E9429007F918F919F91B9
:102BC0000F911F91FF93EF931F930F933F93F0E0AB
:102BD000E0EC14E031E101910E9430009F938F936B
:102BE0007F9390EF81E071E00E9429007F918F91A7
:102BF0009F913A9581F73F910F911F91EF91FF912E
:102C000011B3106411BB12B31F7B12BB112712BF8B
:102C100017E11CBF19B7126019BF1CE310B91F934D
:102C20002F93DF93CF930F931F933F932BE033E6C4
:102C30003A95F1F72A95E1F7332700ED10E00E946D
:102C4000D8033F911F910F9127FF13C02F770F9348
:102C50001F933F932BE033E63A95F1F72A95E1F77E
:102C6000222F332700ED10E00E94A7033F911F9110
:102C70000F910F931F933F932BE033E63A95F1F7B3
:102C80002A95E1F7332700ED12E00E94D8033F9127
:102C90001F910F9116FF13C02F7B0F931F933F932C
:102CA0002BE033E63A95F1F72A95E1F7222F332707
:102CB00000ED10E00E94A7033F911F910F91CF916B
:102CC000DF912F911F91D1E0C0E312E0199319E039
:102CD000199316E0199319E0199313E0199319E069
:102CE000199311E0199319E0199319931993D1E0ED
:102CF000CAE318E119931CE319931FE119931CE02F
:102D0000199313E6199317E619B910E010BD18E1ED
:102D10001AB911271BB916E810BD0E941014DF93D1
:102D2000CF931F930F93112710934403D1E0C2E474
:102D30001127002709931A95E9F70F911F91CF9159
:102D4000DF91DF93CF931F93D3E0C6E41881116026
:102D500018831AB110681AB91F91CF91DF91BF93F0
:102D6000AF93DF93CF930F93B1E0A2E4D4E0CEEC26
:102D700000270E94BB0B0F91CF91DF91AF91BF91C4
:102D8000DF93CF930F931F93D3E0C6E418811160B4
:102D90001883D3E0C4E411E01883D1E0C2E40881D1
:102DA0001AB110660CB91AB91F910F91CF91DF912A
:102DB0009F938F937F939FEF8FEF7FEF0E94290068
:102DC0007F918F919F919F938F937F939FEF8FEF31
:102DD0007FEF0E9429007F918F919F919F938F9306
:102DE0007F939FEF8FEF7FEF0E9429007F918F915C
:102DF0009F91BF93AF93DF93CF93B2E0A3E4D3E06F
:102E0000C1E60E94760BCF91DF91AF91BF91113057
:102E1000C1F4979A9F938F937F9392E58BE27DE421
:102E20000E9429007F918F919F9197989F938F93F4
:102E30007F9392E58BE27DE40E9429007F918F9140
:102E40009F91DF93CF931F930F9311271093450307
:102E5000D2E0C3E41127002709931A95E9F70F91EF
:102E60001F91CF91DF91DF93CF931F930F93112782
:102E700010934403D1E0C2E41127002709931A9567
:102E8000E9F70F911F91CF91DF91DF93CF931F93BC
:102E9000D3E0C6E41881116018831AB110681AB91A
:102EA0001F91CF91DF910E94FC0B0E9426040E948B
:102EB00088040E94CC142F93BF93AF931F93DF938A
:102EC000CF930E941501D1E0C0E2288110E1129F4A
:102ED000A02DB12D10E6A10F1127B11F1F930F9345
:102EE0001F930F9310E000E80E9430000F911F9194
:102EF0009F938F937F9390EF81E071E00E94290070
:102F00007F918F919F910F911F911F930F93AF937B
:102F1000BF933F9314E031E10D910E9430009F93E5
:102F20008F937F9390EF81E071E00E9429007F9161
:102F30008F919F913A9581F73F91BF91AF910F91FA
:102F40001F9110E1129FA02DB12D10ECA10F1127A0
:102F5000B11F1F930F931F930F9310E000EC0E947B
:102F600030000F911F919F938F937F9390EF81E09B
:102F700071E00E9429007F918F919F910F911F9185
:102F80001F930F93AF93BF933F9314E031E10D91E3
:102F90000E9430009F938F937F9390EF81E071E0C8
:102FA0000E9429007F918F919F913A9581F73F91DF
:102FB000BF91AF910F911F91CF91DF911F91AF9171
:102FC000BF912F919F938F937F939FEF8FEF7FEF11
:0C2FD0000E9429007F918F919F9165CF96
:00000001FF
