:020000020000FC
:060000000C948308189522
:02000800189549
:02000C00189545
:02001000189541
:0200140018953D
:02001800189539
:06001C000C9432082CC513
:0200240018952D
:0200280022C5EF
:02002C00189525
:02003000189521
:0200340018951D
:02003800189519
:02003C00189515
:02004000189511
:0200440018950D
:02004800189509
:02004C0037C0BB
:1000500018959A95F1F78A95E1F77A95D1F7089571
:10006000F8940F93147015BB007F102B15BBC89527
:10007000AB9AC895AB989F938F937F9390EF81E055
:1000800071E00E9429007F918F919F9114700F91D0
:100090000295007F102B15BBC895AB9AC895AB98FD
:1000A000C89500EF05BB78940895E199FECFF894C8
:1000B000FFBBEEBBE09A0DB3789408951F93DF93D6
:1000C000CF93D1E0C4E2188116FFA9C01F7111308F
:1000D00071F01230B9F0133059F1143009F43DC009
:1000E000153009F449C0163009F45AC074C0D1E083
:1000F000C4E218811395188315EA16BFCF91DF91DA
:100100001F91189511B11C7F18301FB711FF57C0F0
:10011000D1E0C4E2188113951883D1E0CAE21881B6
:100120001E7F13B915E816BFCF91DF911F91189567
:1001300011B11C7F18311FB711FF41C0D1E0C4E2DB
:10014000188113951883D1E0CBE2188113B915E813
:1001500016BFCF91DF911F91189511B11C7F1832F6
:1001600071F5D1E0C4E218811395188315EA16BF22
:10017000CF91DF911F91189511B11C7F1031F9F4C7
:10018000D1E0C4E2188113951883D1E0CAE2188146
:10019000116013B915E816BFCF91DF911F91189523
:1001A00011B11C7F103459F4D1E0C4E218811395C9
:1001B000188315E816BFCF91DF911F911895D1E0F4
:1001C000C4E218811F771062188315E916BFCF911A
:1001D000DF911F911895D1E0C4E21881112718838F
:1001E000D1E0CCE213B11883112713B915E916BF7A
:1001F000CF91DF911F91189511B11C7F1832F9F63C
:10020000D1E0C4E2188113951883D1E0CDE21881C2
:1002100013B915E816BFCF91DF911F9118951F7183
:10022000113009F464CF123009F46CCF133009F4A3
:100230007FCF143009F4E0CFCECF1F930F93DF931D
:10024000CF930027D1E0C5E21881D1E0CDE2188339
:10025000D1E0CBE212E01883E9D00395D1E0C5E20A
:10026000C00F0F930027D01F0F911881D1E0CDE26E
:100270001883D1E0CBE211E01883D8D00395D1E008
:10028000C5E2C00F0F930027D01F0F911881D1E056
:10029000CDE21883D1E0CBE214E01883C7D00395F8
:1002A000D1E0C5E2C00F0F930027D01F0F91188136
:1002B000D1E0CDE21883D1E0CBE215E01883B6D0CF
:1002C0000395D1E0C5E2C00F0F930027D01F0F9117
:1002D0001881D1E0CDE21883D1E0CBE216E018839B
:1002E000A5D0CF91DF910F911F9108951F930F9388
:1002F000DF93CF930027D1E0CBE212E01883AED09A
:10030000D1E0CCE21881D1E0C5E21883D1E0CBE2A4
:1003100011E01883A3D0D1E0CCE218810395D1E09D
:10032000C5E2C00F0F930027D01F0F911883D1E0B3
:10033000CBE214E0188392D0D1E0CCE2188103958F
:10034000D1E0C5E2C00F0F930027D01F0F91188393
:10035000D1E0CBE215E0188381D0D1E0CCE2188166
:100360000395D1E0C5E2C00F0F930027D01F0F9176
:100370001883D1E0CBE216E0188370D0D1E0CCE254
:1003800018810395D1E0C5E2C00F0F930027D01F5D
:100390000F911883CF91DF910F911F9108952F93A3
:1003A0003F931F93DF93CF93BF93AF93D1E0CEE200
:1003B000188117FD14C030E32227D1E0C0E0B1E07E
:1003C000A5E21D911F9312951F70130F19931F9192
:1003D0001F70130F199321962395253091F7AF9134
:1003E000BF91CF91DF911F913F912F9108952F934E
:1003F0003F931F93DF93CF93BF93AF932227D1E017
:10040000C0E0B1E0A5E21991105312953991305333
:10041000132B1D93219623952530A9F7AF91BF91FA
:10042000CF91DF911F913F912F9108951F93DF93FB
:10043000CF93D1E0C4E2188117FDFBCF10E81395EC
:1004400018833CDED1E0C4E2188115FDF2CF1F71A4
:100450001030C1F7CF91DF911F9108951F93DF9363
:10046000CF93D1E0C4E2188117FDFBCF10EC1395B8
:10047000188324DED1E0C4E2188115FDF2CF1F718C
:100480001030C1F7CF91DF911F9108951F93DF9333
:10049000CF931F77D1E0CDE21883D1E0CBE210E01B
:1004A0001883C4DFCF91DF911F9108951F93DF93CD
:1004B000CF931F7BD1E0CDE21883D1E0CBE212E0F5
:1004C0001883B4DFCF91DF911F9108951F93DF93BD
:1004D000CF930F93D1E0CEE2088107FF23C0D1E094
:1004E000C1E418811A30F0F0D1E0C1E4112718837B
:1004F00005FF09C0D1E0CEE20F7D0883AFD010E246
:10050000199318830FC0D1E0CEE200620883FF93F5
:10051000EF93A4D0F1E0EFE31191199310811883C8
:10052000EF91FF912F93BF93AF931F93DF93CF93DF
:10053000D1E0C0E2288110E1129FA02DB12D10E67C
:10054000A10F1127B11F1F930F931F930F9310E05B
:1005500000E80E9430000F911F919F938F937F932B
:1005600090EF81E071E00E9429007F918F919F912F
:100570000F911F911F930F93AF93BF933F9314E07D
:1005800031E10D910E9430009F938F937F9390EF04
:1005900081E071E00E9429007F918F919F913A95AF
:1005A00081F73F91BF91AF910F911F9110E1129F81
:1005B000A02DB12D10ECA10F1127B11F1F930F9388
:1005C0001F930F9310E000EC0E9430000F911F91D9
:1005D0009F938F937F9390EF81E071E00E942900B9
:1005E0007F918F919F910F911F911F930F93AF93C5
:1005F000BF933F9314E031E10D910E9430009F932F
:100600008F937F9390EF81E071E00E9429007F91AA
:100610008F919F913A9581F73F91BF91AF910F9143
:100620001F91CF91DF911F91AF91BF912F910F91AA
:10063000CF91DF911F910895DF93CF93FF93EF93B5
:100640001F93F1E0EFE30AD0199111931881108301
:100650001F91EF91FF91CF91DF9108951F930F9319
:10066000D1E0CEE218811F71012F100F100FD1E0E1
:10067000C0E0C10F0027D01F0F911F910895DF9395
:10068000CF931F93FF93EF93E9DFF1E0EFE3119135
:10069000199310811883EF91FF91D1E0CEE2188178
:1006A0001F7B1F931F71143018F41F91139502C004
:1006B0001F91107E1883C0DF1F91CF91DF910895A5
:1006C000D1E0CEE2188117FF16C0FF93EF93C6DF8B
:1006D000F1E0EFE31191199310811883EF91FF91ED
:1006E000D1E0CEE210E0188382DEA7DD0E94760121
:1006F0000E94CF0103C0A0DF10E818832F93BF939F
:10070000AF931F93DF93CF93D1E0C0E2288110E134
:10071000129FA02DB12D10E6A10F1127B11F1F931D
:100720000F931F930F9310E000E80E9430000F9189
:100730001F919F938F937F9390EF81E071E00E94D0
:1007400029007F918F919F910F911F911F930F937C
:10075000AF93BF933F9314E031E10D910E943000BD
:100760009F938F937F9390EF81E071E00E94290027
:100770007F918F919F913A9581F73F91BF91AF9172
:100780000F911F9110E1129FA02DB12D10ECA10F20
:100790001127B11F1F930F931F930F9310E000ECCD
:1007A0000E9430000F911F919F938F937F9390EF42
:1007B00081E071E00E9429007F918F919F910F91BC
:1007C0001F911F930F93AF93BF933F9314E031E1B9
:1007D0000D910E9430009F938F937F9390EF81E063
:1007E00071E00E9429007F918F919F913A9581F746
:1007F0003F91BF91AF910F911F91CF91DF911F91C9
:10080000AF91BF912F910895D1E0CEE2188117FFEB
:1008100001C035DF2F93BF93AF931F93DF93CF9327
:10082000D1E0C0E2288110E1129FA02DB12D10E689
:10083000A10F1127B11F1F930F931F930F9310E068
:1008400000E80E9430000F911F919F938F937F9338
:1008500090EF81E071E00E9429007F918F919F913C
:100860000F911F911F930F93AF93BF933F9314E08A
:1008700031E10D910E9430009F938F937F9390EF11
:1008800081E071E00E9429007F918F919F913A95BC
:1008900081F73F91BF91AF910F911F9110E1129F8E
:1008A000A02DB12D10ECA10F1127B11F1F930F9395
:1008B0001F930F9310E000EC0E9430000F911F91E6
:1008C0009F938F937F9390EF81E071E00E942900C6
:1008D0007F918F919F910F911F911F930F93AF93D2
:1008E000BF933F9314E031E10D910E9430009F933C
:1008F0008F937F9390EF81E071E00E9429007F91B8
:100900008F919F913A9581F73F91BF91AF910F9150
:100910001F91CF91DF911F91AF91BF912F910895BA
:100920001F93DF93CF930F93FF93EF9397DEF1E045
:10093000EFE31191199310811883EF91FF91D1E0AA
:10094000CEE2188117FF5DC016FD1DC008810F7132
:10095000D1E0C0E3000FC00F0027D01F0881122F85
:100960001053101739F030F079DE00E30993122F9D
:1009700018831EC073DE122F1883D1E0CEE21881D7
:10098000106418833EC008810F71D1E0C0E3000FEE
:100990000395C00F0027D01F0881122F1053101786
:1009A00011F008F0102F00E3100F58DE2196188385
:1009B00055DE199110530AE0109F002D1881105335
:1009C000010FD1E0CEE218811F71D1E0CAE3C10F5F
:1009D0001127D11F1881011791F088F00027039586
:1009E0001A50EAF70A950F930AE0100F0F912F9310
:1009F00020E3020F120F2F9131DE099318831CDEC2
:100A00003EDE1ADE0F91CF91DF911F9108951F9363
:100A1000DF93CF93D1E0C3E211E0188319B71860D8
:100A200019BF1F931CE013BF1F91CF91DF911F913E
:100A300008951F93DF93CF93D1E0C3E210E01883B2
:100A400019B7177F19BF1F93112713BF1F91CC2709
:100A5000DD27F894DDBDCCBD78940CE015E3F89467
:100A60000BBD1ABD7894CF91DF911F910895869B9D
:100A700002C096981895969A18951F93DF93CF9376
:100A8000DCE0C5E3F894DBBDCABD78941F9313B7CF
:100A9000103029F01F93112713BF1F9104C01F931B
:100AA0001CE013BF1F911F91CC27DD27F894DDBDFB
:100AB000CCBD7894CF91DF911F9118951F93DF9350
:100AC000CF930F93D1E0C1E219910881013319F45A
:100AD000113008F40FC010E001E3D1E0C1E2199336
:100AE0000883D1E0CEE2188117FF04C02F9321E3E1
:100AF00017DF2F910F91CF91DF911F917894B29BC7
:100B0000FECF08951F93DF93CF930F93D1E0C1E2FF
:100B100019910881023319F4113008F49DC010E0D6
:100B200002E3D1E0C1E219930883D1E0CEE218815B
:100B300017FF05C02F9322E3F3DE2F918DC02F9373
:100B4000BF93AF931F93DF93CF93D1E0C0E228818F
:100B500010E0211301C07AC02A9510E1129FA02D48
:100B6000B12D10E6A10F1127B11F1F930F931F93F3
:100B70000F9310E000E80E9430000F911F919F93A7
:100B80008F937F9390EF81E071E00E9429007F9125
:100B90008F919F910F911F911F930F93AF93BF93CD
:100BA0003F9314E031E10D910E9430009F938F93A9
:100BB0007F9390EF81E071E00E9429007F918F91F7
:100BC0009F913A9581F73F91BF91AF910F911F91FE
:100BD00010E1129FA02DB12D10ECA10F1127B11F14
:100BE0001F930F931F930F9310E000EC0E943000AF
:100BF0000F911F919F938F937F9390EF81E071E00E
:100C00000E9429007F918F919F910F911F911F93B7
:100C10000F93AF93BF933F9314E031E10D910E9486
:100C200030009F938F937F9390EF81E071E00E945B
:100C300029007F918F919F913A9581F73F91BF91C4
:100C4000AF910F911F91D1E0C0E22883CF91DF9146
:100C50001F91AF91BF912F910F91CF91DF911F9174
:100C60007894B19BFECF08951F93DF93CF930F939A
:100C7000D1E0C1E219910881033319F4113008F46D
:100C80000FC010E003E3D1E0C1E219930883D1E083
:100C9000CEE2188117FF04C02F9323E341DE2F918A
:100CA0000F91CF91DF911F917894B09BFECF089563
:100CB0001F93DF93CF930F93D1E0C1E21991088185
:100CC000043319F4113008F40FC010E004E3D1E04C
:100CD000C1E219930883D1E0CEE2188117FF04C066
:100CE0002F9324E31DDE2F910F91CF91DF911F9160
:100CF0007894B29BFECF08951F93DF93CF930F9309
:100D0000D1E0C1E219910881053319F4113008F4DA
:100D10001DC010E005E3D1E0C1E219930883D1E0E2
:100D2000CEE2188117FF05C02F9325E3F9DD2F913F
:100D30000DC0D1E0C0E21881153041F4D1E0C3E22A
:100D4000188110FD02C063DE01C073DE0F91CF91E8
:100D5000DF911F917894B19BFECF08951F93DF938D
:100D6000CF930F93D1E0C1E219910881063319F4B2
:100D7000113008F40FC010E006E3D1E0C1E219938E
:100D80000883D1E0CEE2188117FF04C02F9326E339
:100D9000C7DD2F910F91CF91DF911F917894B09B78
:100DA000FECF08951F93DF93CF930F93D1E0C1E25D
:100DB00019910881073319F4113008F40FC010E0BD
:100DC00007E3D1E0C1E219930883D1E0CEE21881B4
:100DD00017FF04C02F9327E3A3DD2F910F91CF912D
:100DE000DF911F917894B29BFECF08951F93DF93FC
:100DF000CF930F93D1E0C1E219910881083319F420
:100E0000113008F49DC010E008E3D1E0C1E219936D
:100E10000883D1E0CEE2188117FF05C02F9328E3A5
:100E20007FDD2F918DC02F93BF93AF931F93DF93DF
:100E3000CF93D1E0C0E2288115E0211301C07AC030
:100E4000239510E1129FA02DB12D10E6A10F1127BF
:100E5000B11F1F930F931F930F9310E000E80E94A0
:100E600030000F911F919F938F937F9390EF81E0BC
:100E700071E00E9429007F918F919F910F911F91A6
:100E80001F930F93AF93BF933F9314E031E10D9104
:100E90000E9430009F938F937F9390EF81E071E0E9
:100EA0000E9429007F918F919F913A9581F73F9100
:100EB000BF91AF910F911F9110E1129FA02DB12D05
:100EC00010ECA10F1127B11F1F930F931F930F93C6
:100ED00010E000EC0E9430000F911F919F938F93C0
:100EE0007F9390EF81E071E00E9429007F918F91C4
:100EF0009F910F911F911F930F93AF93BF933F93B8
:100F000014E031E10D910E9430009F938F937F9305
:100F100090EF81E071E00E9429007F918F919F9175
:100F20003A9581F73F91BF91AF910F911F91D1E019
:100F3000C0E22883CF91DF911F91AF91BF912F9194
:100F40000F91CF91DF911F917894B19BFECF0895BF
:100F50001F93DF93CF930F93D1E0C1E219910881E2
:100F6000093319F4113008F40FC010E009E3D1E09F
:100F7000C1E219930883D1E0CEE2188117FF04C0C3
:100F80002F9329E3CDDC2F910F91CF91DF911F910A
:100F90007894B09BFECF08951F93DF93CF930F9368
:100FA000D1E0C1E2199108810A3219F4113008F434
:100FB0000CC010E00AE2D1E0C1E219930883D1E04D
:100FC000C0E22881243009F47BDB0F91CF91DF91BF
:100FD0001F917894B29BFECF08951F93DF93CF9318
:100FE0000F93D1E0C1E219910881003319F4113057
:100FF00008F40FC010E000E3D1E0C1E219930883C8
:10100000D1E0CEE2188117FF04C02F9320E388DCE3
:101010002F910F91CF91DF911F917894B19BFECFCB
:1010200008951F93DF93CF930F93D1E0C1E21991FD
:101030000881033219F4113008F40CC010E003E207
:10104000D1E0C1E219930883D1E0C0E228812430C5
:1010500009F4DADB0F91CF91DF911F917894B09B67
:10106000FECF08951F93DF93CF93D1E0C1E41881A1
:10107000139518830E94660210B31C631B7F12BB7A
:10108000B29B8ADFB19B3EDDB09BEEDD10B31C63EB
:10109000177F12BBB29B12DDB19B2EDEB09B5EDED2
:1010A00010B31C631F7E12BBB29B02DEB19B9EDE9F
:1010B000B09B4EDF10B31C631F7D12BBB29B72DE70
:1010C000B19B8BDFB09BADDFD1E0C3E2188110FF95
:1010D0000BC0CAB5DBB515E3C10F1CE0D11FF894F6
:1010E000DBBDCABD789406C0CC27DD27F894DDBDF2
:1010F000CCBD7894D1E0C1E2188113951883CF91CB
:10110000DF911F911895E0E6F0E000270193F83099
:10111000E9F7E036D9F7EE27FF27EEE1FF27EA955A
:10112000F083E9F70FE50DBF08E00EBFF89410E17A
:1011300019BF11271FBD14E01EBD0CE015E30BBD48
:101140001ABD0AE712E109BD18BD11271DBD1CBD5E
:10115000789417B3187F17BB18B3176018BB11B377
:101160001C6311BB14B31C6F14BB15B3137015BBF8
:101170009F938F937F9392EF8FE075E00E942900F9
:101180007F918F919F9110E315BBAB9AC895AB9857
:101190009F938F937F9395EE8EE179E00E942900D3
:1011A0007F918F919F91AB9AC895AB989F938F93A6
:1011B0007F9392EF8FE075E00E9429007F918F91DD
:1011C0009F91AB9AC895AB989F938F937F9392EF23
:1011D0008FE075E00E9429007F918F919F9110E22E
:1011E00015BBAB9AC895AB989F938F937F9390EF65
:1011F00081E071E00E9429007F918F919F911F9360
:101200000F9310E008E20E9430000F911F919F930E
:101210008F937F9390EF81E071E00E9429007F918E
:101220008F919F911F930F9310E001E00E94300077
:101230000F911F919F938F937F939EE88AE271E0B5
:101240000E9429007F918F919F911F930F9310E02F
:101250000FE00E9430000F911F919F938F937F9317
:101260009EE88AE271E00E9429007F918F919F9110
:101270001F930F9310E000E40E9430000F911F9124
:101280009F938F937F9390EF81E071E00E942900FC
:101290007F918F919F911F930F9314E000E00E9424
:1012A00030000F911F919F938F937F9390EF81E078
:1012B00071E00E9429007F918F919F911F930F935E
:1012C00014E000E00E9430000F911F919F938F93D4
:1012D0007F9390EF81E071E00E9429007F918F91D0
:1012E0009F911F930F9314E000E00E9430000F9134
:1012F0001F919F938F937F9390EF81E071E00E9405
:1013000029007F918F919F911F930F9314E000E02C
:101310000E9430000F911F919F938F937F9390EFC6
:1013200081E071E00E9429007F918F919F911F932E
:101330000F9314E004E00E9430000F911F919F93DF
:101340008F937F9390EF81E071E00E9429007F915D
:101350008F919F911F930F9314E00EE00E94300035
:101360000F911F919F938F937F9390EF81E071E096
:101370000E9429007F918F919F911F930F9314E0FA
:101380000FE10E9430000F911F919F938F937F93E5
:1013900090EF81E071E00E9429007F918F919F91F1
:1013A0001F930F9314E000E00E9430000F911F91F3
:1013B0009F938F937F9390EF81E071E00E942900CB
:1013C0007F918F919F911F930F9314E000E00E94F3
:1013D00030000F911F919F938F937F9390EF81E047
:1013E00071E00E9429007F918F919F911F930F932D
:1013F00014E00FE10E9430000F911F919F938F9393
:101400007F9390EF81E071E00E9429007F918F919E
:101410009F911F930F9314E00EE00E9430000F91F4
:101420001F919F938F937F9390EF81E071E00E94D3
:1014300029007F918F919F911F930F9314E004E0F7
:101440000E9430000F911F919F938F937F9390EF95
:1014500081E071E00E9429007F918F919F911F93FD
:101460000F9314E000E00E9430000F911F919F93B2
:101470008F937F9390EF81E071E00E9429007F912C
:101480008F919F911F930F9314E000E00E94300012
:101490000F911F919F938F937F9390EF81E071E065
:1014A0000E9429007F918F919F911F930F9314E0C9
:1014B00000E00E9430000F911F919F938F937F93C4
:1014C00090EF81E071E00E9429007F918F919F91C0
:1014D0001F930F9314E000E00E9430000F911F91C2
:1014E0009F938F937F9390EF81E071E00E9429009A
:1014F0007F918F919F911F930F931F930F9310E0F4
:1015000000E80E9430000F911F919F938F937F936B
:1015100090EF81E071E00E9429007F918F919F916F
:101520000F911F91F894DD27C0E6EE27FF2731ECDD
:101530000E9455000993E3953A95D1F77894D1E04C
:10154000C0E210E01883FF93EF931F930F933F9334
:10155000F0E0E0E614E031E101910E9430009F9359
:101560008F937F9390EF81E071E00E9429007F913B
:101570008F919F913A9581F73F910F911F91EF9134
:10158000FF911F930F931F930F9310E000EC0E94A5
:1015900030000F911F919F938F937F9390EF81E085
:1015A00071E00E9429007F918F919F910F911F916F
:1015B000FF93EF931F930F933F93F0E0E0EC14E061
:1015C00031E101910E9430009F938F937F9390EFC0
:1015D00081E071E00E9429007F918F919F913A955F
:1015E00081F73F910F911F91EF91FF9111B310641B
:1015F00011BB12B31F7B12BB112712BF17E11CBF17
:1016000019B7126019BF1CE310B9D1E0CAE210ED9E
:1016100018831F93DF93CF93D1E0CBE210E01883C0
:101620000E942E02D1E0CCE2188117FD0E944602F2
:10163000D1E0CBE212E018830E942E02D1E0CCE28E
:10164000188116FD0E945602CF91DF911F91D1E0C3
:10165000C0E312E0199319E0199316E0199319E009
:10166000199313E0199319E0199311E0199319E0F4
:10167000199319931993D1E0CAE318E119931CE364
:1016800019931FE119931CE0199313E619930E9413
:1016900076010E94CF012F93BF93AF931F93DF93E7
:1016A000CF93D1E0C0E2288110E1129FA02DB12D8F
:1016B00010E6A10F1127B11F1F930F931F930F93D4
:1016C00010E000E80E9430000F911F919F938F93CC
:1016D0007F9390EF81E071E00E9429007F918F91CC
:1016E0009F910F911F911F930F93AF93BF933F93C0
:1016F00014E031E10D910E9430009F938F937F930E
:1017000090EF81E071E00E9429007F918F919F917D
:101710003A9581F73F91BF91AF910F911F9110E1E1
:10172000129FA02DB12D10ECA10F1127B11F1F93F7
:101730000F931F930F9310E000EC0E9430000F9165
:101740001F919F938F937F9390EF81E071E00E94B0
:1017500029007F918F919F910F911F911F930F935C
:10176000AF93BF933F9314E031E10D910E9430009D
:101770009F938F937F9390EF81E071E00E94290007
:101780007F918F919F913A9581F73F91BF91AF9152
:101790000F911F91CF91DF911F91AF91BF912F9129
:1017A00025E032EC46E851E25A95F1F74A95E1F727
:0A17B0003A95D1F72A95C1F76ACFE8
:00000001FF
