:020000020000FC
:0200000036C305
:0200040018954D
:02000800189549
:02000C00189545
:02001000189541
:0200140018953D
:02001800189539
:02001C00E6C23A
:02002000189531
:0200240018952D
:0200280014C002
:02002C00189525
:02003000189521
:0200340018951D
:02003800189519
:02003C00189515
:02004000189511
:0200440018950D
:02004800189509
:02004C00189505
:1000500018951F93869B05C012B31F7B12BB1F917F
:10006000189512B3106412BB1F9118951F93DF935C
:10007000CF93CAE6D8E1DBBDCABDD1E0C3E21881A7
:1000800011FD0AC01F931CE013BF1F911D7F188331
:10009000CF91DF911F9118951F93112713BF12B3B2
:1000A000197F12BB1F9112601883CF91DF911F91AE
:1000B0001895E199FECFF894FFBBEEBBE09A0DB323
:1000C000789408959A95F1F78A95E1F77A95D1F7A2
:1000D0000895F8940F93147015BB007F102B15BB77
:1000E000C895AB9AC895AB989F938F937F9390EFE9
:1000F00081E071E0E7DF7F918F919F9114700F9104
:100100000F70000F000F000F000F102B15BBC895CC
:10011000AB9AC895AB98C89500EF05BB7894089545
:100120001F93DF93CF930F93D1E0C1E21991088120
:10013000013319F4133008F406C010E001E3D1E0F4
:10014000C1E2199308830F91CF91DF911F91B29B68
:10015000FECF08951F93DF93CF930F93D1E0C1E2B9
:1001600019910881023319F4133008F491C010E09A
:1001700002E3D1E0C1E2199308832F93BF93AF93B9
:100180001F93DF93CF93F894D1E0C0E22881789455
:1001900010E0211301C076C02A9510E1129FA02D16
:1001A000B12D10E6A10F1127B11FF8941F930F93E3
:1001B0001F930F9310E000E88CDF0F911F919F9326
:1001C0008F937F9390EF81E071E07CDF7F918F913F
:1001D0009F910F911F911F930F93AF93BF933F93E5
:1001E00014E031E10D9175DF9F938F937F9390EF32
:1001F00081E071E067DF7F918F919F913A9591F750
:100200003F91BF91AF910F911F91789410E1129F90
:10021000A02DB12D10ECA10F1127B11FF8941F9341
:100220000F931F930F9310E000EC53DF0F911F917A
:100230009F938F937F9390EF81E071E043DF7F91F5
:100240008F919F910F911F911F930F93AF93BF9326
:100250003F9314E031E10D913CDF9F938F937F93A7
:1002600090EF81E071E02EDF7F918F919F913A9521
:1002700091F73F91BF91AF910F911F91D1E0C0E2F3
:1002800028837894CF91DF911F91AF91BF912F91E7
:100290000F91CF91DF911F91B19BFECF08951F93D6
:1002A000DF93CF930F93D1E0C1E21991088103331B
:1002B00019F4133008F406C010E003E3D1E0C1E202
:1002C000199308830F91CF91DF911F91B09BFECFBF
:1002D00008951F93DF93CF930F93D1E0C1E219915B
:1002E0000881043319F4133008F406C010E004E365
:1002F000D1E0C1E2199308830F91CF91DF911F9153
:10030000B09BFECF08951F93DF93CF930F93D1E05F
:10031000C1E219910881053319F4133008F41CC0A7
:1003200010E005E3D1E0C1E219930883D1E0C0E217
:100330001881153089F4D1E0C3E2188110FD05C0A1
:100340001F931CE013BF1F9107C01F93112713BFFA
:1003500012B3197F12BB1F910F91CF91DF911F91A3
:100360007894B19BFECF08951F93DF93CF930F93A3
:10037000D1E0C1E219910881063319F4133008F471
:1003800006C010E006E3D1E0C1E2199308830F91A3
:10039000CF91DF911F91B09BFECF08951F93DF9304
:1003A000CF930F93D1E0C1E219910881073319F47B
:1003B000133008F406C010E007E3D1E0C1E219935E
:1003C00008830F91CF91DF911F91B29BFECF0895CB
:1003D0001F93DF93CF930F93D1E0C1E2199108816E
:1003E000083319F4133008F491C010E008E3D1E0A9
:1003F000C1E2199308832F93BF93AF931F93DF93A9
:10040000CF93F894D1E0C0E22881789415E02113CD
:1004100001C076C0239510E1129FA02DB12D10E6EA
:10042000A10F1127B11FF8941F930F931F930F93E0
:1004300010E000E84EDE0F911F919F938F937F9302
:1004400090EF81E071E03EDE7F918F919F910F915F
:100450001F911F930F93AF93BF933F9314E031E12C
:100460000D9137DE9F938F937F9390EF81E071E042
:1004700029DE7F918F919F913A9591F73F91BF919E
:10048000AF910F911F91789410E1129FA02DB12D83
:1004900010ECA10F1127B11FF8941F930F931F9316
:1004A0000F9310E000EC15DE0F911F919F938F9337
:1004B0007F9390EF81E071E005DE7F918F919F91B6
:1004C0000F911F911F930F93AF93BF933F9314E02E
:1004D00031E10D91FEDD9F938F937F9390EF81E04B
:1004E00071E0F0DD7F918F919F913A9591F73F9167
:1004F000BF91AF910F911F91D1E0C0E22883789412
:10050000CF91DF911F91AF91BF912F910F91CF911B
:10051000DF911F91B19BFECF08951F93DF93CF937F
:100520000F93D1E0C1E219910881093319F4133016
:1005300008F406C010E009E3D1E0C1E21993088392
:100540000F91CF91DF911F91B09BFECF08951F9324
:10055000DF93CF930F93D1E0C1E2199108810A3262
:1005600019F4133008F406C010E00AE2D1E0C1E249
:10057000199308830F91CF91DF911F91B29BFECF0A
:1005800008951F93DF93CF930F93D1E0C1E21991A8
:100590000881003319F4133008F406C010E000E3BA
:1005A000D1E0C1E2199308830F91CF91DF911F91A0
:1005B000B19BFECF08951F93DF93CF930F93D1E0AC
:1005C000C1E219910881033219F4133008F406C00E
:1005D00010E003E2D1E0C1E2199308830F91CF91BB
:1005E000DF911F91B29BFECF08951F93DF93CF93AE
:1005F00010B31C631B7F12BBB29BA9DFB19BAADDAA
:10060000B09B4DDE10B31C63177F12BBB29B88DD1D
:10061000B19B79DEB09BA8DE10B31C631F7E12BBBA
:10062000B29B57DEB19BD4DEB09B77DF10B31C6367
:100630001F7D12BBB29BB2DEB19BA3DFB09BBBDFC1
:10064000F894CAB5DBB51AE6C10F18E1D11FDBBDBE
:10065000CABDCC27DD27DDBDCCBDD1E0C1E2789499
:10066000188113951883CF91DF911F911895E0E6BB
:10067000F0E000270193F830E9F7E036D9F7EE27EC
:10068000FF27EEE1FF27EA95F083E9F70FE50DBFBD
:1006900008E00EBFF89418E119BF11271FBD14E040
:1006A0001EBD08E11AE60BBD1ABD04E814E209BD3F
:1006B00018BD11271DBD1CBD789417B3187F17BB3B
:1006C00018B3176018BB11B31C6311BB14B31C6FB4
:1006D00014BB15B3137015BB9F938F937F9392EF49
:1006E0008FE075E0EFDC7F918F919F9110E315BB58
:1006F000AB9AC895AB989F938F937F9395EE8EE1BD
:1007000079E0E0DC7F918F919F91AB9AC895AB988F
:100710009F938F937F9392EF8FE075E0D3DC7F916F
:100720008F919F91AB9AC895AB989F938F937F932E
:1007300092EF8FE075E0C6DC7F918F919F9110E280
:1007400015BBAB9AC895AB989F938F937F9390EF0F
:1007500081E071E0B7DC7F918F919F911F930F93A0
:1007600010E008E2B6DC0F911F919F938F937F9367
:1007700090EF81E071E0A6DC7F918F919F911F93B4
:100780000F9310E001E0A5DC0F911F919F938F93D1
:100790007F939EE88AE271E095DC7F918F919F9133
:1007A0001F930F9310E00FE094DC0F911F919F9324
:1007B0008F937F939EE88AE271E084DC7F918F9132
:1007C0009F911F930F9310E000E483DC0F911F9122
:1007D0009F938F937F9390EF81E071E073DC7F9123
:1007E0008F919F911F930F9314E000E072DC0F91A3
:1007F0001F919F938F937F9390EF81E071E062DC74
:100800007F918F919F911F930F9314E000E061DC23
:100810000F911F919F938F937F9390EF81E071E0F1
:1008200051DC7F918F919F911F930F9314E000E013
:1008300050DC0F911F919F938F937F9390EF81E0F6
:1008400071E040DC7F918F919F911F930F9314E093
:1008500000E03FDC0F911F919F938F937F9390EF68
:1008600081E071E02FDC7F918F919F911F930F9317
:1008700014E004E02EDC0F911F919F938F937F93E0
:1008800090EF81E071E01EDC7F918F919F911F932B
:100890000F9314E00EE01DDC0F911F919F938F9337
:1008A0007F9390EF81E071E00DDC7F918F919F91BC
:1008B0001F930F9314E00FE10CDC0F911F919F9396
:1008C0008F937F9390EF81E071E0FCDB7F918F91BC
:1008D0009F911F930F9314E000E0FBDB0F911F919A
:1008E0009F938F937F9390EF81E071E0EBDB7F919B
:1008F0008F919F911F930F9314E000E0EADB0F911B
:100900001F919F938F937F9390EF81E071E0DADBEB
:100910007F918F919F911F930F9314E00FE1D9DB8B
:100920000F911F919F938F937F9390EF81E071E0E0
:10093000C9DB7F918F919F911F930F9314E00EE07D
:10094000C8DB0F911F919F938F937F9390EF81E06E
:1009500071E0B8DB7F918F919F911F930F9314E00B
:1009600004E0B7DB0F911F919F938F937F9390EFDC
:1009700081E071E0A7DB7F918F919F911F930F938F
:1009800014E000E0A6DB0F911F919F938F937F935C
:1009900090EF81E071E096DB7F918F919F911F93A3
:1009A0000F9314E000E095DB0F911F919F938F93BD
:1009B0007F9390EF81E071E085DB7F918F919F9134
:1009C0001F930F9314E000E084DB0F911F919F931E
:1009D0008F937F9390EF81E071E074DB7F918F9133
:1009E0009F911F930F9314E000E073DB0F911F9111
:1009F0009F938F937F9390EF81E071E063DB7F9112
:100A00008F919F911F930F931F930F9310E000E816
:100A100060DB0F911F919F938F937F9390EF81E005
:100A200071E050DB7F918F919F910F911F91F8940E
:100A3000DD27C0E6EE27FF2731EC3BDB0993E3958A
:100A40003A95D9F77894D1E0C0E210E01883FF938B
:100A5000EF931F930F933F93F0E0E0E614E031E152
:100A6000019137DB9F938F937F9390EF81E071E04B
:100A700029DB7F918F919F913A9591F73F910F914B
:100A80001F91EF91FF911F930F931F930F9310E00E
:100A900000EC1FDB0F911F919F938F937F9390EF3B
:100AA00081E071E00FDB7F918F919F910F911F91FA
:100AB000FF93EF931F930F933F93F0E0E0EC14E06C
:100AC00031E1019106DB9F938F937F9390EF81E05B
:100AD00071E0F8DA7F918F919F913A9591F73F916C
:100AE0000F911F91EF91FF9111B3106411BB12B3DD
:100AF0001F7B12BB112712BF17E11CBF19B7116072
:100B000019BF1F93DF93CF93F894D1E0C3E2789499
:100B100010E0188319B7177F19BF1F93112713BF50
:100B200012B3197F12BB1F91CF91DF911F9100006B
:020B3000FECFF6
:00000001FF
