:020000020000FC
:02000000A2C09C
:0200040018954D
:02000800189549
:02000C00189545
:02001000189541
:0200140018953D
:02001800189539
:02001C00189535
:02002000189531
:0200240018952D
:02002800189529
:02002C00189525
:02003000189521
:0200340018951D
:02003800189519
:02003C00189515
:02004000189511
:0200440018950D
:02004800189509
:02004C00189505
:02005000189501
:100060009FEF9A95F1F708958AE29EE89A95F1F745
:100070008A95E1F700000895E199FECFF894FFBB5F
:10008000EEBBE09A0DB3789408950F93147015BBEE
:10009000007F102B15BBC895AB9AC895AB98E0DFD5
:1000A00014700F910F70000F000F000F000F102B36
:1000B00015BBC895AB9AC895AB98C89500EF05BB22
:1000C0000895829BFDCF0895829BFDCF0895829B6A
:1000D000FDCF0895839BFDCF089510E000E8D5DFA4
:1000E000BFDFF0E0E0E614E031E10191CEDFB8DF00
:1000F0003A95D9F7839BFDCF0895839BFDCF089553
:10010000849BFDCF089510E000ECBFDFA9DFF0E095
:10011000E0E614E031E10191B8DFA2DF3A95D9F7CA
:10012000849BFDCF0895849BFDCF089510E001E0EE
:10013000ACDF9ADF859BFDCF0895859BFDCF0895A9
:10014000859BFDCF0895E0E6F0E000270193F830AD
:10015000E9F7E036D9F7EE27FF27EEE1FF27EA952A
:10016000F083E9F70FE50DBF08E00EBFDD27C0E61D
:10017000EE27FF2731E680DF0993E3953A95D9F71B
:1001800017E017BB10E811BB1CE312BB1CEF14BB3C
:10019000112715BB10E215BBAB9AC895AB9810EFB1
:1001A00015BB10E008E271DF5BDF10E001E06DDFFE
:1001B0005BDF10E00FE069DF53DF13E018BB829BC9
:1001C00080DF839B87DF849B9BDF859BB6DF15E009
:1001D00018BB829B79DF839B80DF849B94DF859BA8
:1001E000A5DF16E018BB829B72DF839B86DF849BB2
:0801F0009ADF859BA5DFE1CF3A
:00000001FF
