:020000020000FC
:020000004CC1F1
:0200040018954D
:02000800189549
:02000C00189545
:02001000189541
:0200140018953D
:02001800189539
:02001C00189535
:02002000189531
:0200240018952D
:02002800189529
:02002C00189525
:02003000189521
:0200340018951D
:02003800189519
:02003C00189515
:02004000189511
:0200440018950D
:02004800189509
:02004C00189505
:02005000189501
:10006000E199FECFF894FFBBEEBBE09A0DB3789414
:1000700008959F939FEF9A95F1F79F9108959F930D
:100080008F938AE29EE89A95F1F78A95E1F700004E
:100090008F919F9108950F93147015BB007F102BC3
:1000A00015BBC895AB9AC895AB98E3DF14700F9158
:1000B0000F70000F000F000F000F102B15BBC8951D
:1000C000AB9AC895AB98C89500EF05BB0895829B85
:1000D000FECF08952F93BF93AF931F93DF93CF93DA
:1000E000D1E0C0E2288110E0211301C04EC02A9562
:1000F00010E1129FA02DB12D10E6A10F1127B11F05
:100100001F930F931F930F9310E000E8C4DF0F912C
:100110001F91AFDF0F911F911F930F93AF93BF9369
:100120003F9314E031E10D91B6DFA3DF3A95D9F7A3
:100130003F91BF91AF910F911F9110E1129FA02DA0
:10014000B12D10ECA10F1127B11F1F930F931F9317
:100150000F9310E000EC9FDF0F911F918ADF0F914A
:100160001F911F930F93AF93BF933F9314E031E11F
:100170000D9191DF7EDF3A95D9F73F91BF91AF9115
:100180000F911F91D1E0C0E22883CF91DF911F91A1
:10019000AF91BF912F91829BFECF0895829BFECF9E
:1001A0000895839BFECF0895839BFECF0895839B84
:1001B000FECF0895849BFECF08952F93BF93AF93F6
:1001C0001F93DF93CF93D1E0C0E2288115E0211384
:1001D00001C04EC0239510E1129FA02DB12D10E655
:1001E000A10F1127B11F1F930F931F930F9310E0BF
:1001F00000E851DF0F911F913CDF0F911F911F937A
:100200000F93AF93BF933F9314E031E10D9143DF20
:1002100030DF3A95D9F73F91BF91AF910F911F9180
:1002200010E1129FA02DB12D10ECA10F1127B11FCD
:100230001F930F931F930F9310E000EC2CDF0F918F
:100240001F9117DF0F911F911F930F93AF93BF93D0
:100250003F9314E031E10D911EDF0BDF3A95D9F7A2
:100260003F91BF91AF910F911F91D1E0C0E22883E0
:10027000CF91DF911F91AF91BF912F91849BFECFC2
:100280000895849BFECF0895859BFECF0895859B9E
:10029000FECF0895859BFECF0895E0E6F0E00027AD
:1002A0000193F830E9F7E036D9F7EE27FF27EEE1C2
:1002B000FF27EA95F083E9F70FE50DBF08E00EBFD1
:1002C00017E017BB10E811BB1CE312BB1CEF14BBFB
:1002D000112715BB10E215BBAB9AC895AB9810EF70
:1002E00015BB1F930F9310E008E2D5DE0F911F910D
:1002F000C0DE1F930F9310E001E0CDDE0F911F9140
:10030000BEDE1F930F9310E00FE0C5DE0F911F912B
:10031000B0DE1F930F9310E000E4BDDE0F911F913C
:10032000A8DE1F930F9314E000E0B5DE0F911F913C
:10033000A0DE1F930F9314E000E0ADDE0F911F913C
:1003400098DE1F930F9314E000E0A5DE0F911F913C
:1003500090DE1F930F9314E000E09DDE0F911F913C
:1003600088DE1F930F9314E004E095DE0F911F9138
:1003700080DE1F930F9314E00EE08DDE0F911F912E
:1003800078DE1F930F9314E00FE185DE0F911F912C
:1003900070DE1F930F9314E000E07DDE0F911F913C
:1003A00068DE1F930F9314E000E075DE0F911F913C
:1003B00060DE1F930F9314E00FE16DDE0F911F912C
:1003C00058DE1F930F9314E00EE065DE0F911F912E
:1003D00050DE1F930F9314E004E05DDE0F911F9138
:1003E00048DE1F930F9314E000E055DE0F911F913C
:1003F00040DE1F930F9314E000E04DDE0F911F913C
:1004000038DE1F930F9314E000E045DE0F911F913B
:1004100030DE1F930F9314E000E03DDE0F911F913B
:1004200028DE1F930F931F930F9310E000E833DE35
:100430000F911F911EDE0F911F91DD27C0E6EE2761
:10044000FF2731EC0DDE0993E3953A95D9F7D1E01A
:10045000C0E210E01883FF93EF931F930F933F9335
:10046000F0E0E0E614E031E1019115DE02DE3A95BC
:10047000D9F73F910F911F91EF91FF911F930F9328
:100480001F930F9310E000EC06DE0F911F91F1DD3A
:100490000F911F91FF93EF931F930F933F93F0E002
:1004A000E0EC14E031E10191F6DDE3DD3A95D9F7B6
:1004B0003F910F911F91EF91FF9116E018BB829B26
:1004C00006DE839B6EDE849B75DE859BE0DE15E099
:1004D00018BB829BFFDD839B67DE849B6EDE859B62
:1004E000D3DE13E018BB829B59DE839B60DE849BC6
:0804F000C8DE859BCFDEE1CFE1
:00000001FF
