:020000020000FC
:02000000D8C264
:0200040018954D
:02000800189549
:02000C00189545
:02001000189541
:0200140018953D
:02001800189539
:02001C0091C28F
:02002000189531
:0200240018952D
:02002800189529
:02002C00189525
:02003000189521
:0200340018951D
:02003800189519
:02003C00189515
:02004000189511
:0200440018950D
:02004800189509
:02004C00189505
:100050001895E199FECFF894FFBBEEBBE09A0DB383
:10006000789408959A95F1F78A95E1F77A95D1F702
:1000700008950F93147015BB007F102B15BBC89506
:10008000AB9AC895AB989F938F937F9390EF81E045
:1000900071E0E8DF7F918F919F9114700F910F7045
:1000A000000F000F000F000F102B15BBC895AB9A67
:1000B000C895AB98C89500EF05BB08951F93DF93D3
:1000C000CF930F93D1E0C1E219910881013319F464
:1000D000133008F406C010E001E3D1E0C1E2199347
:1000E00008830F91CF91DF911F91B29BFECF0895AE
:1000F0001F93DF93CF930F93D1E0C1E21991088151
:10010000023319F4133008F48BC010E002E3D1E09D
:10011000C1E2199308832F93BF93AF931F93DF938B
:10012000CF93D1E0C0E2288110E0211301C072C05A
:100130002A9510E1129FA02DB12D10E6A10F1127D5
:10014000B11F1F930F931F930F9310E000E891DFEF
:100150000F911F919F938F937F9390EF81E071E0B8
:1001600081DF7F918F919F910F911F911F930F932B
:10017000AF93BF933F9314E031E10D917ADF9F93EA
:100180008F937F9390EF81E071E06CDF7F918F918F
:100190009F913A9591F73F91BF91AF910F911F9128
:1001A00010E1129FA02DB12D10ECA10F1127B11F4E
:1001B0001F930F931F930F9310E000EC5ADF0F91E2
:1001C0001F919F938F937F9390EF81E071E04ADFBF
:1001D0007F918F919F910F911F911F930F93AF93D9
:1001E000BF933F9314E031E10D9143DF9F938F93D1
:1001F0007F9390EF81E071E035DF7F918F919F9148
:100200003A9591F73F91BF91AF910F911F91D1E036
:10021000C0E22883CF91DF911F91AF91BF912F91C1
:100220000F91CF91DF911F91B19BFECF08951F9346
:10023000DF93CF930F93D1E0C1E21991088103338B
:1002400019F4133008F406C010E003E3D1E0C1E272
:10025000199308830F91CF91DF911F91B09BFECF2F
:1002600008951F93DF93CF930F93D1E0C1E21991CB
:100270000881043319F4133008F406C010E004E3D5
:10028000D1E0C1E2199308830F91CF91DF911F91C3
:10029000B09BFECF08951F93DF93CF930F93D1E0D0
:1002A000C1E219910881053319F4133008F406C02E
:1002B00010E005E3D1E0C1E2199308830F91CF91DB
:1002C000DF911F91B19BFECF08951F93DF93CF93D2
:1002D0000F93D1E0C1E219910881063319F413306C
:1002E00008F406C010E006E3D1E0C1E219930883E8
:1002F0000F91CF91DF911F91B09BFECF08951F9377
:10030000DF93CF930F93D1E0C1E2199108810733B6
:1003100019F4133008F406C010E007E3D1E0C1E29D
:10032000199308830F91CF91DF911F91B29BFECF5C
:1003300008951F93DF93CF930F93D1E0C1E21991FA
:100340000881083319F4133008F48BC010E008E377
:10035000D1E0C1E2199308832F93BF93AF931F930A
:10036000DF93CF93D1E0C0E2288115E0211301C0D3
:1003700072C0239510E1129FA02DB12D10E6A10FA0
:100380001127B11F1F930F931F930F9310E000E8E5
:1003900070DE0F911F919F938F937F9390EF81E079
:1003A00071E060DE7F918F919F910F911F911F935C
:1003B0000F93AF93BF933F9314E031E10D9159DE5A
:1003C0009F938F937F9390EF81E071E04BDE7F915D
:1003D0008F919F913A9591F73F91BF91AF910F9176
:1003E0001F9110E1129FA02DB12D10ECA10F11272C
:1003F000B11F1F930F931F930F9310E000EC39DE92
:100400000F911F919F938F937F9390EF81E071E005
:1004100029DE7F918F919F910F911F911F930F93D1
:10042000AF93BF933F9314E031E10D9122DE9F9390
:100430008F937F9390EF81E071E014DE7F918F9135
:100440009F913A9591F73F91BF91AF910F911F9175
:10045000D1E0C0E22883CF91DF911F91AF91BF918E
:100460002F910F91CF91DF911F91B19BFECF0895F6
:100470001F93DF93CF930F93D1E0C1E219910881CD
:10048000093319F4133008F406C010E009E3D1E091
:10049000C1E2199308830F91CF91DF911F91B09B17
:1004A000FECF08951F93DF93CF930F93D1E0C1E266
:1004B000199108810A3219F4133008F406C010E0CB
:1004C0000AE2D1E0C1E2199308830F91CF91DF9145
:1004D0001F91B29BFECF08951F93DF93CF930F938D
:1004E000D1E0C1E219910881003319F4133008F406
:1004F00006C010E000E3D1E0C1E2199308830F9138
:10050000CF91DF911F91B19BFECF08951F93DF9391
:10051000CF930F93D1E0C1E219910881033219F40E
:10052000133008F406C010E003E2D1E0C1E21993F1
:1005300008830F91CF91DF911F91B29BFECF089559
:10054000F8941F93DF93CF9310B31C631B7F12BBF0
:10055000B29BA8DFB19BCCDDB09B69DE10B31C63FE
:10056000177F12BBB29BAADDB19B95DEB09BADDEBF
:1005700010B31C631F7E12BBB29B73DEB19BD9DE2E
:10058000B09B76DF10B31C631F7D12BBB29BB7DE3E
:10059000B19BA2DFB09BBADF11271DBD1CBDD1E00E
:1005A000C1E2188113951883CF91DF911F91789440
:1005B0001895E0E6F0E000270193F830E9F7E0361F
:1005C000D9F7EE27FF27EEE1FF27EA95F083E9F759
:1005D0000FE50DBF08E00EBFF89410E119BF112719
:1005E0001FBD13E01EBD01E618EA0BBD1ABD1127A1
:1005F0001DBD1CBD789417B3187F17BB18B31760C7
:1006000018BB11B31C6311BB14B31C6F14BB15B31F
:10061000137015BB9F938F937F9392EF8FE075E0DC
:1006200021DD7F918F919F9110E315BBAB9AC89507
:10063000AB989F938F937F9395EE8EE179E012DDD7
:100640007F918F919F91AB9AC895AB989F938F9311
:100650007F9392EF8FE075E005DD7F918F919F9101
:10066000AB9AC895AB989F938F937F9392EF8FE04F
:1006700075E0F8DC7F918F919F9110E215BBAB9AEA
:10068000C895AB989F938F937F9390EF81E071E033
:10069000E9DC7F918F919F911F930F9310E008E207
:1006A000E8DC0F911F919F938F937F9390EF81E0F0
:1006B00071E0D8DC7F918F919F911F930F9310E091
:1006C00001E0D7DC0F911F919F938F937F939EE85A
:1006D0008AE271E0C7DC7F918F919F911F930F9306
:1006E00010E00FE0C6DC0F911F919F938F937F93D3
:1006F0009EE88AE271E0B6DC7F918F919F911F9313
:100700000F9310E000E4B5DC0F911F919F938F933E
:100710007F9390EF81E071E0A5DC7F918F919F91B5
:100720001F930F9314E000E0A4DC0F911F919F939F
:100730008F937F9390EF81E071E094DC7F918F91B4
:100740009F911F930F9314E000E093DC0F911F9192
:100750009F938F937F9390EF81E071E083DC7F9193
:100760008F919F911F930F9314E000E082DC0F9113
:100770001F919F938F937F9390EF81E071E072DCE4
:100780007F918F919F911F930F9314E000E071DC94
:100790000F911F919F938F937F9390EF81E071E072
:1007A00061DC7F918F919F911F930F9314E004E080
:1007B00060DC0F911F919F938F937F9390EF81E067
:1007C00071E050DC7F918F919F911F930F9314E004
:1007D0000EE04FDC0F911F919F938F937F9390EFCB
:1007E00081E071E03FDC7F918F919F911F930F9388
:1007F00014E00FE13EDC0F911F919F938F937F9345
:1008000090EF81E071E02EDC7F918F919F911F939B
:100810000F9314E000E02DDC0F911F919F938F93B5
:100820007F9390EF81E071E01DDC7F918F919F912C
:100830001F930F9314E000E01CDC0F911F919F9316
:100840008F937F9390EF81E071E00CDC7F918F912B
:100850009F911F930F9314E00FE10BDC0F911F91F9
:100860009F938F937F9390EF81E071E0FBDB7F910B
:100870008F919F911F930F9314E00EE0FADB0F917D
:100880001F919F938F937F9390EF81E071E0EADB5C
:100890007F918F919F911F930F9314E004E0E9DB08
:1008A0000F911F919F938F937F9390EF81E071E061
:1008B000D9DB7F918F919F911F930F9314E000E0FC
:1008C000D8DB0F911F919F938F937F9390EF81E0DF
:1008D00071E0C8DB7F918F919F911F930F9314E07C
:1008E00000E0C7DB0F911F919F938F937F9390EF51
:1008F00081E071E0B7DB7F918F919F911F930F9300
:1009000014E000E0B6DB0F911F919F938F937F93CC
:1009100090EF81E071E0A6DB7F918F919F911F9313
:100920000F9314E000E0A5DB0F911F919F938F932D
:100930007F9390EF81E071E095DB7F918F919F91A4
:100940001F930F931F930F9310E000E892DB0F911A
:100950001F919F938F937F9390EF81E071E082DBF3
:100960007F918F919F910F911F91DD27C0E6EE2718
:10097000FF2731EC6EDB0993E3953A95D9F7D1E087
:10098000C0E210E01883FF93EF931F930F933F9300
:10099000F0E0E0E614E031E101916BDB9F938F938F
:1009A0007F9390EF81E071E05DDB7F918F919F916C
:1009B0003A9591F73F910F911F91EF91FF911F93FE
:1009C0000F931F930F9310E000EC53DB0F911F91D7
:1009D0009F938F937F9390EF81E071E043DB7F9152
:1009E0008F919F910F911F91FF93EF931F930F93FF
:1009F0003F93F0E0E0EC14E031E101913ADB9F93AA
:100A00008F937F9390EF81E071E02CDB7F918F914A
:100A10009F913A9591F73F910F911F91EF91FF911F
:040A20000000FECF05
:00000001FF
