:020000020000FC
:0200000022C21A
:0200040018954D
:02000800189549
:02000C00189545
:02001000189541
:0200140018953D
:02001800189539
:02001C00DBC146
:02002000189531
:0200240018952D
:02002800189529
:02002C00189525
:02003000189521
:0200340018951D
:02003800189519
:02003C00189515
:02004000189511
:0200440018950D
:02004800189509
:02004C00189505
:100050001895E199FECFF894FFBBEEBBE09A0DB383
:10006000789408959A95F1F78A95E1F77A95D1F702
:1000700008950F93147015BB007F102B15BBC89506
:10008000AB9AC895AB989F938F937F9390EF81E045
:1000900071E0E8DF7F918F919F9114700F910F7045
:1000A000000F000F000F000F102B15BBC895AB9A67
:1000B000C895AB98C89500EF05BB08951F93DF93D3
:1000C000CF930F93D1E0C1E219910881013319F464
:1000D000133008F40DC010E001E3D1E0C1E2199340
:1000E00008831F930F9314E001E3C3DF0F911F9167
:1000F0000F91CF91DF911F91B29BFECF08951F9377
:10010000DF93CF930F93D1E0C1E2199108810233BD
:1001100019F4133008F40DC010E002E3D1E0C1E29D
:10012000199308831F930F9314E002E3A2DF0F914A
:100130001F910F91CF91DF911F91B19BFECF089539
:100140001F93DF93CF930F93D1E0C1E21991088100
:10015000033319F4133008F40DC010E003E3D1E0C9
:10016000C1E2199308831F930F9314E003E381DF27
:100170000F911F910F91CF91DF911F91B09BFECFF7
:1001800008951F93DF93CF930F93D1E0C1E21991AC
:100190000881043319F4133008F40DC010E004E3AF
:1001A000D1E0C1E2199308831F930F9314E004E395
:1001B00060DF0F911F910F91CF91DF911F91B09B45
:1001C000FECF08951F93DF93CF930F93D1E0C1E249
:1001D00019910881053319F4133008F40DC010E0AB
:1001E00005E3D1E0C1E2199308831F930F9314E054
:1001F00005E33FDF0F911F910F91CF91DF911F9189
:10020000B19BFECF08951F93DF93CF930F93D1E05F
:10021000C1E219910881063319F4133008F40DC0B6
:1002200010E006E3D1E0C1E2199308831F930F9316
:1002300014E006E31EDF0F911F910F91CF91DF9124
:100240001F91B09BFECF08951F93DF93CF930F9321
:10025000D1E0C1E219910881073319F4133008F491
:100260000DC010E007E3D1E0C1E2199308831F93AA
:100270000F9314E007E3FDDE0F911F910F91CF91D3
:10028000DF911F91B29BFECF08951F93DF93CF9311
:100290000F93D1E0C1E219910881083319F41330AA
:1002A00008F40DC010E008E3D1E0C1E2199308831F
:1002B0001F930F9314E008E3DCDE0F911F910F9161
:1002C000CF91DF911F91B19BFECF08951F93DF93D4
:1002D000CF930F93D1E0C1E219910881093319F44A
:1002E000133008F40DC010E009E3D1E0C1E2199326
:1002F00008831F930F9314E009E3BBDE0F911F9156
:100300000F91CF91DF911F91B09BFECF08951F9366
:10031000DF93CF930F93D1E0C1E2199108810A32A4
:1003200019F4133008F40DC010E00AE2D1E0C1E284
:10033000199308831F930F9314E00AE29ADE0F913A
:100340001F910F91CF91DF911F91B29BFECF089526
:100350001F93DF93CF930F93D1E0C1E219910881EE
:10036000003319F4133008F40DC010E000E3D1E0BD
:10037000C1E2199308831F930F9314E000E379DE21
:100380000F911F910F91CF91DF911F91B19BFECFE4
:1003900008951F93DF93CF930F93D1E0C1E219919A
:1003A0000881033219F4133008F40DC010E003E2A1
:1003B000D1E0C1E2199308831F930F9314E003E285
:1003C00058DE0F911F910F91CF91DF911F91B29B3A
:1003D000FECF0895F8941F93DF93CF9310B31C635F
:1003E0001B7F12BBB29B93DFB19B89DEB09BA8DE63
:1003F00010B31C63177F12BBB29B60DEB19BE2DEC1
:10040000B09B01DF10B31C631F7E12BBB29BB9DE31
:10041000B19B3BDFB09B5ADF10B31C631F7D12BB47
:10042000B29B12DFB19B94DFB09BB3DF11271DBDE0
:100430001CBDD1E0C1E2188113951883CF91DF91E3
:100440001F9178941895E0E6F0E000270193F830CA
:10045000E9F7E036D9F7EE27FF27EEE1FF27EA9527
:10046000F083E9F70FE50DBF08E00EBFF89410E147
:1004700019BF11271FBD13E01EBD01E618EA0BBD11
:100480001ABD11271DBD1CBD789417B3187F17BB6B
:1004900018B3176018BB11B31C6311BB14B31C6FE6
:1004A00014BB15B3137015BB9F938F937F9392EF7B
:1004B0008FE075E0D7DD7F918F919F9110E315BBA1
:1004C000AB9AC895AB989F938F937F9395EE8EE1EF
:1004D00079E0C8DD7F918F919F91AB9AC895AB98D9
:1004E0009F938F937F9392EF8FE075E0BBDD7F91B9
:1004F0008F919F91AB9AC895AB989F938F937F9361
:1005000092EF8FE075E0AEDD7F918F919F9110E2C9
:1005100015BBAB9AC895AB989F938F937F9390EF41
:1005200081E071E09FDD7F918F919F911F930F93E9
:1005300010E008E29EDD0F911F919F938F937F93B0
:1005400090EF81E071E08EDD7F918F919F911F93FD
:100550000F9310E001E08DDD0F911F919F938F931A
:100560007F939EE88AE271E07DDD7F918F919F917C
:100570001F930F9310E00FE07CDD0F911F919F936D
:100580008F937F939EE88AE271E06CDD7F918F917B
:100590009F911F930F9310E000E46BDD0F911F916B
:1005A0009F938F937F9390EF81E071E05BDD7F916C
:1005B0008F919F911F930F9314E000E05ADD0F91EC
:1005C0001F919F938F937F9390EF81E071E04ADDBD
:1005D0007F918F919F911F930F9314E000E049DD6D
:1005E0000F911F919F938F937F9390EF81E071E024
:1005F00039DD7F918F919F911F930F9314E000E05D
:1006000038DD0F911F919F938F937F9390EF81E03F
:1006100071E028DD7F918F919F911F930F9314E0DC
:1006200000E027DD0F911F919F938F937F9390EFB1
:1006300081E071E017DD7F918F919F911F930F9360
:1006400014E004E016DD0F911F919F938F937F9329
:1006500090EF81E071E006DD7F918F919F911F9374
:100660000F9314E00EE005DD0F911F919F938F9380
:100670007F9390EF81E071E0F5DC7F918F919F9106
:100680001F930F9314E00FE1F4DC0F911F919F93E0
:100690008F937F9390EF81E071E0E4DC7F918F9105
:1006A0009F911F930F9314E000E0E3DC0F911F91E3
:1006B0009F938F937F9390EF81E071E0D3DC7F91E4
:1006C0008F919F911F930F9314E000E0D2DC0F9164
:1006D0001F919F938F937F9390EF81E071E0C2DC35
:1006E0007F918F919F911F930F9314E00FE1C1DCD5
:1006F0000F911F919F938F937F9390EF81E071E013
:10070000B1DC7F918F919F911F930F9314E00EE0C6
:10071000B0DC0F911F919F938F937F9390EF81E0B7
:1007200071E0A0DC7F918F919F911F930F9314E054
:1007300004E09FDC0F911F919F938F937F9390EF25
:1007400081E071E08FDC7F918F919F911F930F93D8
:1007500014E000E08EDC0F911F919F938F937F93A5
:1007600090EF81E071E07EDC7F918F919F911F93EC
:100770000F9314E000E07DDC0F911F919F938F9306
:100780007F9390EF81E071E06DDC7F918F919F917D
:100790001F930F9314E000E06CDC0F911F919F9367
:1007A0008F937F9390EF81E071E05CDC7F918F917C
:1007B0009F911F930F9314E000E05BDC0F911F915A
:1007C0009F938F937F9390EF81E071E04BDC7F915B
:1007D0008F919F911F930F931F930F9310E000E849
:1007E00048DC0F911F919F938F937F9390EF81E04F
:1007F00071E038DC7F918F919F910F911F910000E4
:02080000FECF29
:00000001FF
