:020000020000FC
:02000000A7C196
:0200040018954D
:02000800189549
:02000C00189545
:02001000189541
:0200140018953D
:02001800189539
:02001C00189535
:02002000189531
:0200240018952D
:02002800189529
:02002C00189525
:02003000189521
:0200340018951D
:02003800189519
:02003C00189515
:02004000189511
:0200440018950D
:02004800189509
:02004C00189505
:02005000189501
:10006000E199FECFF894FFBBEEBBE09A0DB3789414
:1000700008959A95F1F78A95E1F77A95D1F7089561
:100080000F93147015BB007F102B15BBC895AB9A4E
:10009000C895AB989F938F937F9390EF81E071E029
:1000A000E8DF7F918F919F9114700F910F70000F77
:1000B000000F000F000F102B15BBC895AB9AC89509
:1000C000AB98C89500EF05BB0895829BFECF0895BD
:1000D0002F93BF93AF931F93DF93CF93D1E0C0E2F1
:1000E000288110E0211301C072C02A9510E1129FEF
:1000F000A02DB12D10E6A10F1127B11F1F930F9353
:100100001F930F9310E000E8BBDF0F911F919F93A7
:100110008F937F9390EF81E071E0ABDF7F918F91C0
:100120009F910F911F911F930F93AF93BF933F9395
:1001300014E031E10D91A4DF9F938F937F9390EFB3
:1001400081E071E096DF7F918F919F913A9591F7D1
:100150003F91BF91AF910F911F9110E1129FA02D80
:10016000B12D10ECA10F1127B11F1F930F931F93F7
:100170000F9310E000EC84DF0F911F919F938F93FA
:100180007F9390EF81E071E074DF7F918F919F9179
:100190000F911F911F930F93AF93BF933F9314E061
:1001A00031E10D916DDF9F938F937F9390EF81E00D
:1001B00071E05FDF7F918F919F913A9591F73F9129
:1001C000BF91AF910F911F91D1E0C0E22883CF91F1
:1001D000DF911F91AF91BF912F91829BFECF089528
:1001E000829BFECF0895839BFECF0895839BFECF15
:1001F0000895839BFECF0895849BFECF08952F938F
:10020000BF93AF931F93DF93CF93D1E0C0E22881D8
:1002100015E0211301C072C0239510E1129FA02D9B
:10022000B12D10E6A10F1127B11F1F930F931F933C
:100230000F9310E000E824DF0F911F919F938F939D
:100240007F9390EF81E071E014DF7F918F919F9118
:100250000F911F911F930F93AF93BF933F9314E0A0
:1002600031E10D910DDF9F938F937F9390EF81E0AC
:1002700071E0FFDE7F918F919F913A9591F73F91C9
:10028000BF91AF910F911F9110E1129FA02DB12D41
:1002900010ECA10F1127B11F1F930F931F930F9302
:1002A00010E000ECEDDE0F911F919F938F937F93F1
:1002B00090EF81E071E0DDDE7F918F919F910F9152
:1002C0001F911F930F93AF93BF933F9314E031E1BE
:1002D0000D91D6DE9F938F937F9390EF81E071E035
:1002E000C8DE7F918F919F913A9591F73F91BF9191
:1002F000AF910F911F91D1E0C0E22883CF91DF91A0
:100300001F91AF91BF912F91849BFECF0895849B45
:10031000FECF08951F930F931F930F9310E001E0FA
:10032000AFDE0F911F919F938F937F939EE88AE298
:1003300071E09FDE7F918F919F910F911F91859B1F
:10034000FECF0895859BFECF0895859BFECF08952F
:10035000E0E6F0E000270193F830E9F7E036D9F75E
:10036000EE27FF27EEE1FF27EA95F083E9F70FE597
:100370000DBF08E00EBF17E017BB10E811BB1CE370
:1003800012BB1CEF14BB112715BB9F938F937F9358
:1003900092EF8FE075E06DDE7F918F919F9110E37A
:1003A00015BBAB9AC895AB989F938F937F9395EEAF
:1003B0008EE179E05EDE7F918F919F91AB9AC89537
:1003C000AB989F938F937F9392EF8FE075E051DE10
:1003D0007F918F919F91AB9AC895AB989F938F9384
:1003E0007F9392EF8FE075E044DE7F918F919F9134
:1003F00010E215BBAB9AC895AB989F938F937F93F0
:1004000090EF81E071E035DE7F918F919F911F9396
:100410000F9310E008E234DE0F911F919F938F93AA
:100420007F9390EF81E071E024DE7F918F919F9127
:100430001F930F9310E001E023DE0F911F919F9314
:100440008F937F939EE88AE271E013DE7F918F9114
:100450009F911F930F9310E00FE012DE0F911F91F9
:100460009F938F937F939EE88AE271E002DE7F91F3
:100470008F919F911F930F9310E000E401DE0F9185
:100480001F919F938F937F9390EF81E071E0F1DD57
:100490007F918F919F911F930F9314E000E0F0DD07
:1004A0000F911F919F938F937F9390EF81E071E065
:1004B000E0DD7F918F919F911F930F9314E000E0F7
:1004C000DFDD0F911F919F938F937F9390EF81E0DA
:1004D00071E0CFDD7F918F919F911F930F9314E077
:1004E00000E0CEDD0F911F919F938F937F9390EF4C
:1004F00081E071E0BEDD7F918F919F911F930F93FB
:1005000014E000E0BDDD0F911F919F938F937F93C7
:1005100090EF81E071E0ADDD7F918F919F911F930E
:100520000F9314E004E0ACDD0F911F919F938F9324
:100530007F9390EF81E071E09CDD7F918F919F919F
:100540001F930F9314E00EE09BDD0F911F919F937B
:100550008F937F9390EF81E071E08BDD7F918F919E
:100560009F911F930F9314E00FE18ADD0F911F916C
:100570009F938F937F9390EF81E071E07ADD7F917D
:100580008F919F911F930F9314E000E079DD0F91FD
:100590001F919F938F937F9390EF81E071E069DDCE
:1005A0007F918F919F911F930F9314E000E068DD7E
:1005B0000F911F919F938F937F9390EF81E071E054
:1005C00058DD7F918F919F911F930F9314E00FE15E
:1005D00057DD0F911F919F938F937F9390EF81E051
:1005E00071E047DD7F918F919F911F930F9314E0EE
:1005F0000EE046DD0F911F919F938F937F9390EFB5
:1006000081E071E036DD7F918F919F911F930F9371
:1006100014E004E035DD0F911F919F938F937F933A
:1006200090EF81E071E025DD7F918F919F911F9385
:100630000F9314E000E024DD0F911F919F938F939F
:100640007F9390EF81E071E014DD7F918F919F9116
:100650001F930F9314E000E013DD0F911F919F9300
:100660008F937F9390EF81E071E003DD7F918F9115
:100670009F911F930F9314E000E002DD0F911F91F3
:100680009F938F937F9390EF81E071E0F2DC7F91F5
:100690008F919F911F930F9314E000E0F1DC0F9175
:1006A0001F919F938F937F9390EF81E071E0E1DC46
:1006B0007F918F919F911F930F931F930F9310E042
:1006C00000E8DEDC0F911F919F938F937F9390EF53
:1006D00081E071E0CEDC7F918F919F910F911F910E
:1006E000DD27C0E6EE27FF2731ECBADC0993E3955E
:1006F0003A95D9F7D1E0C0E210E01883FF93EF9369
:100700001F930F933F93F0E0E0E614E031E1019195
:10071000B7DC9F938F937F9390EF81E071E0A9DC2A
:100720007F918F919F913A9591F73F910F911F91F2
:10073000EF91FF911F930F931F930F9310E000EC25
:100740009FDC0F911F919F938F937F9390EF81E098
:1007500071E08FDC7F918F919F910F911F91FF939B
:10076000EF931F930F933F93F0E0E0EC14E031E13F
:10077000019186DC9F938F937F9390EF81E071E0EE
:1007800078DC7F918F919F913A9591F73F910F91EE
:100790001F91EF91FF9116E018BB829B96DC839B23
:1007A00022DD849B29DD859BCDDD15E018BB829B76
:1007B0008FDC839B1BDD849B22DD859BABDD13E0FF
:1007C00018BB829B0DDD839B14DD849BA0DD859B84
:0407D000BCDDE1CFDC
:00000001FF
