:020000020000FC
:060000000C94000A1895A3
:02000800189549
:02000C00189545
:02001000189541
:0200140018953D
:02001800189539
:06001C000C94B0096CC356
:0200240018952D
:0200280062C3B1
:02002C00189525
:02003000189521
:0200340018951D
:02003800189519
:02003C00189515
:02004000189511
:0200440018950D
:02004800189509
:02004C0037C0BB
:1000500018959A95F1F78A95E1F77A95D1F7089571
:10006000F8940F93147015BB007F102B15BBC89527
:10007000AB9AC895AB989F938F937F9390EF81E055
:1000800071E00E9429007F918F919F9114700F91D0
:100090000295007F102B15BBC895AB9AC895AB98FD
:1000A000C89500EF05BB78940895E199FECFF894C8
:1000B000FFBBEEBBE09A0DB3789408951F93DF93D6
:1000C000CF93D1E0C4E2188116FFB4C01F71113084
:1000D000C9F0123011F11330B1F114301FB711FD16
:1000E00047C0D1E0C4E218811F7115301FB711FD60
:1000F0004EC0D1E0C4E218811F7116301FB711FD48
:100100005AC074C0D1E0C4E218811395188315EA6F
:1001100016BFCF91DF911F91189511B11C7F183038
:100120001FB711FF57C0D1E0C4E21881139518839F
:10013000D1E0CAE218811E7F13B915E816BFCF912E
:10014000DF911F91189511B11C7F18311FB711FF56
:1001500041C0D1E0C4E2188113951883D1E0CBE20D
:10016000188113B915E816BFCF91DF911F9118952B
:1001700011B11C7F183271F5D1E0C4E218811395DA
:10018000188315EA16BFCF91DF911F91189511B111
:100190001C7F1031F9F4D1E0C4E218811395188363
:1001A000D1E0CAE21881116013B915E816BFCF91EA
:1001B000DF911F91189511B11C7F103459F4D1E0D3
:1001C000C4E218811395188315E816BFCF91DF910B
:1001D0001F911895D1E0C4E218811F77106218832F
:1001E00015E916BFCF91DF911F911895D1E0C4E2B8
:1001F000188111271883D1E0CCE213B1188311279D
:1002000013B915E916BFCF91DF911F91189511B160
:100210001C7F1832F9F6D1E0C4E2188113951883D7
:10022000D1E0CDE2188113B915E816BFCF91DF9167
:100230001F9118951F7111301FB711FD63CFD1E0C9
:10024000C4E218811F7112301FB711FD66CFD1E0D3
:10025000C4E218811F7113301FB711FD74CFD1E0B4
:10026000C4E218811F7114301FB711FDD0CFBECF6B
:100270001F930F93DF93CF930027D1E0C5E218813E
:10028000D1E0CDE21883D1E0CBE212E01883C5D0F3
:100290000395D1E0C5E2C00F0F930027D01F0F9147
:1002A0001881D1E0CDE21883D1E0CBE211E01883D0
:1002B000B4D00395D1E0C5E2C00F0F930027D01F43
:1002C0000F911881D1E0CDE21883D1E0CBE214E0A8
:1002D0001883A3D00395D1E0C5E2C00F0F93002788
:1002E000D01F0F911881D1E0CDE21883D1E0CBE28D
:1002F00015E0188392D00395D1E0C5E2C00F0F93AB
:100300000027D01F0F911881D1E0CDE21883D1E0F2
:10031000CBE215E0188381D0CF91DF910F911F912F
:1003200008951F930F93DF93CF930027D1E0CBE283
:1003300012E018838AD0D1E0CCE21881D1E0C5E286
:100340001883D1E0CBE211E018837FD0D1E0CCE27A
:1003500018810395D1E0C5E2C00F0F930027D01F8D
:100360000F911883D1E0CBE214E018836ED0D1E076
:10037000CCE218810395D1E0C5E2C00F0F930027AE
:10038000D01F0F911883D1E0CBE215E018835DD028
:10039000D1E0CCE218810395D1E0C5E2C00F0F9304
:1003A0000027D01F0F911883D1E0CBE216E018830D
:1003B0004CD0D1E0CCE218810395D1E0C5E2C00F6A
:1003C0000F930027D01F0F911883CF91DF910F91CA
:1003D0001F9108952F933F931F93DF93CF93BF9364
:1003E000AF9330E32227D1E0C0E0B1E0A5E21D9158
:1003F0001F9312951F70130F19931F911F70130FE6
:10040000199321962395253091F7AF91BF91CF9104
:10041000DF911F913F912F9108951F93DF93CF9309
:10042000D1E0C4E2188117FDFBCF10E813951883C3
:1004300045DED1E0C4E2188115FDF2CF1F71103006
:10044000C1F7CF91DF911F9108951F93DF93CF9351
:10045000D1E0C4E2188117FDFBCF10EC139518838F
:100460002DDED1E0C4E2188115FDF2CF1F711030EE
:10047000C1F7CF91DF911F9108951F93DF93CF9321
:100480001F77D1E0CDE21883D1E0CBE210E01883F2
:10049000C4DFCF91DF911F9108951F93DF93CF9316
:1004A0001F7BD1E0CDE21883D1E0CBE212E01883CC
:1004B000B4DFCF91DF911F9108951F93DF93CF9306
:1004C0000F93D1E0CEE2088107FF27C0D1E0C1E45D
:1004D00018811A3010F105FF0DC0D1E0C1E41127D9
:1004E0001883D1E0CEE20F7D0883B3D010E21993D8
:1004F000188313C0D1E0C1E411271883D1E0CEE204
:1005000000620883FF93EF93A4D0F1E0EFE3119131
:10051000199310811883EF91FF912F93BF93AF939D
:100520001F93DF93CF93D1E0C0E2288110E1129FA7
:10053000A02DB12D10E6A10F1127B11F1F930F930E
:100540001F930F9310E000E80E9430000F911F915D
:100550009F938F937F9390EF81E071E00E94290039
:100560007F918F919F910F911F911F930F93AF9345
:10057000BF933F9314E031E10D910E9430009F93AF
:100580008F937F9390EF81E071E00E9429007F912B
:100590008F919F913A9581F73F91BF91AF910F91C4
:1005A0001F9110E1129FA02DB12D10ECA10F11276A
:1005B000B11F1F930F931F930F9310E000EC0E9445
:1005C00030000F911F919F938F937F9390EF81E065
:1005D00071E00E9429007F918F919F910F911F914F
:1005E0001F930F93AF93BF933F9314E031E10D91AD
:1005F0000E9430009F938F937F9390EF81E071E092
:100600000E9429007F918F919F913A9581F73F91A8
:10061000BF91AF910F911F91CF91DF911F91AF913A
:10062000BF912F910F91CF91DF911F910895DF938B
:10063000CF93FF93EF931F93F1E0EFE30AD019916B
:100640001193188110831F91EF91FF91CF91DF914A
:1006500008951F930F93D1E0CEE218811F71012FEF
:10066000100F100FD1E0C0E0C10F0027D01F0F9175
:100670001F910895DF93CF931F93D1E0CEE21881AD
:100680001F7B139518831F91CF91DF9108951F93BE
:10069000DF93CF93D1E0C3E211E0188319B718605C
:1006A00019BF1F931CE013BF1F91CF91DF911F91C2
:1006B00008951F93DF93CF93D1E0C3E210E0188336
:1006C00019B7177F19BF1F93112713BF1F91CC278D
:1006D000DD27F894DDBDCCBD78940CE015E3F894EB
:1006E0000BBD1ABD7894CF91DF911F910895869B21
:1006F00002C096981895969A18951F93DF93CF93FA
:10070000DCE0C5E3F894DBBDCABD78941F9313B752
:10071000103029F01F93112713BF1F9104C01F939E
:100720001CE013BF1F911F91CC27DD27F894DDBD7E
:10073000CCBD7894CF91DF911F9118951F93DF93D3
:10074000CF930F93D1E0C1E219910881013319F4DD
:10075000113008F445C010E001E3D1E0C1E2199383
:1007600008831F93DF93CF930F93D1E0CEE21881DC
:1007700017FF31C016FF1CC011E3105308810F7121
:10078000D1E0C0E3C00F1127D01F0881011738F056
:1007900060DF00E3099311E318836CDF1CC059DFAD
:1007A00011E31883D1E0CEE218811064188313C0DE
:1007B00011E3105308810F71D1E0C0E3C00F11277E
:1007C000D01F0881011711E318F0102F00E3100F5C
:1007D00040DF18834FDF2BDF0F91CF91DF911F9107
:1007E0000F91CF91DF911F917894B29BFECF089526
:1007F0001F93DF93CF930F93D1E0C1E2199108814A
:10080000023319F4113008F4D8C010E002E3D1E04B
:10081000C1E219930883D1E0CEE2188117FF40C0EE
:100820001F93DF93CF930F93D1E0CEE2188117FF90
:1008300031C016FF1CC012E3105308810F71D1E0C4
:10084000C0E3C00F1127D01F0881011738F001DF66
:1008500000E3099312E318830DDF1CC0FADE12E3F4
:100860001883D1E0CEE218811064188313C012E31C
:10087000105308810F71D1E0C0E3C00F1127D01FC2
:100880000881011712E318F0102F00E3100FE1DECA
:100890001883F0DECCDE0F91CF91DF911F918DC0D8
:1008A0002F93BF93AF931F93DF93CF93D1E0C0E219
:1008B000288110E0211301C07AC02A9510E1129F0F
:1008C000A02DB12D10E6A10F1127B11F1F930F937B
:1008D0001F930F9310E000E80E9430000F911F91CA
:1008E0009F938F937F9390EF81E071E00E942900A6
:1008F0007F918F919F910F911F911F930F93AF93B2
:10090000BF933F9314E031E10D910E9430009F931B
:100910008F937F9390EF81E071E00E9429007F9197
:100920008F919F913A9581F73F91BF91AF910F9130
:100930001F9110E1129FA02DB12D10ECA10F1127D6
:10094000B11F1F930F931F930F9310E000EC0E94B1
:1009500030000F911F919F938F937F9390EF81E0D1
:1009600071E00E9429007F918F919F910F911F91BB
:100970001F930F93AF93BF933F9314E031E10D9119
:100980000E9430009F938F937F9390EF81E071E0FE
:100990000E9429007F918F919F913A9581F73F9115
:1009A000BF91AF910F911F91D1E0C0E22883CF9109
:1009B000DF911F91AF91BF912F910F91CF91DF9157
:1009C0001F917894B19BFECF08951F93DF93CF932F
:1009D0000F93D1E0C1E219910881033319F411306A
:1009E00008F445C010E003E3D1E0C1E219930883A5
:1009F0001F93DF93CF930F93D1E0CEE2188117FFBF
:100A000031C016FF1CC013E3105308810F71D1E0F1
:100A1000C0E3C00F1127D01F0881011738F019DE7D
:100A200000E3099313E3188325DE1CC012DE13E3F1
:100A30001883D1E0CEE218811064188313C013E349
:100A4000105308810F71D1E0C0E3C00F1127D01FF0
:100A50000881011713E318F0102F00E3100FF9DDE0
:100A6000188308DEE4DD0F91CF91DF911F910F9184
:100A7000CF91DF911F917894B09BFECF08951F9383
:100A8000DF93CF930F93D1E0C1E219910881043332
:100A900019F4113008F445C010E004E3D1E0C1E2DC
:100AA000199308831F93DF93CF930F93D1E0CEE286
:100AB000188117FF31C016FF1CC014E310530881C2
:100AC0000F71D1E0C0E3C00F1127D01F08810117BB
:100AD00038F0BFDD00E3099314E31883CBDD1CC0BD
:100AE000B8DD14E31883D1E0CEE2188110641883D6
:100AF00013C014E3105308810F71D1E0C0E3C00F9D
:100B00001127D01F0881011714E318F0102F00E3FC
:100B1000100F9FDD1883AEDD8ADD0F91CF91DF913D
:100B20001F910F91CF91DF911F917894B09BFECFD1
:100B300008951F93DF93CF930F93D1E0C1E21991F2
:100B40000881053319F4113008F458C010E005E3AA
:100B5000D1E0C1E219930883D1E0CEE2188117FFFA
:100B600040C01F93DF93CF930F93D1E0CEE2188163
:100B700017FF31C016FF1CC015E3105308810F7119
:100B8000D1E0C0E3C00F1127D01F0881011738F052
:100B900060DD00E3099315E318836CDD1CC059DDAB
:100BA00015E31883D1E0CEE218811064188313C0D6
:100BB00015E3105308810F71D1E0C0E3C00F112776
:100BC000D01F0881011715E318F0102F00E3100F54
:100BD00040DD18834FDD2BDD0F91CF91DF911F9109
:100BE0000DC0D1E0C0E21881153041F4D1E0C3E27C
:100BF000188110FD02C04BDD01C05BDD0F91CF916C
:100C0000DF911F917894B19BFECF08951F93DF93DE
:100C1000CF930F93D1E0C1E219910881063319F403
:100C2000113008F445C010E006E3D1E0C1E21993A9
:100C300008831F93DF93CF930F93D1E0CEE2188107
:100C400017FF31C016FF1CC016E3105308810F7147
:100C5000D1E0C0E3C00F1127D01F0881011738F081
:100C6000F8DC00E3099316E3188304DD1CC0F1DC13
:100C700016E31883D1E0CEE218811064188313C004
:100C800016E3105308810F71D1E0C0E3C00F1127A4
:100C9000D01F0881011716E318F0102F00E3100F82
:100CA000D8DC1883E7DCC3DC0F91CF91DF911F9173
:100CB0000F91CF91DF911F917894B09BFECF089553
:100CC0001F93DF93CF930F93D1E0C1E21991088175
:100CD000073319F4113008F445C010E007E3D1E000
:100CE000C1E2199308831F93DF93CF930F93D1E051
:100CF000CEE2188117FF31C016FF1CC017E3105356
:100D000008810F71D1E0C0E3C00F1127D01F088107
:100D1000011738F09EDC00E3099317E31883AADC7F
:100D20001CC097DC17E31883D1E0CEE21881106471
:100D3000188313C017E3105308810F71D1E0C0E38B
:100D4000C00F1127D01F0881011717E318F0102FCB
:100D500000E3100F7EDC18838DDC69DC0F91CF91EE
:100D6000DF911F910F91CF91DF911F917894B29BEA
:100D7000FECF08951F93DF93CF930F93D1E0C1E28D
:100D800019910881083319F4113008F4D8C010E023
:100D900008E3D1E0C1E219930883D1E0CEE21881E3
:100DA00017FF40C01F93DF93CF930F93D1E0CEE2A4
:100DB000188117FF31C016FF1CC018E310530881BB
:100DC0000F71D1E0C0E3C00F1127D01F08810117B8
:100DD00038F03FDC00E3099318E318834BDC1CC0B8
:100DE00038DC18E31883D1E0CEE218811064188350
:100DF00013C018E3105308810F71D1E0C0E3C00F96
:100E00001127D01F0881011718E318F0102F00E3F5
:100E1000100F1FDC18832EDC0ADC0F91CF91DF91BD
:100E20001F918DC02F93BF93AF931F93DF93CF93E9
:100E3000D1E0C0E2288115E0211301C07AC02395DA
:100E400010E1129FA02DB12D10E6A10F1127B11FA7
:100E50001F930F931F930F9310E000E80E94300040
:100E60000F911F919F938F937F9390EF81E071E09B
:100E70000E9429007F918F919F910F911F911F9345
:100E80000F93AF93BF933F9314E031E10D910E9414
:100E900030009F938F937F9390EF81E071E00E94E9
:100EA00029007F918F919F913A9581F73F91BF9152
:100EB000AF910F911F9110E1129FA02DB12D10EC59
:100EC000A10F1127B11F1F930F931F930F9310E0D2
:100ED00000EC0E9430000F911F919F938F937F939E
:100EE00090EF81E071E00E9429007F918F919F91A6
:100EF0000F911F911F930F93AF93BF933F9314E0F4
:100F000031E10D910E9430009F938F937F9390EF7A
:100F100081E071E00E9429007F918F919F913A9525
:100F200081F73F91BF91AF910F911F91D1E0C0E246
:100F30002883CF91DF911F91AF91BF912F910F9196
:100F4000CF91DF911F917894B19BFECF08951F93AD
:100F5000DF93CF930F93D1E0C1E219910881093358
:100F600019F4113008F445C010E009E3D1E0C1E202
:100F7000199308831F93DF93CF930F93D1E0CEE2B1
:100F8000188117FF31C016FF1CC019E310530881E8
:100F90000F71D1E0C0E3C00F1127D01F08810117E6
:100FA00038F057DB00E3099319E3188363DB1CC0B7
:100FB00050DB19E31883D1E0CEE218811064188366
:100FC00013C019E3105308810F71D1E0C0E3C00FC3
:100FD0001127D01F0881011719E318F0102F00E323
:100FE000100F37DB188346DB22DB0F91CF91DF91A7
:100FF0001F910F91CF91DF911F917894B09BFECFFD
:1010000008951F93DF93CF930F93D1E0C1E219911D
:1010100008810A3219F4113008F49AC010E00AE28B
:10102000D1E0C1E219930883D1E0CEE2188117FF25
:1010300008C010E018831CD90E9491010E94EA01A7
:1010400002C010E818832F93BF93AF931F93DF93D1
:10105000CF93D1E0C0E2288110E1129FA02DB12DE5
:1010600010E6A10F1127B11F1F930F931F930F932A
:1010700010E000E80E9430000F911F919F938F9322
:101080007F9390EF81E071E00E9429007F918F9122
:101090009F910F911F911F930F93AF93BF933F9316
:1010A00014E031E10D910E9430009F938F937F9364
:1010B00090EF81E071E00E9429007F918F919F91D4
:1010C0003A9581F73F91BF91AF910F911F9110E138
:1010D000129FA02DB12D10ECA10F1127B11F1F934E
:1010E0000F931F930F9310E000EC0E9430000F91BC
:1010F0001F919F938F937F9390EF81E071E00E9407
:1011000029007F918F919F910F911F911F930F93B2
:10111000AF93BF933F9314E031E10D910E943000F3
:101120009F938F937F9390EF81E071E00E9429005D
:101130007F918F919F913A9581F73F91BF91AF91A8
:101140000F911F91CF91DF911F91AF91BF912F917F
:101150000F91CF91DF911F917894B29BFECF0895AC
:101160001F93DF93CF930F93D1E0C1E219910881D0
:10117000003319F4113008F445C010E000E3D1E069
:10118000C1E2199308831F93DF93CF930F93D1E0AC
:10119000CEE2188117FF31C016FF1CC010E31053B8
:1011A00008810F71D1E0C0E3C00F1127D01F088163
:1011B000011738F04EDA00E3099310E318835ADA86
:1011C0001CC047DA10E31883D1E0CEE21881106426
:1011D000188313C010E3105308810F71D1E0C0E3EE
:1011E000C00F1127D01F0881011710E318F0102F2E
:1011F00000E3100F2EDA18833DDA19DA0F91CF9140
:10120000DF911F910F91CF91DF911F917894B19B46
:10121000FECF08951F93DF93CF930F93D1E0C1E2E8
:1012200019910881033219F4113008F491C010E0CB
:1012300003E2D1E0C1E219930883D1E0CEE2188144
:1012400017FD01C017DA2F93BF93AF931F93DF935E
:10125000CF93D1E0C0E2288110E1129FA02DB12DE3
:1012600010E6A10F1127B11F1F930F931F930F9328
:1012700010E000E80E9430000F911F919F938F9320
:101280007F9390EF81E071E00E9429007F918F9120
:101290009F910F911F911F930F93AF93BF933F9314
:1012A00014E031E10D910E9430009F938F937F9362
:1012B00090EF81E071E00E9429007F918F919F91D2
:1012C0003A9581F73F91BF91AF910F911F9110E136
:1012D000129FA02DB12D10ECA10F1127B11F1F934C
:1012E0000F931F930F9310E000EC0E9430000F91BA
:1012F0001F919F938F937F9390EF81E071E00E9405
:1013000029007F918F919F910F911F911F930F93B0
:10131000AF93BF933F9314E031E10D910E943000F1
:101320009F938F937F9390EF81E071E00E9429005B
:101330007F918F919F913A9581F73F91BF91AF91A6
:101340000F911F91CF91DF911F91AF91BF912F917D
:101350000F91CF91DF911F917894B29BFECF0895AA
:101360001F93DF93CF93D1E0C1E4188113951883C5
:10137000A4D810B31C631B7F12BBB29B42DEB19B8F
:1013800037DAB09B22DB10B31C63177F12BBB29B12
:10139000D5D9B19BCEDBB09B39DC10B31C631F7E6B
:1013A00012BBB29B6CDBB19BE5DCB09BD0DD10B314
:1013B0001C631F7D12BBB29B83DCB19BD1DEB09B53
:1013C00029DFD1E0C3E2188110FF0BC0CAB5DBB53D
:1013D00015E3C10F1CE0D11FF894DBBDCABD7894A2
:1013E00006C0CC27DD27F894DDBDCCBD7894D1E0D4
:1013F000C1E2188113951883CF91DF911F91189541
:10140000E0E6F0E000270193F830E9F7E036D9F79D
:10141000EE27FF27EEE1FF27EA95F083E9F70FE5D6
:101420000DBF08E00EBFF89410E119BF11271FBDD2
:1014300014E01EBD0CE015E30BBD1ABD0AE712E176
:1014400009BD18BD11271DBD1CBD789417B3187FA9
:1014500017BB18B3176018BB11B31C6311BB14B3CF
:101460001C6F14BB15B3137015BB9F938F937F93A1
:1014700092EF8FE075E00E9429007F918F919F91FC
:1014800010E315BBAB9AC895AB989F938F937F934E
:1014900095EE8EE179E00E9429007F918F919F91D6
:1014A000AB9AC895AB989F938F937F9392EF8FE001
:1014B00075E00E9429007F918F919F91AB9AC8950A
:1014C000AB989F938F937F9392EF8FE075E00E948C
:1014D00029007F918F919F9110E215BBAB9AC8951F
:1014E000AB989F938F937F9390EF81E071E00E9480
:1014F00029007F918F919F911F930F9310E008E235
:101500000E9430000F911F919F938F937F9390EFD4
:1015100081E071E00E9429007F918F919F911F933C
:101520000F9310E001E00E9430000F911F919F93F4
:101530008F937F939EE88AE271E00E9429007F9159
:101540008F919F911F930F9310E00FE00E94300046
:101550000F911F919F938F937F939EE88AE271E092
:101560000E9429007F918F919F911F930F9310E00C
:1015700000E40E9430000F911F919F938F937F93FF
:1015800090EF81E071E00E9429007F918F919F91FF
:101590001F930F9314E000E00E9430000F911F9101
:1015A0009F938F937F9390EF81E071E00E942900D9
:1015B0007F918F919F911F930F9314E000E00E9401
:1015C00030000F911F919F938F937F9390EF81E055
:1015D00071E00E9429007F918F919F911F930F933B
:1015E00014E000E00E9430000F911F919F938F93B1
:1015F0007F9390EF81E071E00E9429007F918F91AD
:101600009F911F930F9314E000E00E9430000F9110
:101610001F919F938F937F9390EF81E071E00E94E1
:1016200029007F918F919F911F930F9314E004E005
:101630000E9430000F911F919F938F937F9390EFA3
:1016400081E071E00E9429007F918F919F911F930B
:101650000F9314E00EE00E9430000F911F919F93B2
:101660008F937F9390EF81E071E00E9429007F913A
:101670008F919F911F930F9314E00FE10E94300010
:101680000F911F919F938F937F9390EF81E071E073
:101690000E9429007F918F919F911F930F9314E0D7
:1016A00000E00E9430000F911F919F938F937F93D2
:1016B00090EF81E071E00E9429007F918F919F91CE
:1016C0001F930F9314E000E00E9430000F911F91D0
:1016D0009F938F937F9390EF81E071E00E942900A8
:1016E0007F918F919F911F930F9314E00FE10E94C0
:1016F00030000F911F919F938F937F9390EF81E024
:1017000071E00E9429007F918F919F911F930F9309
:1017100014E00EE00E9430000F911F919F938F9371
:101720007F9390EF81E071E00E9429007F918F917B
:101730009F911F930F9314E004E00E9430000F91DB
:101740001F919F938F937F9390EF81E071E00E94B0
:1017500029007F918F919F911F930F9314E000E0D8
:101760000E9430000F911F919F938F937F9390EF72
:1017700081E071E00E9429007F918F919F911F93DA
:101780000F9314E000E00E9430000F911F919F938F
:101790008F937F9390EF81E071E00E9429007F9109
:1017A0008F919F911F930F9314E000E00E943000EF
:1017B0000F911F919F938F937F9390EF81E071E042
:1017C0000E9429007F918F919F911F930F9314E0A6
:1017D00000E00E9430000F911F919F938F937F93A1
:1017E00090EF81E071E00E9429007F918F919F919D
:1017F0001F930F931F930F9310E000E80E94300097
:101800000F911F919F938F937F9390EF81E071E0F1
:101810000E9429007F918F919F910F911F91F894C1
:10182000DD27C0E6EE27FF2731EC0E945500099323
:10183000E3953A95D1F77894D1E0C0E210E01883AF
:10184000FF93EF931F930F933F93F0E0E0E614E0D4
:1018500031E101910E9430009F938F937F9390EF2D
:1018600081E071E00E9429007F918F919F913A95CC
:1018700081F73F910F911F91EF91FF911F930F936C
:101880001F930F9310E000EC0E9430000F911F9106
:101890009F938F937F9390EF81E071E00E942900E6
:1018A0007F918F919F910F911F91FF93EF931F93C2
:1018B0000F933F93F0E0E0EC14E031E101910E94DE
:1018C00030009F938F937F9390EF81E071E00E94AF
:1018D00029007F918F919F913A9581F73F910F91C8
:1018E0001F91EF91FF9111B3106411BB12B31F7BD5
:1018F00012BB112712BF17E11CBF19B7126019BF25
:101900001CE310B9D1E0CAE210ED18831F93DF93F6
:10191000CF93D1E0CBE210E018830E942502D1E002
:10192000CCE2188117FD0E943D02D1E0CBE212E02B
:1019300018830E942502D1E0CCE2188116FD0E9496
:101940004D02CF91DF911F910E9491010E94EA0107
:101950002F93BF93AF931F93DF93CF93D1E0C0E258
:10196000288110E1129FA02DB12D10E6A10F1127A3
:10197000B11F1F930F931F930F9310E000E80E9475
:1019800030000F911F919F938F937F9390EF81E091
:1019900071E00E9429007F918F919F910F911F917B
:1019A0001F930F93AF93BF933F9314E031E10D91D9
:1019B0000E9430009F938F937F9390EF81E071E0BE
:1019C0000E9429007F918F919F913A9581F73F91D5
:1019D000BF91AF910F911F9110E1129FA02DB12DDA
:1019E00010ECA10F1127B11F1F930F931F930F939B
:1019F00010E000EC0E9430000F911F919F938F9395
:101A00007F9390EF81E071E00E9429007F918F9198
:101A10009F910F911F911F930F93AF93BF933F938C
:101A200014E031E10D910E9430009F938F937F93DA
:101A300090EF81E071E00E9429007F918F919F914A
:101A40003A9581F73F91BF91AF910F911F91CF913F
:101A5000DF911F91AF91BF912F9125E032EC46E8C5
:101A600051E25A95F1F74A95E1F73A95D1F72A955F
:041A7000C1F76ACF81
:00000001FF
