:020000020000FC
:0200000056C0E8
:0200040018954D
:02000800189549
:02000C00189545
:02001000189541
:0200140018953D
:02001800189539
:02001C00189535
:02002000189531
:0200240018952D
:02002800189529
:02002C00189525
:02003000189521
:0200340018951D
:02003800189519
:02003C00189515
:02004000189511
:0200440018950D
:02004800189509
:02004C00189505
:02005000189501
:10006000E199FECFF894FFBBEEBBE09A0DB3789414
:1000700008950F93147015BB007F102B15BBC89506
:10008000AB9AC895AB989FEF9A95F1F714700F91C2
:100090000F70000F000F000F000F102B15BBC8953D
:1000A000AB9AC895AB98C89500EF05BB0895E0E6FC
:1000B000F0E000270193F830E9F7E036D9F7EE27B2
:1000C000FF27EEE1FF27EA95F083E9F70FE50DBF83
:1000D00008E00EBFDD27C0E6EE27FF2731E6C0DFD0
:1000E0000993E3953A95D9F71CEF14BB112715BB7B
:1000F00010E215BBAB9AC895AB9810EF15BB10E09A
:1001000008E2B7DF9FEF9A95F1F710E001E0B1DF69
:100110008AE29EE89A95F1F78A95E1F7000010E0EF
:100120000FE0A7DF9FEF9A95F1F7F0E0E0E614E02B
:1001300031E101919EDF9FEF9A95F1F73A95C9F76A
:040140000000FECFEE
:00000001FF
